{
  "_format": "hh-sol-artifact-1",
  "contractName": "FightClub",
  "sourceName": "contracts/FightClub.sol",
  "abi": [
    {
      "inputs": [
        {
          "internalType": "uint256",
          "name": "_elementsMatrix",
          "type": "uint256"
        },
        {
          "internalType": "address",
          "name": "_signerAddress",
          "type": "address"
        },
        {
          "internalType": "address",
          "name": "_verifySignatureAddress",
          "type": "address"
        },
        {
          "internalType": "bytes32",
          "name": "_provenanceHash",
          "type": "bytes32"
        }
      ],
      "stateMutability": "nonpayable",
      "type": "constructor"
    },
    {
      "anonymous": false,
      "inputs": [
        {
          "indexed": false,
          "internalType": "uint24",
          "name": "_winner",
          "type": "uint24"
        }
      ],
      "name": "Winner",
      "type": "event"
    },
    {
      "inputs": [
        {
          "internalType": "uint128",
          "name": "_random",
          "type": "uint128"
        }
      ],
      "name": "addRandomness",
      "outputs": [],
      "stateMutability": "nonpayable",
      "type": "function"
    },
    {
      "inputs": [
        {
          "internalType": "uint16",
          "name": "_fighterIdentifier",
          "type": "uint16"
        }
      ],
      "name": "bracketWithOnlyFighterAlive",
      "outputs": [
        {
          "internalType": "uint256",
          "name": "",
          "type": "uint256"
        }
      ],
      "stateMutability": "pure",
      "type": "function"
    },
    {
      "inputs": [],
      "name": "emergencyWithdrawal",
      "outputs": [],
      "stateMutability": "nonpayable",
      "type": "function"
    },
    {
      "inputs": [],
      "name": "evaluateWinner",
      "outputs": [],
      "stateMutability": "nonpayable",
      "type": "function"
    },
    {
      "inputs": [
        {
          "internalType": "bool",
          "name": "_isSimulated",
          "type": "bool"
        },
        {
          "internalType": "uint32",
          "name": "_fighterOne",
          "type": "uint32"
        },
        {
          "internalType": "uint32",
          "name": "_fighterTwo",
          "type": "uint32"
        },
        {
          "internalType": "uint256",
          "name": "_random",
          "type": "uint256"
        },
        {
          "internalType": "uint256",
          "name": "_blockNumber",
          "type": "uint256"
        }
      ],
      "name": "fight",
      "outputs": [
        {
          "internalType": "uint128",
          "name": "",
          "type": "uint128"
        }
      ],
      "stateMutability": "view",
      "type": "function"
    },
    {
      "inputs": [],
      "name": "getBet",
      "outputs": [
        {
          "internalType": "uint16",
          "name": "",
          "type": "uint16"
        },
        {
          "internalType": "uint80",
          "name": "",
          "type": "uint80"
        },
        {
          "internalType": "uint80",
          "name": "",
          "type": "uint80"
        },
        {
          "internalType": "uint8",
          "name": "",
          "type": "uint8"
        }
      ],
      "stateMutability": "view",
      "type": "function"
    },
    {
      "inputs": [],
      "name": "getBracketStatus",
      "outputs": [
        {
          "internalType": "uint256",
          "name": "",
          "type": "uint256"
        },
        {
          "internalType": "uint256",
          "name": "",
          "type": "uint256"
        },
        {
          "internalType": "uint256",
          "name": "",
          "type": "uint256"
        },
        {
          "internalType": "uint256",
          "name": "",
          "type": "uint256"
        }
      ],
      "stateMutability": "view",
      "type": "function"
    },
    {
      "inputs": [
        {
          "internalType": "uint80",
          "name": "_equity",
          "type": "uint80"
        },
        {
          "internalType": "uint8",
          "name": "_lastRoundUpdated",
          "type": "uint8"
        }
      ],
      "name": "getEquityForBet",
      "outputs": [
        {
          "internalType": "uint80",
          "name": "",
          "type": "uint80"
        }
      ],
      "stateMutability": "view",
      "type": "function"
    },
    {
      "inputs": [
        {
          "internalType": "uint16",
          "name": "_fighterIdentifier",
          "type": "uint16"
        }
      ],
      "name": "getFighterTotalPot",
      "outputs": [
        {
          "internalType": "uint8",
          "name": "",
          "type": "uint8"
        },
        {
          "internalType": "uint80",
          "name": "",
          "type": "uint80"
        },
        {
          "internalType": "uint80",
          "name": "",
          "type": "uint80"
        }
      ],
      "stateMutability": "view",
      "type": "function"
    },
    {
      "inputs": [],
      "name": "getRandomness",
      "outputs": [
        {
          "internalType": "uint256",
          "name": "",
          "type": "uint256"
        }
      ],
      "stateMutability": "view",
      "type": "function"
    },
    {
      "inputs": [],
      "name": "getTotalPot",
      "outputs": [
        {
          "internalType": "uint256",
          "name": "",
          "type": "uint256"
        }
      ],
      "stateMutability": "view",
      "type": "function"
    },
    {
      "inputs": [
        {
          "internalType": "uint16",
          "name": "_fighterIdentifier",
          "type": "uint16"
        }
      ],
      "name": "isFighterAlive",
      "outputs": [
        {
          "internalType": "bool",
          "name": "",
          "type": "bool"
        }
      ],
      "stateMutability": "view",
      "type": "function"
    },
    {
      "inputs": [
        {
          "internalType": "uint16",
          "name": "_fighterIdentifier",
          "type": "uint16"
        }
      ],
      "name": "placeBet",
      "outputs": [],
      "stateMutability": "payable",
      "type": "function"
    },
    {
      "inputs": [
        {
          "internalType": "bytes",
          "name": "_signature",
          "type": "bytes"
        }
      ],
      "name": "redeemFighterBounty",
      "outputs": [],
      "stateMutability": "nonpayable",
      "type": "function"
    },
    {
      "inputs": [],
      "name": "redeemPot",
      "outputs": [],
      "stateMutability": "nonpayable",
      "type": "function"
    },
    {
      "inputs": [
        {
          "internalType": "uint256",
          "name": "_fighterTrancheOne",
          "type": "uint256"
        },
        {
          "internalType": "uint256",
          "name": "_fighterTrancheTwo",
          "type": "uint256"
        },
        {
          "internalType": "uint256",
          "name": "_fighterTrancheThree",
          "type": "uint256"
        },
        {
          "internalType": "uint256",
          "name": "_fighterTrancheFour",
          "type": "uint256"
        }
      ],
      "name": "setBracketStatus",
      "outputs": [],
      "stateMutability": "nonpayable",
      "type": "function"
    },
    {
      "inputs": [
        {
          "internalType": "bool",
          "name": "_bettingIsOpen",
          "type": "bool"
        },
        {
          "internalType": "uint8",
          "name": "_currentRound",
          "type": "uint8"
        }
      ],
      "name": "setConfig",
      "outputs": [],
      "stateMutability": "nonpayable",
      "type": "function"
    },
    {
      "inputs": [
        {
          "internalType": "bool",
          "name": "_isError",
          "type": "bool"
        }
      ],
      "name": "setConfigError",
      "outputs": [],
      "stateMutability": "nonpayable",
      "type": "function"
    }
  ],
  "bytecode": "0x60806040523480156200001157600080fd5b5060405162004627380380620046278339818101604052810190620000379190620001bc565b336000806101000a81548173ffffffffffffffffffffffffffffffffffffffff021916908373ffffffffffffffffffffffffffffffffffffffff16021790555083600181905550608043426040516020016200009592919062000243565b6040516020818303038152906040528051906020012060001c901c60028190555062ffffff600760000160046101000a81548162ffffff021916908362ffffff16021790555082600760000160076101000a81548173ffffffffffffffffffffffffffffffffffffffff021916908373ffffffffffffffffffffffffffffffffffffffff16021790555081600760010160006101000a81548173ffffffffffffffffffffffffffffffffffffffff021916908373ffffffffffffffffffffffffffffffffffffffff160217905550806007600501819055505050505062000313565b6000815190506200018881620002c5565b92915050565b6000815190506200019f81620002df565b92915050565b600081519050620001b681620002f9565b92915050565b60008060008060808587031215620001d357600080fd5b6000620001e387828801620001a5565b9450506020620001f68782880162000177565b9350506040620002098782880162000177565b92505060606200021c878288016200018e565b91505092959194509250565b6200023d6200023782620002b1565b620002bb565b82525050565b600062000251828562000228565b60208201915062000263828462000228565b6020820191508190509392505050565b6000620002808262000291565b9050919050565b6000819050919050565b600073ffffffffffffffffffffffffffffffffffffffff82169050919050565b6000819050919050565b6000819050919050565b620002d08162000273565b8114620002dc57600080fd5b50565b620002ea8162000287565b8114620002f657600080fd5b50565b6200030481620002b1565b81146200031057600080fd5b50565b61430480620003236000396000f3fe6080604052600436106101095760003560e01c80638fb6162911610095578063cefadde911610064578063cefadde914610316578063d201298c1461033f578063eca2570a1461037e578063fa7b9171146103bb578063fd9cf19e146103f857610109565b80638fb6162914610278578063aaae7b86146102a1578063b8be2394146102cc578063c6d21e81146102e857610109565b806357a15649116100dc57806357a15649146101a75780635b0a3843146101be5780635d3f8c93146101d55780635edec093146101fe5780636b88d8d21461023b57610109565b806320835e8c1461010e5780632e521eb51461013c578063480bc31f146101535780634814516f1461017e575b600080fd5b34801561011a57600080fd5b50610123610421565b604051610133949392919061358f565b60405180910390f35b34801561014857600080fd5b506101516104d4565b005b34801561015f57600080fd5b5061016861098e565b60405161017591906135ef565b60405180910390f35b34801561018a57600080fd5b506101a560048036038101906101a09190612e5b565b61099b565b005b3480156101b357600080fd5b506101bc610aa2565b005b3480156101ca57600080fd5b506101d3610e63565b005b3480156101e157600080fd5b506101fc60048036038101906101f79190612dde565b610fd0565b005b34801561020a57600080fd5b5061022560048036038101906102209190612e84565b6110f8565b60405161023291906135ef565b60405180910390f35b34801561024757600080fd5b50610262600480360381019061025d9190612e84565b611135565b60405161026f9190613310565b60405180910390f35b34801561028457600080fd5b5061029f600480360381019061029a9190612e1a565b6111e6565b005b3480156102ad57600080fd5b506102b6611436565b6040516102c391906135ef565b60405180910390f35b6102e660048036038101906102e19190612e84565b611440565b005b3480156102f457600080fd5b506102fd611a94565b60405161030d949392919061360a565b60405180910390f35b34801561032257600080fd5b5061033d60048036038101906103389190612ead565b611ae9565b005b34801561034b57600080fd5b5061036660048036038101906103619190612e84565b611bce565b6040516103759392919061366a565b60405180910390f35b34801561038a57600080fd5b506103a560048036038101906103a09190612d67565b611c47565b6040516103b29190613574565b60405180910390f35b3480156103c757600080fd5b506103e260048036038101906103dd9190612f10565b612176565b6040516103ef919061364f565b60405180910390f35b34801561040457600080fd5b5061041f600480360381019061041a9190612d15565b6121c0565b005b6000806000806000600460003373ffffffffffffffffffffffffffffffffffffffff1673ffffffffffffffffffffffffffffffffffffffff16815260200190815260200160002090508060000160029054906101000a900461ffff168160000160049054906101000a900469ffffffffffffffffffff1682600001600e9054906101000a900469ffffffffffffffffffff168360000160019054906101000a900460ff1694509450945094505090919293565b600a600760000160039054906101000a900460ff1660ff161461052c576040517f08c379a000000000000000000000000000000000000000000000000000000000815260040161052390613454565b60405180910390fd5b6000600460003373ffffffffffffffffffffffffffffffffffffffff1673ffffffffffffffffffffffffffffffffffffffff168152602001908152602001600020905061058a8160000160029054906101000a900461ffff16611135565b6105c9576040517f08c379a00000000000000000000000000000000000000000000000000000000081526004016105c0906134d4565b60405180910390fd5b8060000160009054906101000a900460ff161561061b576040517f08c379a0000000000000000000000000000000000000000000000000000000008152600401610612906134b4565b60405180910390fd5b60018160000160006101000a81548160ff02191690831515021790555060008160000160019054906101000a900460ff16600760000160039054906101000a900460ff166106699190613b8b565b905080600261067891906138f7565b82600001600e8282829054906101000a900469ffffffffffffffffffff166106a09190613adf565b92506101000a81548169ffffffffffffffffffff021916908369ffffffffffffffffffff160217905550600760000160039054906101000a900460ff168260000160016101000a81548160ff021916908360ff1602179055506000600660008460000160029054906101000a900461ffff1661ffff1661ffff16815260200190815260200160002090508060000160019054906101000a900460ff16600760000160039054906101000a900460ff166107599190613b8b565b915081600261076891906138f7565b81600001600e8282829054906101000a900469ffffffffffffffffffff166107909190613adf565b92506101000a81548169ffffffffffffffffffff021916908369ffffffffffffffffffff160217905550600760000160039054906101000a900460ff168160000160016101000a81548160ff021916908360ff16021790555061085860405180608001604052806041815260200161428e6041913984600001600e9054906101000a900469ffffffffffffffffffff1669ffffffffffffffffffff1683600001600e9054906101000a900469ffffffffffffffffffff1669ffffffffffffffffffff1661226e565b6000600760040154141561086f5761086e61230d565b5b600081600001600e9054906101000a900469ffffffffffffffffffff1669ffffffffffffffffffff1684600001600e9054906101000a900469ffffffffffffffffffff1669ffffffffffffffffffff166007600301546108cf9190613a4a565b6108d99190613873565b90506108fd6040518060600160405280602c8152602001614205602c91398261238a565b3373ffffffffffffffffffffffffffffffffffffffff166108fc829081150290604051600060405180830381858888f19350505050158015610943573d6000803e3d6000fd5b5080600760020160008282546109599190613b57565b925050819055506109886040518060600160405280602e8152602001614260602e91398260076002015461226e565b50505050565b6000600760020154905090565b60006005436109aa9190613dca565b14806109c55750600760000160029054906101000a900460ff165b610a04576040517f08c379a00000000000000000000000000000000000000000000000000000000081526004016109fb90613434565b60405180910390fd5b6001816fffffffffffffffffffffffffffffffff1611610a59576040517f08c379a0000000000000000000000000000000000000000000000000000000008152600401610a50906133f4565b60405180910390fd5b6080804383604051602001610a6f92919061326c565b6040516020818303038152906040528051906020012060001c901c600254610a979190613a4a565b901c60028190555050565b600a600760000160039054906101000a900460ff1660ff1614610afa576040517f08c379a0000000000000000000000000000000000000000000000000000000008152600401610af190613454565b60405180910390fd5b6000600360006001600760000160039054906101000a900460ff16610b1f9190613b8b565b60ff16815260200190815260200160002090506000806000836000015414610b51578260000154915060009050610ba7565b6000836001015414610b6e57826001015491506101009050610ba6565b6000836002015414610b8b57826002015491506102009050610ba5565b6000836003015414610ba4578260030154915061030090505b5b5b5b60006001600760000160039054906101000a900460ff16610bc89190613b8b565b60ff1690505b6001811115610d6c576000600360008381526020019081526020016000209050600083148015610c045750600084826000015416145b15610c48577fde2bff2d6b387fb139cc88f40ef98966425b338cd8a98b2b4e8230a99c74cfe362ffffff604051610c3b919061332b565b60405180910390a1610d58565b61010083148015610c5f5750600084826001015416145b15610ca3577fde2bff2d6b387fb139cc88f40ef98966425b338cd8a98b2b4e8230a99c74cfe362ffffff604051610c96919061332b565b60405180910390a1610d57565b61020083148015610cba5750600084826002015416145b15610cfe577fde2bff2d6b387fb139cc88f40ef98966425b338cd8a98b2b4e8230a99c74cfe362ffffff604051610cf1919061332b565b60405180910390a1610d56565b61030083148015610d155750600084826003015416145b15610d55577fde2bff2d6b387fb139cc88f40ef98966425b338cd8a98b2b4e8230a99c74cfe362ffffff604051610d4c919061332b565b60405180910390a15b5b5b5b508080610d6490613cd9565b915050610bce565b5060005b610100811015610e23576001808285901c161415610e10578060ff610d959190613b57565b82610da09190613775565b600760000160046101000a81548162ffffff021916908362ffffff1602179055507fde2bff2d6b387fb139cc88f40ef98966425b338cd8a98b2b4e8230a99c74cfe38160ff610def9190613b57565b83610dfa9190613775565b604051610e0791906135d4565b60405180910390a15b8080610e1b90613d34565b915050610d70565b507fde2bff2d6b387fb139cc88f40ef98966425b338cd8a98b2b4e8230a99c74cfe362ffffff604051610e56919061332b565b60405180910390a1505050565b600760000160009054906101000a900460ff16610eb5576040517f08c379a0000000000000000000000000000000000000000000000000000000008152600401610eac906134f4565b60405180910390fd5b6000600560003373ffffffffffffffffffffffffffffffffffffffff1673ffffffffffffffffffffffffffffffffffffffff16815260200190815260200160002060009054906101000a900469ffffffffffffffffffff1690506000600560003373ffffffffffffffffffffffffffffffffffffffff1673ffffffffffffffffffffffffffffffffffffffff16815260200190815260200160002060006101000a81548169ffffffffffffffffffff021916908369ffffffffffffffffffff1602179055503373ffffffffffffffffffffffffffffffffffffffff166108fc8269ffffffffffffffffffff169081150290604051600060405180830381858888f19350505050158015610fcc573d6000803e3d6000fd5b5050565b60008054906101000a900473ffffffffffffffffffffffffffffffffffffffff1673ffffffffffffffffffffffffffffffffffffffff163373ffffffffffffffffffffffffffffffffffffffff161461105e576040517f08c379a000000000000000000000000000000000000000000000000000000000815260040161105590613474565b60405180910390fd5b600760000160039054906101000a900460ff1660ff168160ff1610156110b9576040517f08c379a00000000000000000000000000000000000000000000000000000000081526004016110b090613414565b60405180910390fd5b81600760000160026101000a81548160ff02191690831515021790555080600760000160036101000a81548160ff021916908360ff1602179055505050565b600080610100836111099190613d99565b6101006111169190613b23565b61ffff1690506001816111299190613b57565b6001901b915050919050565b60008060036000600760000160039054906101000a900460ff1660ff16815260200190815260200160002090506000610100846111729190613842565b61ffff16905060008082141561118e57826000015490506111c2565b60018214156111a357826001015490506111c1565b60028214156111b857826002015490506111c0565b826003015490505b5b5b60006111cd866110f8565b9050600081831690506000811195505050505050919050565b600760000160019054906101000a900460ff1615611239576040517f08c379a0000000000000000000000000000000000000000000000000000000008152600401611230906133d4565b60405180910390fd5b600a600760000160039054906101000a900460ff1660ff1614611291576040517f08c379a000000000000000000000000000000000000000000000000000000000815260040161128890613454565b60405180910390fd5b600760010160009054906101000a900473ffffffffffffffffffffffffffffffffffffffff1673ffffffffffffffffffffffffffffffffffffffff16632709c803600760000160079054906101000a900473ffffffffffffffffffffffffffffffffffffffff1633600760000160049054906101000a900462ffffff16856040518563ffffffff1660e01b815260040161132e94939291906132c4565b60206040518083038186803b15801561134657600080fd5b505afa15801561135a573d6000803e3d6000fd5b505050506040513d601f19601f8201168201806040525081019061137e9190612d3e565b6113bd576040517f08c379a00000000000000000000000000000000000000000000000000000000081526004016113b490613514565b60405180910390fd5b6001600760000160016101000a81548160ff0219169083151502179055503373ffffffffffffffffffffffffffffffffffffffff166108fc60146007600201546114079190613873565b9081150290604051600060405180830381858888f19350505050158015611432573d6000803e3d6000fd5b5050565b6000600254905090565b60003411611483576040517f08c379a000000000000000000000000000000000000000000000000000000000815260040161147a90613534565b60405180910390fd5b600760000160029054906101000a900460ff166114d5576040517f08c379a00000000000000000000000000000000000000000000000000000000081526004016114cc90613494565b60405180910390fd5b6000600760000160039054906101000a900460ff1660ff161461153b576114fb81611135565b61153a576040517f08c379a0000000000000000000000000000000000000000000000000000000008152600401611531906134d4565b60405180910390fd5b5b6000600460003373ffffffffffffffffffffffffffffffffffffffff1673ffffffffffffffffffffffffffffffffffffffff16815260200190815260200160002090506000808260000160049054906101000a900469ffffffffffffffffffff1669ffffffffffffffffffff1611905060008180156115f157506115d08360000160029054906101000a900461ffff16611135565b806115f057506000600760000160039054906101000a900460ff1660ff16145b5b90508015611656578260000160029054906101000a900461ffff1661ffff168461ffff1614611655576040517f08c379a000000000000000000000000000000000000000000000000000000000815260040161164c90613554565b60405180910390fd5b5b600034905060008561ffff168560000160029054906101000a900461ffff1661ffff16141590508080611687575083155b156117f8576040518060a00160405280600015158152602001600760000160039054906101000a900460ff1660ff1681526020018761ffff1681526020018369ffffffffffffffffffff1681526020018369ffffffffffffffffffff16815250600460003373ffffffffffffffffffffffffffffffffffffffff1673ffffffffffffffffffffffffffffffffffffffff16815260200190815260200160002060008201518160000160006101000a81548160ff02191690831515021790555060208201518160000160016101000a81548160ff021916908360ff16021790555060408201518160000160026101000a81548161ffff021916908361ffff16021790555060608201518160000160046101000a81548169ffffffffffffffffffff021916908369ffffffffffffffffffff160217905550608082015181600001600e6101000a81548169ffffffffffffffffffff021916908369ffffffffffffffffffff160217905550905050611803565b6118028583612426565b5b6000600660008861ffff1661ffff168152602001908152602001600020905060008160000160049054906101000a900469ffffffffffffffffffff1669ffffffffffffffffffff161415611999576040518060a00160405280600015158152602001600760000160039054906101000a900460ff1660ff1681526020018861ffff1681526020018469ffffffffffffffffffff1681526020018469ffffffffffffffffffff16815250600660008961ffff1661ffff16815260200190815260200160002060008201518160000160006101000a81548160ff02191690831515021790555060208201518160000160016101000a81548160ff021916908360ff16021790555060408201518160000160026101000a81548161ffff021916908361ffff16021790555060608201518160000160046101000a81548169ffffffffffffffffffff021916908369ffffffffffffffffffff160217905550608082015181600001600e6101000a81548169ffffffffffffffffffff021916908369ffffffffffffffffffff1602179055509050506119a4565b6119a38184612426565b5b6119ad4261099b565b82600560003373ffffffffffffffffffffffffffffffffffffffff1673ffffffffffffffffffffffffffffffffffffffff16815260200190815260200160002060008282829054906101000a900469ffffffffffffffffffff16611a119190613802565b92506101000a81548169ffffffffffffffffffff021916908369ffffffffffffffffffff1602179055508269ffffffffffffffffffff1660076002016000828254611a5c9190613775565b925050819055508269ffffffffffffffffffff1660076003016000828254611a849190613775565b9250508190555050505050505050565b600080600080600060036000600760000160039054906101000a900460ff1660ff1681526020019081526020016000209050806000015481600101548260020154836003015494509450945094505090919293565b60008054906101000a900473ffffffffffffffffffffffffffffffffffffffff1673ffffffffffffffffffffffffffffffffffffffff163373ffffffffffffffffffffffffffffffffffffffff1614611b77576040517f08c379a0000000000000000000000000000000000000000000000000000000008152600401611b6e90613474565b60405180910390fd5b600060036000600760000160039054906101000a900460ff1660ff16815260200190815260200160002090508481600001819055508381600101819055508281600201819055508181600301819055505050505050565b600080600080600660008661ffff1661ffff16815260200190815260200160002090508060000160019054906101000a900460ff168160000160049054906101000a900469ffffffffffffffffffff1682600001600e9054906101000a900469ffffffffffffffffffff16935093509350509193909250565b60008580611ca0575060008054906101000a900473ffffffffffffffffffffffffffffffffffffffff1673ffffffffffffffffffffffffffffffffffffffff163373ffffffffffffffffffffffffffffffffffffffff16145b611cdf576040517f08c379a0000000000000000000000000000000000000000000000000000000008152600401611cd690613474565b60405180910390fd5b85611ced5760025492504391505b6000600583611cfc9190613dca565b1415611d3d576040517f08c379a0000000000000000000000000000000000000000000000000000000008152600401611d34906133b4565b60405180910390fd5b611d45612b4e565b600f8516816080019060ff16908160ff1681525050600f60048663ffffffff16901c16816020019060ff16908160ff1681525050600f60088663ffffffff16901c168160a0019060ff16908160ff1681525050600f600c8663ffffffff16901c168160c0019060ff16908160ff1681525050600f60108663ffffffff16901c16816040019060ff16908160ff1681525050600f60148663ffffffff16901c16816060019060ff16908160ff1681525050611dfd612b4e565b600f8716816080019060ff16908160ff1681525050600f60048863ffffffff16901c16816020019060ff16908160ff1681525050600f60088863ffffffff16901c168160a0019060ff16908160ff1681525050600f600c8863ffffffff16901c168160c0019060ff16908160ff1681525050600f60108863ffffffff16901c16816040019060ff16908160ff1681525050600f60148863ffffffff16901c16816060019060ff16908160ff16815250508160c001518260a0015183606001518460400151611ecb91906137cb565b611ed591906137cb565b611edf91906137cb565b60ff168160c001518260a0015183606001518460400151611f0091906137cb565b611f0a91906137cb565b611f1491906137cb565b60ff1611158160000190151590811515815250506000806001905060008688604051602001611f44929190613298565b6040516020818303038152906040528051906020012060001c905060005b600a811015612164578460000151611f7b576001611f7e565b60005b60ff166001846fffffffffffffffffffffffffffffffff16901b611fa2919061372f565b9250846000015115611fd457611fbb858785858d612592565b809650819850829750839a508499505050505050611ff6565b611fe1868685858d612592565b809650819850829750839950849a5050505050505b60008560a0015160ff161480612013575060008660a0015160ff16145b1561205c5760008660a0015160ff161461202e576001612031565b60005b60ff166001846fffffffffffffffffffffffffffffffff16901b612055919061372f565b9250612164565b8361208c578460000151158560000190151590811515815250508560000151158660000190151590811515815250505b6009811415612151578560a0015160ff168560a0015160ff166001856fffffffffffffffffffffffffffffffff16901b6120c6919061372f565b6fffffffffffffffffffffffffffffffff1614612101578560a0015160ff168560a0015160ff16116120f95760016120fc565b60005b61214b565b600060028a84604051602001612118929190613298565b6040516020818303038152906040528051906020012060001c61213b9190613dca565b1461214757600161214a565b60005b5b60ff1692505b808061215c90613d34565b915050611f62565b50819550505050505095945050505050565b60008082600760000160039054906101000a900460ff166121979190613b8b565b905060008160026121a89190613942565b905080856121b69190613adf565b9250505092915050565b60008054906101000a900473ffffffffffffffffffffffffffffffffffffffff1673ffffffffffffffffffffffffffffffffffffffff163373ffffffffffffffffffffffffffffffffffffffff161461224e576040517f08c379a000000000000000000000000000000000000000000000000000000000815260040161224590613474565b60405180910390fd5b80600760000160006101000a81548160ff02191690831515021790555050565b61230883838360405160240161228693929190613376565b6040516020818303038152906040527f969cdd03000000000000000000000000000000000000000000000000000000007bffffffffffffffffffffffffffffffffffffffffffffffffffffffff19166020820180517bffffffffffffffffffffffffffffffffffffffffffffffffffffffff8381831617835250505050612823565b505050565b600060146007600201546123219190613873565b90506123456040518060600160405280602f8152602001614231602f91398261238a565b8060076004018190555080600760020160008282546123649190613b57565b9250508190555080600760030160008282546123809190613b57565b9250508190555050565b61242282826040516024016123a0929190613346565b6040516020818303038152906040527f9710a9d0000000000000000000000000000000000000000000000000000000007bffffffffffffffffffffffffffffffffffffffffffffffffffffffff19166020820180517bffffffffffffffffffffffffffffffffffffffffffffffffffffffff8381831617835250505050612823565b5050565b60008260000160019054906101000a900460ff16600760000160039054906101000a900460ff166124579190613b8b565b905080600261246691906138f7565b83600001600e8282829054906101000a900469ffffffffffffffffffff1661248e9190613adf565b92506101000a81548169ffffffffffffffffffff021916908369ffffffffffffffffffff1602179055508183600001600e8282829054906101000a900469ffffffffffffffffffff166124e19190613802565b92506101000a81548169ffffffffffffffffffff021916908369ffffffffffffffffffff160217905550818360000160048282829054906101000a900469ffffffffffffffffffff166125349190613802565b92506101000a81548169ffffffffffffffffffff021916908369ffffffffffffffffffff160217905550600760000160039054906101000a900460ff168360000160016101000a81548160ff021916908360ff160217905550505050565b61259a612b4e565b6125a2612b4e565b6000806000806125b38b8b8a61284c565b9050806020015160ff16816040015160ff1611156126dd5760008a6040015160ff161180156125e9575060008b6040015160ff16115b15612653578060e0015160ff168160200151826040015161260a9190613b8b565b60ff161161263a57806020015181604001516126269190613b8b565b8160e001516126359190613b8b565b61263d565b60005b8b6040019060ff16908160ff16815250506126d8565b60008a6040015160ff16148015612671575060008b6040015160ff16145b156126d7578060e0015160ff16816020015182604001516126929190613b8b565b60ff16116126c257806020015181604001516126ae9190613b8b565b8160e001516126bd9190613b8b565b6126c5565b60005b8b60a0019060ff16908160ff16815250505b5b612793565b806020015160ff16816040015160ff1610156127925760008a6040015160ff16111561274c5780610100015160ff16816020015160ff161161273357806020015181610100015161272e9190613b8b565b612736565b60005b8a6040019060ff16908160ff1681525050612791565b80610100015160ff16816020015160ff161161277c5780602001518161010001516127779190613b8b565b61277f565b60005b8a60a0019060ff16908160ff16815250505b5b5b806040015160ff166004826020015160ff16901b60ff1660088b6fffffffffffffffffffffffffffffffff16901b6127cb919061372f565b6127d5919061372f565b98508a8a8a83600001518a8c6040516020016127f2929190613298565b6040516020818303038152906040528051906020012060001c95509550955095509550509550955095509550959050565b60008151905060006a636f6e736f6c652e6c6f679050602083016000808483855afa5050505050565b612854612b9f565b61285c612b9f565b6000846040015160ff1611156128f6578460200151816060019060ff16908160ff16815250508360200151816080019060ff16908160ff168152505084606001518160a0019060ff16908160ff168152505083606001518160c0019060ff16908160ff168152505084604001518160e0019060ff16908160ff1681525050836040015181610100019060ff16908160ff168152505061297c565b8460800151816060019060ff16908160ff16815250508360800151816080019060ff16908160ff16815250508460c001518160a0019060ff16908160ff16815250508360c001518160c0019060ff16908160ff16815250508460a001518160e0019060ff16908160ff16815250508360a0015181610100019060ff16908160ff16815250505b61298e81606001518260800151612af0565b61299c578060a001516129ae565b60028160a001516129ad9190613aa4565b5b60ff16836129bc9190613dca565b816020019060ff16908160ff1681525050600060028260a001516129e09190613aa4565b60ff16600f116129f157600f612a03565b60028260a00151612a029190613aa4565b5b9050600f826020015160ff1611612a1e578160200151612a21565b600f5b826020019060ff16908160ff1681525050612a4482606001518360800151612af0565b612a5e578160a0015160ff16826020015160ff1614612a6c565b8060ff16826020015160ff16145b826000019015159081151581525050612a8d82606001518360800151612b1f565b15612ae4578160a0015160ff1660025485604051602001612aaf929190613298565b6040516020818303038152906040528051906020012060001c612ad29190613dca565b826040019060ff16908160ff16815250505b81925050509392505050565b600080600183600d86612b039190613aa4565b612b0d91906137cb565b60ff16600154901c1611905092915050565b600080600184600d85612b329190613aa4565b612b3c91906137cb565b60ff16600154901c1611905092915050565b6040518060e00160405280600015158152602001600060ff168152602001600060ff168152602001600060ff168152602001600060ff168152602001600060ff168152602001600060ff1681525090565b604051806101200160405280600015158152602001600060ff168152602001600060ff168152602001600060ff168152602001600060ff168152602001600060ff168152602001600060ff168152602001600060ff168152602001600060ff1681525090565b6000612c18612c13846136c6565b6136a1565b905082815260208101848484011115612c3057600080fd5b612c3b848285613c97565b509392505050565b600081359050612c5281614163565b92915050565b600081519050612c6781614163565b92915050565b600082601f830112612c7e57600080fd5b8135612c8e848260208601612c05565b91505092915050565b600081359050612ca68161417a565b92915050565b600081359050612cbb81614191565b92915050565b600081359050612cd0816141a8565b92915050565b600081359050612ce5816141bf565b92915050565b600081359050612cfa816141d6565b92915050565b600081359050612d0f816141ed565b92915050565b600060208284031215612d2757600080fd5b6000612d3584828501612c43565b91505092915050565b600060208284031215612d5057600080fd5b6000612d5e84828501612c58565b91505092915050565b600080600080600060a08688031215612d7f57600080fd5b6000612d8d88828901612c43565b9550506020612d9e88828901612cd6565b9450506040612daf88828901612cd6565b9350506060612dc088828901612cc1565b9250506080612dd188828901612cc1565b9150509295509295909350565b60008060408385031215612df157600080fd5b6000612dff85828601612c43565b9250506020612e1085828601612ceb565b9150509250929050565b600060208284031215612e2c57600080fd5b600082013567ffffffffffffffff811115612e4657600080fd5b612e5284828501612c6d565b91505092915050565b600060208284031215612e6d57600080fd5b6000612e7b84828501612c97565b91505092915050565b600060208284031215612e9657600080fd5b6000612ea484828501612cac565b91505092915050565b60008060008060808587031215612ec357600080fd5b6000612ed187828801612cc1565b9450506020612ee287828801612cc1565b9350506040612ef387828801612cc1565b9250506060612f0487828801612cc1565b91505092959194509250565b60008060408385031215612f2357600080fd5b6000612f3185828601612d00565b9250506020612f4285828601612ceb565b9150509250929050565b612f5581613bbf565b82525050565b612f6481613bd1565b82525050565b6000612f75826136f7565b612f7f818561370d565b9350612f8f818560208601613ca6565b612f9881613e88565b840191505092915050565b612fac81613c73565b82525050565b6000612fbd82613702565b612fc7818561371e565b9350612fd7818560208601613ca6565b612fe081613e88565b840191505092915050565b6000612ff860178361371e565b915061300382613eb3565b602082019050919050565b600061301b60208361371e565b915061302682613edc565b602082019050919050565b600061303e60168361371e565b915061304982613f05565b602082019050919050565b6000613061601e8361371e565b915061306c82613f2e565b602082019050919050565b600061308460338361371e565b915061308f82613f57565b604082019050919050565b60006130a760128361371e565b91506130b282613fa6565b602082019050919050565b60006130ca601c8361371e565b91506130d582613fcf565b602082019050919050565b60006130ed60258361371e565b91506130f882613ff8565b604082019050919050565b600061311060178361371e565b915061311b82614047565b602082019050919050565b600061313360158361371e565b915061313e82614070565b602082019050919050565b600061315660168361371e565b915061316182614099565b602082019050919050565b6000613179601a8361371e565b9150613184826140c2565b602082019050919050565b600061319c60218361371e565b91506131a7826140eb565b604082019050919050565b60006131bf60168361371e565b91506131ca8261413a565b602082019050919050565b6131de81613bdd565b82525050565b6131f56131f082613bdd565b613d7d565b82525050565b61320481613bf9565b82525050565b61321381613c27565b82525050565b61322281613c85565b82525050565b61323181613c36565b82525050565b61324861324382613c36565b613d8f565b82525050565b61325781613c5d565b82525050565b61326681613c50565b82525050565b60006132788285613237565b60208201915061328882846131e4565b6010820191508190509392505050565b60006132a48285613237565b6020820191506132b48284613237565b6020820191508190509392505050565b60006080820190506132d96000830187612f4c565b6132e66020830186612f4c565b6132f36040830185613219565b81810360608301526133058184612f6a565b905095945050505050565b60006020820190506133256000830184612f5b565b92915050565b60006020820190506133406000830184612fa3565b92915050565b600060408201905081810360008301526133608185612fb2565b905061336f6020830184613228565b9392505050565b600060608201905081810360008301526133908186612fb2565b905061339f6020830185613228565b6133ac6040830184613228565b949350505050565b600060208201905081810360008301526133cd81612feb565b9050919050565b600060208201905081810360008301526133ed8161300e565b9050919050565b6000602082019050818103600083015261340d81613031565b9050919050565b6000602082019050818103600083015261342d81613054565b9050919050565b6000602082019050818103600083015261344d81613077565b9050919050565b6000602082019050818103600083015261346d8161309a565b9050919050565b6000602082019050818103600083015261348d816130bd565b9050919050565b600060208201905081810360008301526134ad816130e0565b9050919050565b600060208201905081810360008301526134cd81613103565b9050919050565b600060208201905081810360008301526134ed81613126565b9050919050565b6000602082019050818103600083015261350d81613149565b9050919050565b6000602082019050818103600083015261352d8161316c565b9050919050565b6000602082019050818103600083015261354d8161318f565b9050919050565b6000602082019050818103600083015261356d816131b2565b9050919050565b600060208201905061358960008301846131d5565b92915050565b60006080820190506135a460008301876131fb565b6135b1602083018661324e565b6135be604083018561324e565b6135cb606083018461325d565b95945050505050565b60006020820190506135e9600083018461320a565b92915050565b60006020820190506136046000830184613228565b92915050565b600060808201905061361f6000830187613228565b61362c6020830186613228565b6136396040830185613228565b6136466060830184613228565b95945050505050565b6000602082019050613664600083018461324e565b92915050565b600060608201905061367f600083018661325d565b61368c602083018561324e565b613699604083018461324e565b949350505050565b60006136ab6136bc565b90506136b78282613d03565b919050565b6000604051905090565b600067ffffffffffffffff8211156136e1576136e0613e59565b5b6136ea82613e88565b9050602081019050919050565b600081519050919050565b600081519050919050565b600082825260208201905092915050565b600082825260208201905092915050565b600061373a82613bdd565b915061374583613bdd565b9250826fffffffffffffffffffffffffffffffff0382111561376a57613769613dfb565b5b828201905092915050565b600061378082613c36565b915061378b83613c36565b9250827fffffffffffffffffffffffffffffffffffffffffffffffffffffffffffffffff038211156137c0576137bf613dfb565b5b828201905092915050565b60006137d682613c50565b91506137e183613c50565b92508260ff038211156137f7576137f6613dfb565b5b828201905092915050565b600061380d82613c5d565b915061381883613c5d565b92508269ffffffffffffffffffff0382111561383757613836613dfb565b5b828201905092915050565b600061384d82613bf9565b915061385883613bf9565b92508261386857613867613e2a565b5b828204905092915050565b600061387e82613c36565b915061388983613c36565b92508261389957613898613e2a565b5b828204905092915050565b6000808291508390505b60018511156138ee578086048111156138ca576138c9613dfb565b5b60018516156138d95780820291505b80810290506138e785613ea6565b94506138ae565b94509492505050565b600061390282613c36565b915061390d83613c50565b925061393a7fffffffffffffffffffffffffffffffffffffffffffffffffffffffffffffffff8484613977565b905092915050565b600061394d82613c5d565b915061395883613c50565b925061396f69ffffffffffffffffffff8484613977565b905092915050565b6000826139875760019050613a43565b816139955760009050613a43565b81600181146139ab57600281146139b5576139e4565b6001915050613a43565b60ff8411156139c7576139c6613dfb565b5b8360020a9150848211156139de576139dd613dfb565b5b50613a43565b5060208310610133831016604e8410600b8410161715613a195782820a905083811115613a1457613a13613dfb565b5b613a43565b613a2684848460016138a4565b92509050818404811115613a3d57613a3c613dfb565b5b81810290505b9392505050565b6000613a5582613c36565b9150613a6083613c36565b9250817fffffffffffffffffffffffffffffffffffffffffffffffffffffffffffffffff0483118215151615613a9957613a98613dfb565b5b828202905092915050565b6000613aaf82613c50565b9150613aba83613c50565b92508160ff0483118215151615613ad457613ad3613dfb565b5b828202905092915050565b6000613aea82613c5d565b9150613af583613c5d565b92508169ffffffffffffffffffff0483118215151615613b1857613b17613dfb565b5b828202905092915050565b6000613b2e82613bf9565b9150613b3983613bf9565b925082821015613b4c57613b4b613dfb565b5b828203905092915050565b6000613b6282613c36565b9150613b6d83613c36565b925082821015613b8057613b7f613dfb565b5b828203905092915050565b6000613b9682613c50565b9150613ba183613c50565b925082821015613bb457613bb3613dfb565b5b828203905092915050565b6000613bca82613c07565b9050919050565b60008115159050919050565b60006fffffffffffffffffffffffffffffffff82169050919050565b600061ffff82169050919050565b600073ffffffffffffffffffffffffffffffffffffffff82169050919050565b600062ffffff82169050919050565b6000819050919050565b600063ffffffff82169050919050565b600060ff82169050919050565b600069ffffffffffffffffffff82169050919050565b6000613c7e82613c27565b9050919050565b6000613c9082613c27565b9050919050565b82818337600083830152505050565b60005b83811015613cc4578082015181840152602081019050613ca9565b83811115613cd3576000848401525b50505050565b6000613ce482613c36565b91506000821415613cf857613cf7613dfb565b5b600182039050919050565b613d0c82613e88565b810181811067ffffffffffffffff82111715613d2b57613d2a613e59565b5b80604052505050565b6000613d3f82613c36565b91507fffffffffffffffffffffffffffffffffffffffffffffffffffffffffffffffff821415613d7257613d71613dfb565b5b600182019050919050565b6000613d8882613e99565b9050919050565b6000819050919050565b6000613da482613bf9565b9150613daf83613bf9565b925082613dbf57613dbe613e2a565b5b828206905092915050565b6000613dd582613c36565b9150613de083613c36565b925082613df057613def613e2a565b5b828206905092915050565b7f4e487b7100000000000000000000000000000000000000000000000000000000600052601160045260246000fd5b7f4e487b7100000000000000000000000000000000000000000000000000000000600052601260045260246000fd5b7f4e487b7100000000000000000000000000000000000000000000000000000000600052604160045260246000fd5b6000601f19601f8301169050919050565b60008160801b9050919050565b60008160011c9050919050565b7f426c6f636b6e756d20646976697369626c652062792035000000000000000000600082015250565b7f426f756e74792068617320616c7265616479206265656e2072656465656d6564600082015250565b7f4d756c7469706c696572206c657373207468616e203200000000000000000000600082015250565b7f526571756972657320677265617465722063757272656e7420726f756e640000600082015250565b7f426c6f636b6e756d206e6f7420646976697369626c652062792035206f72206260008201527f657474696e67206973206e6f74206f70656e2e00000000000000000000000000602082015250565b7f4d757374206265206c61737420726f756e640000000000000000000000000000600082015250565b7f4d7573742062652063616c6c656420627920636f6e74726f6c6c657200000000600082015250565b7f42657474696e67206973206e6f74206f70656e3b20776520617265206d69642d60008201527f726f756e64000000000000000000000000000000000000000000000000000000602082015250565b7f4265742070726576696f75736c792072656465656d6564000000000000000000600082015250565b7f4669676874657220697320656c696d696e617465640000000000000000000000600082015250565b7f4d75737420626520696e206572726f7220737461746500000000000000000000600082015250565b7f507572636861736572206e6f74206f6e2077686974656c697374000000000000600082015250565b7f4d75737420706c61636520612062657420686967686572207468616e207a657260008201527f6f00000000000000000000000000000000000000000000000000000000000000602082015250565b7f43616e6e6f74206368616e676520666967687465727300000000000000000000600082015250565b61416c81613bd1565b811461417757600080fd5b50565b61418381613bdd565b811461418e57600080fd5b50565b61419a81613bf9565b81146141a557600080fd5b50565b6141b181613c36565b81146141bc57600080fd5b50565b6141c881613c40565b81146141d357600080fd5b50565b6141df81613c50565b81146141ea57600080fd5b50565b6141f681613c5d565b811461420157600080fd5b5056fe5472616e7366657272696e6720626574746f722773207368617265206f6620257320746f20626574746f722e53657474696e67206173696465203525206f6620706f7420666f72206f776e65722c20746f74616c6c696e67202573506f74207368617265206f662025732072656465656d65642c20746f74616c20706f74206973206e6f772025732e496e2072656465656d506f7428292c206669676874657245717569747920697320257320616e642066696768746572546f74616c4571756974792069732025732ea26469706673582212206c56d438a6c624c8a316d3c74a8a8b774e08bb582562086f19305cfe251168f164736f6c63430008040033",
  "linkReferences": {},
  "deployedLinkReferences": {}
}