{
  "_format": "hh-sol-artifact-1",
  "contractName": "FightClub",
  "sourceName": "contracts/FightClub.sol",
  "abi": [
    {
      "inputs": [
        {
          "internalType": "uint256",
          "name": "_elementsMatrix",
          "type": "uint256"
        },
        {
          "internalType": "address",
          "name": "_signerAddress",
          "type": "address"
        },
        {
          "internalType": "address",
          "name": "_verifySignatureAddress",
          "type": "address"
        },
        {
          "internalType": "bytes32",
          "name": "_provenanceHash",
          "type": "bytes32"
        }
      ],
      "stateMutability": "nonpayable",
      "type": "constructor"
    },
    {
      "anonymous": false,
      "inputs": [
        {
          "indexed": false,
          "internalType": "uint24",
          "name": "_winner",
          "type": "uint24"
        }
      ],
      "name": "Winner",
      "type": "event"
    },
    {
      "inputs": [
        {
          "internalType": "uint128",
          "name": "_random",
          "type": "uint128"
        }
      ],
      "name": "addRandomness",
      "outputs": [],
      "stateMutability": "nonpayable",
      "type": "function"
    },
    {
      "inputs": [
        {
          "internalType": "uint16",
          "name": "_fighterIdentifier",
          "type": "uint16"
        }
      ],
      "name": "bracketWithOnlyFighterAlive",
      "outputs": [
        {
          "internalType": "uint256",
          "name": "",
          "type": "uint256"
        }
      ],
      "stateMutability": "pure",
      "type": "function"
    },
    {
      "inputs": [],
      "name": "emergencyWithdrawal",
      "outputs": [],
      "stateMutability": "nonpayable",
      "type": "function"
    },
    {
      "inputs": [],
      "name": "evaluateWinner",
      "outputs": [],
      "stateMutability": "nonpayable",
      "type": "function"
    },
    {
      "inputs": [
        {
          "internalType": "bool",
          "name": "_isSimulated",
          "type": "bool"
        },
        {
          "internalType": "uint32",
          "name": "_fighterOne",
          "type": "uint32"
        },
        {
          "internalType": "uint32",
          "name": "_fighterTwo",
          "type": "uint32"
        },
        {
          "internalType": "uint256",
          "name": "_random",
          "type": "uint256"
        },
        {
          "internalType": "uint256",
          "name": "_blockNumber",
          "type": "uint256"
        }
      ],
      "name": "fight",
      "outputs": [
        {
          "internalType": "uint128",
          "name": "",
          "type": "uint128"
        }
      ],
      "stateMutability": "view",
      "type": "function"
    },
    {
      "inputs": [],
      "name": "getBet",
      "outputs": [
        {
          "internalType": "uint16",
          "name": "",
          "type": "uint16"
        },
        {
          "internalType": "uint80",
          "name": "",
          "type": "uint80"
        },
        {
          "internalType": "uint80",
          "name": "",
          "type": "uint80"
        },
        {
          "internalType": "uint8",
          "name": "",
          "type": "uint8"
        }
      ],
      "stateMutability": "view",
      "type": "function"
    },
    {
      "inputs": [],
      "name": "getBracketStatus",
      "outputs": [
        {
          "internalType": "uint256",
          "name": "",
          "type": "uint256"
        },
        {
          "internalType": "uint256",
          "name": "",
          "type": "uint256"
        },
        {
          "internalType": "uint256",
          "name": "",
          "type": "uint256"
        },
        {
          "internalType": "uint256",
          "name": "",
          "type": "uint256"
        }
      ],
      "stateMutability": "view",
      "type": "function"
    },
    {
      "inputs": [
        {
          "internalType": "uint80",
          "name": "_equity",
          "type": "uint80"
        },
        {
          "internalType": "uint8",
          "name": "_lastRoundUpdated",
          "type": "uint8"
        }
      ],
      "name": "getEquityForBet",
      "outputs": [
        {
          "internalType": "uint80",
          "name": "",
          "type": "uint80"
        }
      ],
      "stateMutability": "view",
      "type": "function"
    },
    {
      "inputs": [
        {
          "internalType": "uint16",
          "name": "_fighterIdentifier",
          "type": "uint16"
        }
      ],
      "name": "getFighterTotalPot",
      "outputs": [
        {
          "internalType": "uint8",
          "name": "",
          "type": "uint8"
        },
        {
          "internalType": "uint80",
          "name": "",
          "type": "uint80"
        },
        {
          "internalType": "uint80",
          "name": "",
          "type": "uint80"
        }
      ],
      "stateMutability": "view",
      "type": "function"
    },
    {
      "inputs": [],
      "name": "getRandomness",
      "outputs": [
        {
          "internalType": "uint256",
          "name": "",
          "type": "uint256"
        }
      ],
      "stateMutability": "view",
      "type": "function"
    },
    {
      "inputs": [],
      "name": "getTotalPot",
      "outputs": [
        {
          "internalType": "uint256",
          "name": "",
          "type": "uint256"
        }
      ],
      "stateMutability": "view",
      "type": "function"
    },
    {
      "inputs": [
        {
          "internalType": "address",
          "name": "_user",
          "type": "address"
        }
      ],
      "name": "getUserRandomness",
      "outputs": [
        {
          "internalType": "uint256",
          "name": "",
          "type": "uint256"
        }
      ],
      "stateMutability": "view",
      "type": "function"
    },
    {
      "inputs": [
        {
          "internalType": "uint16",
          "name": "_fighterIdentifier",
          "type": "uint16"
        }
      ],
      "name": "isFighterAlive",
      "outputs": [
        {
          "internalType": "bool",
          "name": "",
          "type": "bool"
        }
      ],
      "stateMutability": "view",
      "type": "function"
    },
    {
      "inputs": [
        {
          "internalType": "uint16",
          "name": "_fighterIdentifier",
          "type": "uint16"
        }
      ],
      "name": "placeBet",
      "outputs": [],
      "stateMutability": "payable",
      "type": "function"
    },
    {
      "inputs": [
        {
          "internalType": "bytes",
          "name": "_signature",
          "type": "bytes"
        }
      ],
      "name": "redeemFighterBounty",
      "outputs": [],
      "stateMutability": "nonpayable",
      "type": "function"
    },
    {
      "inputs": [],
      "name": "redeemPot",
      "outputs": [],
      "stateMutability": "nonpayable",
      "type": "function"
    },
    {
      "inputs": [
        {
          "internalType": "uint256",
          "name": "_fighterTrancheOne",
          "type": "uint256"
        },
        {
          "internalType": "uint256",
          "name": "_fighterTrancheTwo",
          "type": "uint256"
        },
        {
          "internalType": "uint256",
          "name": "_fighterTrancheThree",
          "type": "uint256"
        },
        {
          "internalType": "uint256",
          "name": "_fighterTrancheFour",
          "type": "uint256"
        }
      ],
      "name": "setBracketStatus",
      "outputs": [],
      "stateMutability": "nonpayable",
      "type": "function"
    },
    {
      "inputs": [
        {
          "internalType": "bool",
          "name": "_bettingIsOpen",
          "type": "bool"
        },
        {
          "internalType": "uint8",
          "name": "_currentRound",
          "type": "uint8"
        }
      ],
      "name": "setConfig",
      "outputs": [],
      "stateMutability": "nonpayable",
      "type": "function"
    },
    {
      "inputs": [
        {
          "internalType": "bool",
          "name": "_isError",
          "type": "bool"
        }
      ],
      "name": "setConfigError",
      "outputs": [],
      "stateMutability": "nonpayable",
      "type": "function"
    }
  ],
  "bytecode": "0x60806040523480156200001157600080fd5b5060405162004793380380620047938339818101604052810190620000379190620001bc565b336000806101000a81548173ffffffffffffffffffffffffffffffffffffffff021916908373ffffffffffffffffffffffffffffffffffffffff16021790555083600181905550608043426040516020016200009592919062000243565b6040516020818303038152906040528051906020012060001c901c60028190555062ffffff600860000160046101000a81548162ffffff021916908362ffffff16021790555082600860000160076101000a81548173ffffffffffffffffffffffffffffffffffffffff021916908373ffffffffffffffffffffffffffffffffffffffff16021790555081600860010160006101000a81548173ffffffffffffffffffffffffffffffffffffffff021916908373ffffffffffffffffffffffffffffffffffffffff160217905550806008600501819055505050505062000313565b6000815190506200018881620002c5565b92915050565b6000815190506200019f81620002df565b92915050565b600081519050620001b681620002f9565b92915050565b60008060008060808587031215620001d357600080fd5b6000620001e387828801620001a5565b9450506020620001f68782880162000177565b9350506040620002098782880162000177565b92505060606200021c878288016200018e565b91505092959194509250565b6200023d6200023782620002b1565b620002bb565b82525050565b600062000251828562000228565b60208201915062000263828462000228565b6020820191508190509392505050565b6000620002808262000291565b9050919050565b6000819050919050565b600073ffffffffffffffffffffffffffffffffffffffff82169050919050565b6000819050919050565b6000819050919050565b620002d08162000273565b8114620002dc57600080fd5b50565b620002ea8162000287565b8114620002f657600080fd5b50565b6200030481620002b1565b81146200031057600080fd5b50565b61447080620003236000396000f3fe6080604052600436106101145760003560e01c806383a12d49116100a0578063cefadde911610064578063cefadde91461035e578063d201298c14610387578063eca2570a146103c6578063fa7b917114610403578063fd9cf19e1461044057610114565b806383a12d49146102835780638fb61629146102c0578063aaae7b86146102e9578063b8be239414610314578063c6d21e811461033057610114565b806357a15649116100e757806357a15649146101b25780635b0a3843146101c95780635d3f8c93146101e05780635edec093146102095780636b88d8d21461024657610114565b806320835e8c146101195780632e521eb514610147578063480bc31f1461015e5780634814516f14610189575b600080fd5b34801561012557600080fd5b5061012e610469565b60405161013e94939291906136e4565b60405180910390f35b34801561015357600080fd5b5061015c61051c565b005b34801561016a57600080fd5b506101736109d6565b6040516101809190613744565b60405180910390f35b34801561019557600080fd5b506101b060048036038101906101ab9190612fb0565b6109e3565b005b3480156101be57600080fd5b506101c7610b41565b005b3480156101d557600080fd5b506101de610f02565b005b3480156101ec57600080fd5b5061020760048036038101906102029190612f33565b61106f565b005b34801561021557600080fd5b50610230600480360381019061022b9190612fd9565b611197565b60405161023d9190613744565b60405180910390f35b34801561025257600080fd5b5061026d60048036038101906102689190612fd9565b6111d4565b60405161027a9190613465565b60405180910390f35b34801561028f57600080fd5b506102aa60048036038101906102a59190612e41565b611285565b6040516102b79190613744565b60405180910390f35b3480156102cc57600080fd5b506102e760048036038101906102e29190612f6f565b6112ce565b005b3480156102f557600080fd5b506102fe61151e565b60405161030b9190613744565b60405180910390f35b61032e60048036038101906103299190612fd9565b611528565b005b34801561033c57600080fd5b50610345611b7c565b604051610355949392919061375f565b60405180910390f35b34801561036a57600080fd5b5061038560048036038101906103809190613002565b611bd1565b005b34801561039357600080fd5b506103ae60048036038101906103a99190612fd9565b611cb6565b6040516103bd939291906137bf565b60405180910390f35b3480156103d257600080fd5b506103ed60048036038101906103e89190612ebc565b611d2f565b6040516103fa91906136c9565b60405180910390f35b34801561040f57600080fd5b5061042a60048036038101906104259190613065565b61228d565b60405161043791906137a4565b60405180910390f35b34801561044c57600080fd5b5061046760048036038101906104629190612e6a565b6122d7565b005b6000806000806000600460003373ffffffffffffffffffffffffffffffffffffffff1673ffffffffffffffffffffffffffffffffffffffff16815260200190815260200160002090508060000160029054906101000a900461ffff168160000160049054906101000a900469ffffffffffffffffffff1682600001600e9054906101000a900469ffffffffffffffffffff168360000160019054906101000a900460ff1694509450945094505090919293565b600a600860000160039054906101000a900460ff1660ff1614610574576040517f08c379a000000000000000000000000000000000000000000000000000000000815260040161056b906135a9565b60405180910390fd5b6000600460003373ffffffffffffffffffffffffffffffffffffffff1673ffffffffffffffffffffffffffffffffffffffff16815260200190815260200160002090506105d28160000160029054906101000a900461ffff166111d4565b610611576040517f08c379a000000000000000000000000000000000000000000000000000000000815260040161060890613629565b60405180910390fd5b8060000160009054906101000a900460ff1615610663576040517f08c379a000000000000000000000000000000000000000000000000000000000815260040161065a90613609565b60405180910390fd5b60018160000160006101000a81548160ff02191690831515021790555060008160000160019054906101000a900460ff16600860000160039054906101000a900460ff166106b19190613ce0565b90508060026106c09190613a4c565b82600001600e8282829054906101000a900469ffffffffffffffffffff166106e89190613c34565b92506101000a81548169ffffffffffffffffffff021916908369ffffffffffffffffffff160217905550600860000160039054906101000a900460ff168260000160016101000a81548160ff021916908360ff1602179055506000600760008460000160029054906101000a900461ffff1661ffff1661ffff16815260200190815260200160002090508060000160019054906101000a900460ff16600860000160039054906101000a900460ff166107a19190613ce0565b91508160026107b09190613a4c565b81600001600e8282829054906101000a900469ffffffffffffffffffff166107d89190613c34565b92506101000a81548169ffffffffffffffffffff021916908369ffffffffffffffffffff160217905550600860000160039054906101000a900460ff168160000160016101000a81548160ff021916908360ff1602179055506108a06040518060800160405280604181526020016143fa6041913984600001600e9054906101000a900469ffffffffffffffffffff1669ffffffffffffffffffff1683600001600e9054906101000a900469ffffffffffffffffffff1669ffffffffffffffffffff16612385565b600060086004015414156108b7576108b6612424565b5b600081600001600e9054906101000a900469ffffffffffffffffffff1669ffffffffffffffffffff1684600001600e9054906101000a900469ffffffffffffffffffff1669ffffffffffffffffffff166008600301546109179190613b9f565b61092191906139c8565b90506109456040518060600160405280602c8152602001614371602c9139826124a1565b3373ffffffffffffffffffffffffffffffffffffffff166108fc829081150290604051600060405180830381858888f1935050505015801561098b573d6000803e3d6000fd5b5080600860020160008282546109a19190613cac565b925050819055506109d06040518060600160405280602e81526020016143cc602e913982600860020154612385565b50505050565b6000600860020154905090565b60006005436109f29190613f1f565b1480610a0d5750600860000160029054906101000a900460ff165b610a4c576040517f08c379a0000000000000000000000000000000000000000000000000000000008152600401610a4390613589565b60405180910390fd5b6001816fffffffffffffffffffffffffffffffff1611610aa1576040517f08c379a0000000000000000000000000000000000000000000000000000000008152600401610a9890613549565b60405180910390fd5b6080804383604051602001610ab79291906133c1565b6040516020818303038152906040528051906020012060001c901c600254610adf9190613b9f565b901c6002819055506001600660003373ffffffffffffffffffffffffffffffffffffffff1673ffffffffffffffffffffffffffffffffffffffff1681526020019081526020016000206000828254610b3791906138ca565b9250508190555050565b600a600860000160039054906101000a900460ff1660ff1614610b99576040517f08c379a0000000000000000000000000000000000000000000000000000000008152600401610b90906135a9565b60405180910390fd5b6000600360006001600860000160039054906101000a900460ff16610bbe9190613ce0565b60ff16815260200190815260200160002090506000806000836000015414610bf0578260000154915060009050610c46565b6000836001015414610c0d57826001015491506101009050610c45565b6000836002015414610c2a57826002015491506102009050610c44565b6000836003015414610c43578260030154915061030090505b5b5b5b60006001600860000160039054906101000a900460ff16610c679190613ce0565b60ff1690505b6001811115610e0b576000600360008381526020019081526020016000209050600083148015610ca35750600084826000015416145b15610ce7577fde2bff2d6b387fb139cc88f40ef98966425b338cd8a98b2b4e8230a99c74cfe362ffffff604051610cda9190613480565b60405180910390a1610df7565b61010083148015610cfe5750600084826001015416145b15610d42577fde2bff2d6b387fb139cc88f40ef98966425b338cd8a98b2b4e8230a99c74cfe362ffffff604051610d359190613480565b60405180910390a1610df6565b61020083148015610d595750600084826002015416145b15610d9d577fde2bff2d6b387fb139cc88f40ef98966425b338cd8a98b2b4e8230a99c74cfe362ffffff604051610d909190613480565b60405180910390a1610df5565b61030083148015610db45750600084826003015416145b15610df4577fde2bff2d6b387fb139cc88f40ef98966425b338cd8a98b2b4e8230a99c74cfe362ffffff604051610deb9190613480565b60405180910390a15b5b5b5b508080610e0390613e2e565b915050610c6d565b5060005b610100811015610ec2576001808285901c161415610eaf578060ff610e349190613cac565b82610e3f91906138ca565b600860000160046101000a81548162ffffff021916908362ffffff1602179055507fde2bff2d6b387fb139cc88f40ef98966425b338cd8a98b2b4e8230a99c74cfe38160ff610e8e9190613cac565b83610e9991906138ca565b604051610ea69190613729565b60405180910390a15b8080610eba90613e89565b915050610e0f565b507fde2bff2d6b387fb139cc88f40ef98966425b338cd8a98b2b4e8230a99c74cfe362ffffff604051610ef59190613480565b60405180910390a1505050565b600860000160009054906101000a900460ff16610f54576040517f08c379a0000000000000000000000000000000000000000000000000000000008152600401610f4b90613649565b60405180910390fd5b6000600560003373ffffffffffffffffffffffffffffffffffffffff1673ffffffffffffffffffffffffffffffffffffffff16815260200190815260200160002060009054906101000a900469ffffffffffffffffffff1690506000600560003373ffffffffffffffffffffffffffffffffffffffff1673ffffffffffffffffffffffffffffffffffffffff16815260200190815260200160002060006101000a81548169ffffffffffffffffffff021916908369ffffffffffffffffffff1602179055503373ffffffffffffffffffffffffffffffffffffffff166108fc8269ffffffffffffffffffff169081150290604051600060405180830381858888f1935050505015801561106b573d6000803e3d6000fd5b5050565b60008054906101000a900473ffffffffffffffffffffffffffffffffffffffff1673ffffffffffffffffffffffffffffffffffffffff163373ffffffffffffffffffffffffffffffffffffffff16146110fd576040517f08c379a00000000000000000000000000000000000000000000000000000000081526004016110f4906135c9565b60405180910390fd5b600860000160039054906101000a900460ff1660ff168160ff161015611158576040517f08c379a000000000000000000000000000000000000000000000000000000000815260040161114f90613569565b60405180910390fd5b81600860000160026101000a81548160ff02191690831515021790555080600860000160036101000a81548160ff021916908360ff1602179055505050565b600080610100836111a89190613eee565b6101006111b59190613c78565b61ffff1690506001816111c89190613cac565b6001901b915050919050565b60008060036000600860000160039054906101000a900460ff1660ff16815260200190815260200160002090506000610100846112119190613997565b61ffff16905060008082141561122d5782600001549050611261565b60018214156112425782600101549050611260565b6002821415611257578260020154905061125f565b826003015490505b5b5b600061126c86611197565b9050600081831690506000811195505050505050919050565b6000600660008373ffffffffffffffffffffffffffffffffffffffff1673ffffffffffffffffffffffffffffffffffffffff168152602001908152602001600020549050919050565b600860000160019054906101000a900460ff1615611321576040517f08c379a000000000000000000000000000000000000000000000000000000000815260040161131890613529565b60405180910390fd5b600a600860000160039054906101000a900460ff1660ff1614611379576040517f08c379a0000000000000000000000000000000000000000000000000000000008152600401611370906135a9565b60405180910390fd5b600860010160009054906101000a900473ffffffffffffffffffffffffffffffffffffffff1673ffffffffffffffffffffffffffffffffffffffff16632709c803600860000160079054906101000a900473ffffffffffffffffffffffffffffffffffffffff1633600860000160049054906101000a900462ffffff16856040518563ffffffff1660e01b81526004016114169493929190613419565b60206040518083038186803b15801561142e57600080fd5b505afa158015611442573d6000803e3d6000fd5b505050506040513d601f19601f820116820180604052508101906114669190612e93565b6114a5576040517f08c379a000000000000000000000000000000000000000000000000000000000815260040161149c90613669565b60405180910390fd5b6001600860000160016101000a81548160ff0219169083151502179055503373ffffffffffffffffffffffffffffffffffffffff166108fc60146008600201546114ef91906139c8565b9081150290604051600060405180830381858888f1935050505015801561151a573d6000803e3d6000fd5b5050565b6000600254905090565b6000341161156b576040517f08c379a000000000000000000000000000000000000000000000000000000000815260040161156290613689565b60405180910390fd5b600860000160029054906101000a900460ff166115bd576040517f08c379a00000000000000000000000000000000000000000000000000000000081526004016115b4906135e9565b60405180910390fd5b6000600860000160039054906101000a900460ff1660ff1614611623576115e3816111d4565b611622576040517f08c379a000000000000000000000000000000000000000000000000000000000815260040161161990613629565b60405180910390fd5b5b6000600460003373ffffffffffffffffffffffffffffffffffffffff1673ffffffffffffffffffffffffffffffffffffffff16815260200190815260200160002090506000808260000160049054906101000a900469ffffffffffffffffffff1669ffffffffffffffffffff1611905060008180156116d957506116b88360000160029054906101000a900461ffff166111d4565b806116d857506000600860000160039054906101000a900460ff1660ff16145b5b9050801561173e578260000160029054906101000a900461ffff1661ffff168461ffff161461173d576040517f08c379a0000000000000000000000000000000000000000000000000000000008152600401611734906136a9565b60405180910390fd5b5b600034905060008561ffff168560000160029054906101000a900461ffff1661ffff1614159050808061176f575083155b156118e0576040518060a00160405280600015158152602001600860000160039054906101000a900460ff1660ff1681526020018761ffff1681526020018369ffffffffffffffffffff1681526020018369ffffffffffffffffffff16815250600460003373ffffffffffffffffffffffffffffffffffffffff1673ffffffffffffffffffffffffffffffffffffffff16815260200190815260200160002060008201518160000160006101000a81548160ff02191690831515021790555060208201518160000160016101000a81548160ff021916908360ff16021790555060408201518160000160026101000a81548161ffff021916908361ffff16021790555060608201518160000160046101000a81548169ffffffffffffffffffff021916908369ffffffffffffffffffff160217905550608082015181600001600e6101000a81548169ffffffffffffffffffff021916908369ffffffffffffffffffff1602179055509050506118eb565b6118ea858361253d565b5b6000600760008861ffff1661ffff168152602001908152602001600020905060008160000160049054906101000a900469ffffffffffffffffffff1669ffffffffffffffffffff161415611a81576040518060a00160405280600015158152602001600860000160039054906101000a900460ff1660ff1681526020018861ffff1681526020018469ffffffffffffffffffff1681526020018469ffffffffffffffffffff16815250600760008961ffff1661ffff16815260200190815260200160002060008201518160000160006101000a81548160ff02191690831515021790555060208201518160000160016101000a81548160ff021916908360ff16021790555060408201518160000160026101000a81548161ffff021916908361ffff16021790555060608201518160000160046101000a81548169ffffffffffffffffffff021916908369ffffffffffffffffffff160217905550608082015181600001600e6101000a81548169ffffffffffffffffffff021916908369ffffffffffffffffffff160217905550905050611a8c565b611a8b818461253d565b5b611a95426109e3565b82600560003373ffffffffffffffffffffffffffffffffffffffff1673ffffffffffffffffffffffffffffffffffffffff16815260200190815260200160002060008282829054906101000a900469ffffffffffffffffffff16611af99190613957565b92506101000a81548169ffffffffffffffffffff021916908369ffffffffffffffffffff1602179055508269ffffffffffffffffffff1660086002016000828254611b4491906138ca565b925050819055508269ffffffffffffffffffff1660086003016000828254611b6c91906138ca565b9250508190555050505050505050565b600080600080600060036000600860000160039054906101000a900460ff1660ff1681526020019081526020016000209050806000015481600101548260020154836003015494509450945094505090919293565b60008054906101000a900473ffffffffffffffffffffffffffffffffffffffff1673ffffffffffffffffffffffffffffffffffffffff163373ffffffffffffffffffffffffffffffffffffffff1614611c5f576040517f08c379a0000000000000000000000000000000000000000000000000000000008152600401611c56906135c9565b60405180910390fd5b600060036000600860000160039054906101000a900460ff1660ff16815260200190815260200160002090508481600001819055508381600101819055508281600201819055508181600301819055505050505050565b600080600080600760008661ffff1661ffff16815260200190815260200160002090508060000160019054906101000a900460ff168160000160049054906101000a900469ffffffffffffffffffff1682600001600e9054906101000a900469ffffffffffffffffffff16935093509350509193909250565b60008580611d88575060008054906101000a900473ffffffffffffffffffffffffffffffffffffffff1673ffffffffffffffffffffffffffffffffffffffff163373ffffffffffffffffffffffffffffffffffffffff16145b611dc7576040517f08c379a0000000000000000000000000000000000000000000000000000000008152600401611dbe906135c9565b60405180910390fd5b85611dd55760025492504391505b6000600583611de49190613f1f565b1415611e25576040517f08c379a0000000000000000000000000000000000000000000000000000000008152600401611e1c90613509565b60405180910390fd5b611e2d612c65565b600f8516816080019060ff16908160ff1681525050600f60048663ffffffff16901c16816020019060ff16908160ff1681525050600f60088663ffffffff16901c168160a0019060ff16908160ff1681525050600f600c8663ffffffff16901c168160c0019060ff16908160ff1681525050600f60108663ffffffff16901c16816040019060ff16908160ff1681525050600f60148663ffffffff16901c16816060019060ff16908160ff1681525050611ee5612c65565b600f8716816080019060ff16908160ff1681525050600f60048863ffffffff16901c16816020019060ff16908160ff1681525050600f60088863ffffffff16901c168160a0019060ff16908160ff1681525050600f600c8863ffffffff16901c168160c0019060ff16908160ff1681525050600f60108863ffffffff16901c16816040019060ff16908160ff1681525050600f60148863ffffffff16901c16816060019060ff16908160ff16815250508160c001518260a0015183606001518460400151611fb39190613920565b611fbd9190613920565b611fc79190613920565b60ff168160c001518260a0015183606001518460400151611fe89190613920565b611ff29190613920565b611ffc9190613920565b60ff161115816000019015159081151581525050600080600190506000868860405160200161202c9291906133ed565b6040516020818303038152906040528051906020012060001c905060005b600a81101561227b578460000151612063576001612066565b60005b60ff166001846fffffffffffffffffffffffffffffffff16901b61208a9190613884565b92508460000151156120bc576120a3858785858d6126a9565b809650819850829750839a5084995050505050506120de565b6120c9868685858d6126a9565b809650819850829750839950849a5050505050505b60008560a0015160ff1614806120fb575060008660a0015160ff16145b156121445760008660a0015160ff1614612116576001612119565b60005b60ff166001846fffffffffffffffffffffffffffffffff16901b61213d9190613884565b925061227b565b83612174578460000151158560000190151590811515815250508560000151158660000190151590811515815250505b6009811415612268578560a0015160ff168560a0015160ff16146121f7578560a0015160ff168560a0015160ff16116121ce57600180846fffffffffffffffffffffffffffffffff16901b6121c99190613884565b6121f2565b60006001846fffffffffffffffffffffffffffffffff16901b6121f19190613884565b5b612265565b600060028a8460405160200161220e9291906133ed565b6040516020818303038152906040528051906020012060001c6122319190613f1f565b1461223d576001612240565b60005b60ff166001846fffffffffffffffffffffffffffffffff16901b6122649190613884565b5b92505b808061227390613e89565b91505061204a565b50819550505050505095945050505050565b60008082600860000160039054906101000a900460ff166122ae9190613ce0565b905060008160026122bf9190613a97565b905080856122cd9190613c34565b9250505092915050565b60008054906101000a900473ffffffffffffffffffffffffffffffffffffffff1673ffffffffffffffffffffffffffffffffffffffff163373ffffffffffffffffffffffffffffffffffffffff1614612365576040517f08c379a000000000000000000000000000000000000000000000000000000000815260040161235c906135c9565b60405180910390fd5b80600860000160006101000a81548160ff02191690831515021790555050565b61241f83838360405160240161239d939291906134cb565b6040516020818303038152906040527f969cdd03000000000000000000000000000000000000000000000000000000007bffffffffffffffffffffffffffffffffffffffffffffffffffffffff19166020820180517bffffffffffffffffffffffffffffffffffffffffffffffffffffffff838183161783525050505061293a565b505050565b6000601460086002015461243891906139c8565b905061245c6040518060600160405280602f815260200161439d602f9139826124a1565b80600860040181905550806008600201600082825461247b9190613cac565b9250508190555080600860030160008282546124979190613cac565b9250508190555050565b61253982826040516024016124b792919061349b565b6040516020818303038152906040527f9710a9d0000000000000000000000000000000000000000000000000000000007bffffffffffffffffffffffffffffffffffffffffffffffffffffffff19166020820180517bffffffffffffffffffffffffffffffffffffffffffffffffffffffff838183161783525050505061293a565b5050565b60008260000160019054906101000a900460ff16600860000160039054906101000a900460ff1661256e9190613ce0565b905080600261257d9190613a4c565b83600001600e8282829054906101000a900469ffffffffffffffffffff166125a59190613c34565b92506101000a81548169ffffffffffffffffffff021916908369ffffffffffffffffffff1602179055508183600001600e8282829054906101000a900469ffffffffffffffffffff166125f89190613957565b92506101000a81548169ffffffffffffffffffff021916908369ffffffffffffffffffff160217905550818360000160048282829054906101000a900469ffffffffffffffffffff1661264b9190613957565b92506101000a81548169ffffffffffffffffffff021916908369ffffffffffffffffffff160217905550600860000160039054906101000a900460ff168360000160016101000a81548160ff021916908360ff160217905550505050565b6126b1612c65565b6126b9612c65565b6000806000806126ca8b8b8a612963565b9050806020015160ff16816040015160ff1611156127f45760008a6040015160ff16118015612700575060008b6040015160ff16115b1561276a578060e0015160ff16816020015182604001516127219190613ce0565b60ff1611612751578060200151816040015161273d9190613ce0565b8160e0015161274c9190613ce0565b612754565b60005b8b6040019060ff16908160ff16815250506127ef565b60008a6040015160ff16148015612788575060008b6040015160ff16145b156127ee578060e0015160ff16816020015182604001516127a99190613ce0565b60ff16116127d957806020015181604001516127c59190613ce0565b8160e001516127d49190613ce0565b6127dc565b60005b8b60a0019060ff16908160ff16815250505b5b6128aa565b806020015160ff16816040015160ff1610156128a95760008a6040015160ff1611156128635780610100015160ff16816020015160ff161161284a5780602001518161010001516128459190613ce0565b61284d565b60005b8a6040019060ff16908160ff16815250506128a8565b80610100015160ff16816020015160ff161161289357806020015181610100015161288e9190613ce0565b612896565b60005b8a60a0019060ff16908160ff16815250505b5b5b806040015160ff166004826020015160ff16901b60ff1660088b6fffffffffffffffffffffffffffffffff16901b6128e29190613884565b6128ec9190613884565b98508a8a8a83600001518a8c6040516020016129099291906133ed565b6040516020818303038152906040528051906020012060001c95509550955095509550509550955095509550959050565b60008151905060006a636f6e736f6c652e6c6f679050602083016000808483855afa5050505050565b61296b612cb6565b612973612cb6565b6000846040015160ff161115612a0d578460200151816060019060ff16908160ff16815250508360200151816080019060ff16908160ff168152505084606001518160a0019060ff16908160ff168152505083606001518160c0019060ff16908160ff168152505084604001518160e0019060ff16908160ff1681525050836040015181610100019060ff16908160ff1681525050612a93565b8460800151816060019060ff16908160ff16815250508360800151816080019060ff16908160ff16815250508460c001518160a0019060ff16908160ff16815250508360c001518160c0019060ff16908160ff16815250508460a001518160e0019060ff16908160ff16815250508360a0015181610100019060ff16908160ff16815250505b612aa581606001518260800151612c07565b612ab3578060a00151612ac5565b60028160a00151612ac49190613bf9565b5b60ff1683612ad39190613f1f565b816020019060ff16908160ff1681525050600060028260a00151612af79190613bf9565b60ff16600f11612b0857600f612b1a565b60028260a00151612b199190613bf9565b5b9050600f826020015160ff1611612b35578160200151612b38565b600f5b826020019060ff16908160ff1681525050612b5b82606001518360800151612c07565b612b75578160a0015160ff16826020015160ff1614612b83565b8060ff16826020015160ff16145b826000019015159081151581525050612ba482606001518360800151612c36565b15612bfb578160a0015160ff1660025485604051602001612bc69291906133ed565b6040516020818303038152906040528051906020012060001c612be99190613f1f565b826040019060ff16908160ff16815250505b81925050509392505050565b600080600183600d86612c1a9190613bf9565b612c249190613920565b60ff16600154901c1611905092915050565b600080600184600d85612c499190613bf9565b612c539190613920565b60ff16600154901c1611905092915050565b6040518060e00160405280600015158152602001600060ff168152602001600060ff168152602001600060ff168152602001600060ff168152602001600060ff168152602001600060ff1681525090565b604051806101200160405280600015158152602001600060ff168152602001600060ff168152602001600060ff168152602001600060ff168152602001600060ff168152602001600060ff168152602001600060ff168152602001600060ff1681525090565b6000612d2f612d2a8461381b565b6137f6565b905082815260208101848484011115612d4757600080fd5b612d52848285613dec565b509392505050565b600081359050612d69816142b8565b92915050565b600081359050612d7e816142cf565b92915050565b600081519050612d93816142cf565b92915050565b600082601f830112612daa57600080fd5b8135612dba848260208601612d1c565b91505092915050565b600081359050612dd2816142e6565b92915050565b600081359050612de7816142fd565b92915050565b600081359050612dfc81614314565b92915050565b600081359050612e118161432b565b92915050565b600081359050612e2681614342565b92915050565b600081359050612e3b81614359565b92915050565b600060208284031215612e5357600080fd5b6000612e6184828501612d5a565b91505092915050565b600060208284031215612e7c57600080fd5b6000612e8a84828501612d6f565b91505092915050565b600060208284031215612ea557600080fd5b6000612eb384828501612d84565b91505092915050565b600080600080600060a08688031215612ed457600080fd5b6000612ee288828901612d6f565b9550506020612ef388828901612e02565b9450506040612f0488828901612e02565b9350506060612f1588828901612ded565b9250506080612f2688828901612ded565b9150509295509295909350565b60008060408385031215612f4657600080fd5b6000612f5485828601612d6f565b9250506020612f6585828601612e17565b9150509250929050565b600060208284031215612f8157600080fd5b600082013567ffffffffffffffff811115612f9b57600080fd5b612fa784828501612d99565b91505092915050565b600060208284031215612fc257600080fd5b6000612fd084828501612dc3565b91505092915050565b600060208284031215612feb57600080fd5b6000612ff984828501612dd8565b91505092915050565b6000806000806080858703121561301857600080fd5b600061302687828801612ded565b945050602061303787828801612ded565b935050604061304887828801612ded565b925050606061305987828801612ded565b91505092959194509250565b6000806040838503121561307857600080fd5b600061308685828601612e2c565b925050602061309785828601612e17565b9150509250929050565b6130aa81613d14565b82525050565b6130b981613d26565b82525050565b60006130ca8261384c565b6130d48185613862565b93506130e4818560208601613dfb565b6130ed81613fdd565b840191505092915050565b61310181613dc8565b82525050565b600061311282613857565b61311c8185613873565b935061312c818560208601613dfb565b61313581613fdd565b840191505092915050565b600061314d601783613873565b915061315882614008565b602082019050919050565b6000613170602083613873565b915061317b82614031565b602082019050919050565b6000613193601683613873565b915061319e8261405a565b602082019050919050565b60006131b6601e83613873565b91506131c182614083565b602082019050919050565b60006131d9603383613873565b91506131e4826140ac565b604082019050919050565b60006131fc601283613873565b9150613207826140fb565b602082019050919050565b600061321f601c83613873565b915061322a82614124565b602082019050919050565b6000613242602583613873565b915061324d8261414d565b604082019050919050565b6000613265601783613873565b91506132708261419c565b602082019050919050565b6000613288601583613873565b9150613293826141c5565b602082019050919050565b60006132ab601683613873565b91506132b6826141ee565b602082019050919050565b60006132ce601a83613873565b91506132d982614217565b602082019050919050565b60006132f1602183613873565b91506132fc82614240565b604082019050919050565b6000613314601683613873565b915061331f8261428f565b602082019050919050565b61333381613d32565b82525050565b61334a61334582613d32565b613ed2565b82525050565b61335981613d4e565b82525050565b61336881613d7c565b82525050565b61337781613dda565b82525050565b61338681613d8b565b82525050565b61339d61339882613d8b565b613ee4565b82525050565b6133ac81613db2565b82525050565b6133bb81613da5565b82525050565b60006133cd828561338c565b6020820191506133dd8284613339565b6010820191508190509392505050565b60006133f9828561338c565b602082019150613409828461338c565b6020820191508190509392505050565b600060808201905061342e60008301876130a1565b61343b60208301866130a1565b613448604083018561336e565b818103606083015261345a81846130bf565b905095945050505050565b600060208201905061347a60008301846130b0565b92915050565b600060208201905061349560008301846130f8565b92915050565b600060408201905081810360008301526134b58185613107565b90506134c4602083018461337d565b9392505050565b600060608201905081810360008301526134e58186613107565b90506134f4602083018561337d565b613501604083018461337d565b949350505050565b6000602082019050818103600083015261352281613140565b9050919050565b6000602082019050818103600083015261354281613163565b9050919050565b6000602082019050818103600083015261356281613186565b9050919050565b60006020820190508181036000830152613582816131a9565b9050919050565b600060208201905081810360008301526135a2816131cc565b9050919050565b600060208201905081810360008301526135c2816131ef565b9050919050565b600060208201905081810360008301526135e281613212565b9050919050565b6000602082019050818103600083015261360281613235565b9050919050565b6000602082019050818103600083015261362281613258565b9050919050565b600060208201905081810360008301526136428161327b565b9050919050565b600060208201905081810360008301526136628161329e565b9050919050565b60006020820190508181036000830152613682816132c1565b9050919050565b600060208201905081810360008301526136a2816132e4565b9050919050565b600060208201905081810360008301526136c281613307565b9050919050565b60006020820190506136de600083018461332a565b92915050565b60006080820190506136f96000830187613350565b61370660208301866133a3565b61371360408301856133a3565b61372060608301846133b2565b95945050505050565b600060208201905061373e600083018461335f565b92915050565b6000602082019050613759600083018461337d565b92915050565b6000608082019050613774600083018761337d565b613781602083018661337d565b61378e604083018561337d565b61379b606083018461337d565b95945050505050565b60006020820190506137b960008301846133a3565b92915050565b60006060820190506137d460008301866133b2565b6137e160208301856133a3565b6137ee60408301846133a3565b949350505050565b6000613800613811565b905061380c8282613e58565b919050565b6000604051905090565b600067ffffffffffffffff82111561383657613835613fae565b5b61383f82613fdd565b9050602081019050919050565b600081519050919050565b600081519050919050565b600082825260208201905092915050565b600082825260208201905092915050565b600061388f82613d32565b915061389a83613d32565b9250826fffffffffffffffffffffffffffffffff038211156138bf576138be613f50565b5b828201905092915050565b60006138d582613d8b565b91506138e083613d8b565b9250827fffffffffffffffffffffffffffffffffffffffffffffffffffffffffffffffff0382111561391557613914613f50565b5b828201905092915050565b600061392b82613da5565b915061393683613da5565b92508260ff0382111561394c5761394b613f50565b5b828201905092915050565b600061396282613db2565b915061396d83613db2565b92508269ffffffffffffffffffff0382111561398c5761398b613f50565b5b828201905092915050565b60006139a282613d4e565b91506139ad83613d4e565b9250826139bd576139bc613f7f565b5b828204905092915050565b60006139d382613d8b565b91506139de83613d8b565b9250826139ee576139ed613f7f565b5b828204905092915050565b6000808291508390505b6001851115613a4357808604811115613a1f57613a1e613f50565b5b6001851615613a2e5780820291505b8081029050613a3c85613ffb565b9450613a03565b94509492505050565b6000613a5782613d8b565b9150613a6283613da5565b9250613a8f7fffffffffffffffffffffffffffffffffffffffffffffffffffffffffffffffff8484613acc565b905092915050565b6000613aa282613db2565b9150613aad83613da5565b9250613ac469ffffffffffffffffffff8484613acc565b905092915050565b600082613adc5760019050613b98565b81613aea5760009050613b98565b8160018114613b005760028114613b0a57613b39565b6001915050613b98565b60ff841115613b1c57613b1b613f50565b5b8360020a915084821115613b3357613b32613f50565b5b50613b98565b5060208310610133831016604e8410600b8410161715613b6e5782820a905083811115613b6957613b68613f50565b5b613b98565b613b7b84848460016139f9565b92509050818404811115613b9257613b91613f50565b5b81810290505b9392505050565b6000613baa82613d8b565b9150613bb583613d8b565b9250817fffffffffffffffffffffffffffffffffffffffffffffffffffffffffffffffff0483118215151615613bee57613bed613f50565b5b828202905092915050565b6000613c0482613da5565b9150613c0f83613da5565b92508160ff0483118215151615613c2957613c28613f50565b5b828202905092915050565b6000613c3f82613db2565b9150613c4a83613db2565b92508169ffffffffffffffffffff0483118215151615613c6d57613c6c613f50565b5b828202905092915050565b6000613c8382613d4e565b9150613c8e83613d4e565b925082821015613ca157613ca0613f50565b5b828203905092915050565b6000613cb782613d8b565b9150613cc283613d8b565b925082821015613cd557613cd4613f50565b5b828203905092915050565b6000613ceb82613da5565b9150613cf683613da5565b925082821015613d0957613d08613f50565b5b828203905092915050565b6000613d1f82613d5c565b9050919050565b60008115159050919050565b60006fffffffffffffffffffffffffffffffff82169050919050565b600061ffff82169050919050565b600073ffffffffffffffffffffffffffffffffffffffff82169050919050565b600062ffffff82169050919050565b6000819050919050565b600063ffffffff82169050919050565b600060ff82169050919050565b600069ffffffffffffffffffff82169050919050565b6000613dd382613d7c565b9050919050565b6000613de582613d7c565b9050919050565b82818337600083830152505050565b60005b83811015613e19578082015181840152602081019050613dfe565b83811115613e28576000848401525b50505050565b6000613e3982613d8b565b91506000821415613e4d57613e4c613f50565b5b600182039050919050565b613e6182613fdd565b810181811067ffffffffffffffff82111715613e8057613e7f613fae565b5b80604052505050565b6000613e9482613d8b565b91507fffffffffffffffffffffffffffffffffffffffffffffffffffffffffffffffff821415613ec757613ec6613f50565b5b600182019050919050565b6000613edd82613fee565b9050919050565b6000819050919050565b6000613ef982613d4e565b9150613f0483613d4e565b925082613f1457613f13613f7f565b5b828206905092915050565b6000613f2a82613d8b565b9150613f3583613d8b565b925082613f4557613f44613f7f565b5b828206905092915050565b7f4e487b7100000000000000000000000000000000000000000000000000000000600052601160045260246000fd5b7f4e487b7100000000000000000000000000000000000000000000000000000000600052601260045260246000fd5b7f4e487b7100000000000000000000000000000000000000000000000000000000600052604160045260246000fd5b6000601f19601f8301169050919050565b60008160801b9050919050565b60008160011c9050919050565b7f426c6f636b6e756d20646976697369626c652062792035000000000000000000600082015250565b7f426f756e74792068617320616c7265616479206265656e2072656465656d6564600082015250565b7f4d756c7469706c696572206c657373207468616e203200000000000000000000600082015250565b7f526571756972657320677265617465722063757272656e7420726f756e640000600082015250565b7f426c6f636b6e756d206e6f7420646976697369626c652062792035206f72206260008201527f657474696e67206973206e6f74206f70656e2e00000000000000000000000000602082015250565b7f4d757374206265206c61737420726f756e640000000000000000000000000000600082015250565b7f4d7573742062652063616c6c656420627920636f6e74726f6c6c657200000000600082015250565b7f42657474696e67206973206e6f74206f70656e3b20776520617265206d69642d60008201527f726f756e64000000000000000000000000000000000000000000000000000000602082015250565b7f4265742070726576696f75736c792072656465656d6564000000000000000000600082015250565b7f4669676874657220697320656c696d696e617465640000000000000000000000600082015250565b7f4d75737420626520696e206572726f7220737461746500000000000000000000600082015250565b7f507572636861736572206e6f74206f6e2077686974656c697374000000000000600082015250565b7f4d75737420706c61636520612062657420686967686572207468616e207a657260008201527f6f00000000000000000000000000000000000000000000000000000000000000602082015250565b7f43616e6e6f74206368616e676520666967687465727300000000000000000000600082015250565b6142c181613d14565b81146142cc57600080fd5b50565b6142d881613d26565b81146142e357600080fd5b50565b6142ef81613d32565b81146142fa57600080fd5b50565b61430681613d4e565b811461431157600080fd5b50565b61431d81613d8b565b811461432857600080fd5b50565b61433481613d95565b811461433f57600080fd5b50565b61434b81613da5565b811461435657600080fd5b50565b61436281613db2565b811461436d57600080fd5b5056fe5472616e7366657272696e6720626574746f722773207368617265206f6620257320746f20626574746f722e53657474696e67206173696465203525206f6620706f7420666f72206f776e65722c20746f74616c6c696e67202573506f74207368617265206f662025732072656465656d65642c20746f74616c20706f74206973206e6f772025732e496e2072656465656d506f7428292c206669676874657245717569747920697320257320616e642066696768746572546f74616c4571756974792069732025732ea264697066735822122085930ee6b8b18ceaf833a8e8188b81206a65e8cc538f75c7686f10500b25f7e164736f6c63430008040033",
  "linkReferences": {},
  "deployedLinkReferences": {}
}