{
  "_format": "hh-sol-artifact-1",
  "contractName": "FightClub",
  "sourceName": "contracts/FightClub.sol",
  "abi": [
    {
      "inputs": [
        {
          "internalType": "uint256",
          "name": "_elementsMatrix",
          "type": "uint256"
        },
        {
          "internalType": "address",
          "name": "_signerAddress",
          "type": "address"
        },
        {
          "internalType": "address",
          "name": "_verifySignatureAddress",
          "type": "address"
        },
        {
          "internalType": "uint8",
          "name": "_rounds",
          "type": "uint8"
        },
        {
          "internalType": "bytes32",
          "name": "_provenanceHash",
          "type": "bytes32"
        }
      ],
      "stateMutability": "nonpayable",
      "type": "constructor"
    },
    {
      "anonymous": false,
      "inputs": [
        {
          "indexed": false,
          "internalType": "uint24",
          "name": "_winner",
          "type": "uint24"
        }
      ],
      "name": "Winner",
      "type": "event"
    },
    {
      "inputs": [
        {
          "internalType": "uint128",
          "name": "_random",
          "type": "uint128"
        }
      ],
      "name": "addRandomness",
      "outputs": [],
      "stateMutability": "nonpayable",
      "type": "function"
    },
    {
      "inputs": [
        {
          "internalType": "uint16",
          "name": "_fighterIdentifier",
          "type": "uint16"
        }
      ],
      "name": "bracketWithOnlyFighterAlive",
      "outputs": [
        {
          "internalType": "uint256",
          "name": "",
          "type": "uint256"
        }
      ],
      "stateMutability": "pure",
      "type": "function"
    },
    {
      "inputs": [],
      "name": "emergencyWithdrawal",
      "outputs": [],
      "stateMutability": "nonpayable",
      "type": "function"
    },
    {
      "inputs": [],
      "name": "evaluateWinner",
      "outputs": [],
      "stateMutability": "nonpayable",
      "type": "function"
    },
    {
      "inputs": [
        {
          "internalType": "bool",
          "name": "_isSimulated",
          "type": "bool"
        },
        {
          "internalType": "uint32",
          "name": "_fighterOne",
          "type": "uint32"
        },
        {
          "internalType": "uint32",
          "name": "_fighterTwo",
          "type": "uint32"
        },
        {
          "internalType": "uint256",
          "name": "_random",
          "type": "uint256"
        },
        {
          "internalType": "uint256",
          "name": "_blockNumber",
          "type": "uint256"
        }
      ],
      "name": "fight",
      "outputs": [
        {
          "internalType": "uint128",
          "name": "",
          "type": "uint128"
        }
      ],
      "stateMutability": "view",
      "type": "function"
    },
    {
      "inputs": [],
      "name": "getBet",
      "outputs": [
        {
          "internalType": "uint16",
          "name": "",
          "type": "uint16"
        },
        {
          "internalType": "uint80",
          "name": "",
          "type": "uint80"
        },
        {
          "internalType": "uint80",
          "name": "",
          "type": "uint80"
        },
        {
          "internalType": "uint8",
          "name": "",
          "type": "uint8"
        }
      ],
      "stateMutability": "view",
      "type": "function"
    },
    {
      "inputs": [],
      "name": "getBracketStatus",
      "outputs": [
        {
          "internalType": "uint256",
          "name": "",
          "type": "uint256"
        },
        {
          "internalType": "uint256",
          "name": "",
          "type": "uint256"
        },
        {
          "internalType": "uint256",
          "name": "",
          "type": "uint256"
        },
        {
          "internalType": "uint256",
          "name": "",
          "type": "uint256"
        }
      ],
      "stateMutability": "view",
      "type": "function"
    },
    {
      "inputs": [],
      "name": "getConfig",
      "outputs": [
        {
          "internalType": "bool",
          "name": "",
          "type": "bool"
        },
        {
          "internalType": "bool",
          "name": "",
          "type": "bool"
        },
        {
          "internalType": "bool",
          "name": "",
          "type": "bool"
        },
        {
          "internalType": "uint8",
          "name": "",
          "type": "uint8"
        },
        {
          "internalType": "uint24",
          "name": "",
          "type": "uint24"
        },
        {
          "internalType": "address",
          "name": "",
          "type": "address"
        },
        {
          "internalType": "address",
          "name": "",
          "type": "address"
        },
        {
          "internalType": "uint256",
          "name": "",
          "type": "uint256"
        },
        {
          "internalType": "uint256",
          "name": "",
          "type": "uint256"
        },
        {
          "internalType": "uint256",
          "name": "",
          "type": "uint256"
        },
        {
          "internalType": "bytes32",
          "name": "",
          "type": "bytes32"
        }
      ],
      "stateMutability": "view",
      "type": "function"
    },
    {
      "inputs": [
        {
          "internalType": "uint80",
          "name": "_equity",
          "type": "uint80"
        },
        {
          "internalType": "uint8",
          "name": "_lastRoundUpdated",
          "type": "uint8"
        }
      ],
      "name": "getEquityForBet",
      "outputs": [
        {
          "internalType": "uint80",
          "name": "",
          "type": "uint80"
        }
      ],
      "stateMutability": "view",
      "type": "function"
    },
    {
      "inputs": [
        {
          "internalType": "uint16",
          "name": "_fighterIdentifier",
          "type": "uint16"
        }
      ],
      "name": "getFighterTotalPot",
      "outputs": [
        {
          "internalType": "uint8",
          "name": "",
          "type": "uint8"
        },
        {
          "internalType": "uint80",
          "name": "",
          "type": "uint80"
        },
        {
          "internalType": "uint80",
          "name": "",
          "type": "uint80"
        }
      ],
      "stateMutability": "view",
      "type": "function"
    },
    {
      "inputs": [],
      "name": "getRandomness",
      "outputs": [
        {
          "internalType": "uint256",
          "name": "",
          "type": "uint256"
        }
      ],
      "stateMutability": "view",
      "type": "function"
    },
    {
      "inputs": [],
      "name": "getTotalPot",
      "outputs": [
        {
          "internalType": "uint256",
          "name": "",
          "type": "uint256"
        }
      ],
      "stateMutability": "view",
      "type": "function"
    },
    {
      "inputs": [
        {
          "internalType": "address",
          "name": "_user",
          "type": "address"
        }
      ],
      "name": "getUserRandomness",
      "outputs": [
        {
          "internalType": "uint256",
          "name": "",
          "type": "uint256"
        }
      ],
      "stateMutability": "view",
      "type": "function"
    },
    {
      "inputs": [
        {
          "internalType": "uint16",
          "name": "_fighterIdentifier",
          "type": "uint16"
        }
      ],
      "name": "isFighterAlive",
      "outputs": [
        {
          "internalType": "bool",
          "name": "",
          "type": "bool"
        }
      ],
      "stateMutability": "view",
      "type": "function"
    },
    {
      "inputs": [
        {
          "internalType": "uint16",
          "name": "_fighterIdentifier",
          "type": "uint16"
        }
      ],
      "name": "placeBet",
      "outputs": [],
      "stateMutability": "payable",
      "type": "function"
    },
    {
      "inputs": [
        {
          "internalType": "bytes",
          "name": "_signature",
          "type": "bytes"
        }
      ],
      "name": "redeemFighterBounty",
      "outputs": [],
      "stateMutability": "nonpayable",
      "type": "function"
    },
    {
      "inputs": [],
      "name": "redeemPot",
      "outputs": [],
      "stateMutability": "nonpayable",
      "type": "function"
    },
    {
      "inputs": [
        {
          "internalType": "uint256",
          "name": "_fighterTrancheOne",
          "type": "uint256"
        },
        {
          "internalType": "uint256",
          "name": "_fighterTrancheTwo",
          "type": "uint256"
        },
        {
          "internalType": "uint256",
          "name": "_fighterTrancheThree",
          "type": "uint256"
        },
        {
          "internalType": "uint256",
          "name": "_fighterTrancheFour",
          "type": "uint256"
        }
      ],
      "name": "setBracketStatus",
      "outputs": [],
      "stateMutability": "nonpayable",
      "type": "function"
    },
    {
      "inputs": [
        {
          "internalType": "bool",
          "name": "_bettingIsOpen",
          "type": "bool"
        },
        {
          "internalType": "uint8",
          "name": "_currentRound",
          "type": "uint8"
        }
      ],
      "name": "setConfig",
      "outputs": [],
      "stateMutability": "nonpayable",
      "type": "function"
    },
    {
      "inputs": [
        {
          "internalType": "bool",
          "name": "_isError",
          "type": "bool"
        }
      ],
      "name": "setConfigError",
      "outputs": [],
      "stateMutability": "nonpayable",
      "type": "function"
    }
  ],
  "bytecode": "0x60806040523480156200001157600080fd5b5060405162004b2f38038062004b2f8339818101604052810190620000379190620001f2565b336000806101000a81548173ffffffffffffffffffffffffffffffffffffffff021916908373ffffffffffffffffffffffffffffffffffffffff1602179055508460018190555060804342604051602001620000959291906200028f565b6040516020818303038152906040528051906020012060001c901c60028190555062ffffff600860000160056101000a81548162ffffff021916908362ffffff16021790555083600860000160086101000a81548173ffffffffffffffffffffffffffffffffffffffff021916908373ffffffffffffffffffffffffffffffffffffffff16021790555082600860010160006101000a81548173ffffffffffffffffffffffffffffffffffffffff021916908373ffffffffffffffffffffffffffffffffffffffff16021790555081600860000160046101000a81548160ff021916908360ff16021790555080600860050181905550505050505062000386565b600081519050620001a7816200031e565b92915050565b600081519050620001be8162000338565b92915050565b600081519050620001d58162000352565b92915050565b600081519050620001ec816200036c565b92915050565b600080600080600060a086880312156200020b57600080fd5b60006200021b88828901620001c4565b95505060206200022e8882890162000196565b9450506040620002418882890162000196565b93505060606200025488828901620001db565b92505060806200026788828901620001ad565b9150509295509295909350565b620002896200028382620002fd565b62000314565b82525050565b60006200029d828562000274565b602082019150620002af828462000274565b6020820191508190509392505050565b6000620002cc82620002dd565b9050919050565b6000819050919050565b600073ffffffffffffffffffffffffffffffffffffffff82169050919050565b6000819050919050565b600060ff82169050919050565b6000819050919050565b6200032981620002bf565b81146200033557600080fd5b50565b6200034381620002d3565b81146200034f57600080fd5b50565b6200035d81620002fd565b81146200036957600080fd5b50565b620003778162000307565b81146200038357600080fd5b50565b61479980620003966000396000f3fe60806040526004361061011f5760003560e01c80638fb61629116100a0578063cefadde911610064578063cefadde91461039e578063d201298c146103c7578063eca2570a14610406578063fa7b917114610443578063fd9cf19e146104805761011f565b80638fb61629146102cb578063aaae7b86146102f4578063b8be23941461031f578063c3f909d41461033b578063c6d21e81146103705761011f565b80635b0a3843116100e75780635b0a3843146101d45780635d3f8c93146101eb5780635edec093146102145780636b88d8d21461025157806383a12d491461028e5761011f565b806320835e8c146101245780632e521eb514610152578063480bc31f146101695780634814516f1461019457806357a15649146101bd575b600080fd5b34801561013057600080fd5b506101396104a9565b60405161014994939291906139da565b60405180910390f35b34801561015e57600080fd5b5061016761055c565b005b34801561017557600080fd5b5061017e610a2a565b60405161018b9190613a3a565b60405180910390f35b3480156101a057600080fd5b506101bb60048036038101906101b691906131a9565b610a37565b005b3480156101c957600080fd5b506101d2610ba1565b005b3480156101e057600080fd5b506101e9610f76565b005b3480156101f757600080fd5b50610212600480360381019061020d919061312c565b6110e3565b005b34801561022057600080fd5b5061023b600480360381019061023691906131d2565b611277565b6040516102489190613a3a565b60405180910390f35b34801561025d57600080fd5b50610278600480360381019061027391906131d2565b6112b4565b6040516102859190613690565b60405180910390f35b34801561029a57600080fd5b506102b560048036038101906102b0919061303a565b611365565b6040516102c29190613a3a565b60405180910390f35b3480156102d757600080fd5b506102f260048036038101906102ed9190613168565b6113ae565b005b34801561030057600080fd5b50610309611612565b6040516103169190613a3a565b60405180910390f35b610339600480360381019061033491906131d2565b61161c565b005b34801561034757600080fd5b50610350611c70565b6040516103679b9a999897969594939291906136ab565b60405180910390f35b34801561037c57600080fd5b50610385611d69565b6040516103959493929190613a55565b60405180910390f35b3480156103aa57600080fd5b506103c560048036038101906103c091906131fb565b611dbe565b005b3480156103d357600080fd5b506103ee60048036038101906103e991906131d2565b611ea3565b6040516103fd93929190613ab5565b60405180910390f35b34801561041257600080fd5b5061042d600480360381019061042891906130b5565b611f1c565b60405161043a91906139bf565b60405180910390f35b34801561044f57600080fd5b5061046a6004803603810190610465919061325e565b612486565b6040516104779190613a9a565b60405180910390f35b34801561048c57600080fd5b506104a760048036038101906104a29190613063565b6124d0565b005b6000806000806000600460003373ffffffffffffffffffffffffffffffffffffffff1673ffffffffffffffffffffffffffffffffffffffff16815260200190815260200160002090508060000160029054906101000a900461ffff168160000160049054906101000a900469ffffffffffffffffffff1682600001600e9054906101000a900469ffffffffffffffffffff168360000160019054906101000a900460ff1694509450945094505090919293565b600860000160049054906101000a900460ff1660ff16600860000160039054906101000a900460ff1660ff16146105c8576040517f08c379a00000000000000000000000000000000000000000000000000000000081526004016105bf9061385f565b60405180910390fd5b6000600460003373ffffffffffffffffffffffffffffffffffffffff1673ffffffffffffffffffffffffffffffffffffffff16815260200190815260200160002090506106268160000160029054906101000a900461ffff166112b4565b610665576040517f08c379a000000000000000000000000000000000000000000000000000000000815260040161065c9061391f565b60405180910390fd5b8060000160009054906101000a900460ff16156106b7576040517f08c379a00000000000000000000000000000000000000000000000000000000081526004016106ae906138df565b60405180910390fd5b60018160000160006101000a81548160ff02191690831515021790555060008160000160019054906101000a900460ff16600860000160039054906101000a900460ff166107059190613fd6565b90508060026107149190613d42565b82600001600e8282829054906101000a900469ffffffffffffffffffff1661073c9190613f2a565b92506101000a81548169ffffffffffffffffffff021916908369ffffffffffffffffffff160217905550600860000160039054906101000a900460ff168260000160016101000a81548160ff021916908360ff1602179055506000600760008460000160029054906101000a900461ffff1661ffff1661ffff16815260200190815260200160002090508060000160019054906101000a900460ff16600860000160039054906101000a900460ff166107f59190613fd6565b91508160026108049190613d42565b81600001600e8282829054906101000a900469ffffffffffffffffffff1661082c9190613f2a565b92506101000a81548169ffffffffffffffffffff021916908369ffffffffffffffffffff160217905550600860000160039054906101000a900460ff168160000160016101000a81548160ff021916908360ff1602179055506108f46040518060800160405280604181526020016147236041913984600001600e9054906101000a900469ffffffffffffffffffff1669ffffffffffffffffffff1683600001600e9054906101000a900469ffffffffffffffffffff1669ffffffffffffffffffff1661257e565b6000600860040154141561090b5761090a61261d565b5b600081600001600e9054906101000a900469ffffffffffffffffffff1669ffffffffffffffffffff1684600001600e9054906101000a900469ffffffffffffffffffff1669ffffffffffffffffffff1660086003015461096b9190613e95565b6109759190613cbe565b90506109996040518060600160405280602c815260200161469a602c91398261269a565b3373ffffffffffffffffffffffffffffffffffffffff166108fc829081150290604051600060405180830381858888f193505050501580156109df573d6000803e3d6000fd5b5080600860020160008282546109f59190613fa2565b92505081905550610a246040518060600160405280602e81526020016146f5602e91398260086002015461257e565b50505050565b6000600860020154905090565b60006002600a43610a489190613cbe565b610a52919061421f565b1480610a6d5750600860000160029054906101000a900460ff165b610aac576040517f08c379a0000000000000000000000000000000000000000000000000000000008152600401610aa3906138ff565b60405180910390fd5b6001816fffffffffffffffffffffffffffffffff1611610b01576040517f08c379a0000000000000000000000000000000000000000000000000000000008152600401610af8906137ff565b60405180910390fd5b6080804383604051602001610b179291906135ec565b6040516020818303038152906040528051906020012060001c901c600254610b3f9190613e95565b901c6002819055506001600660003373ffffffffffffffffffffffffffffffffffffffff1673ffffffffffffffffffffffffffffffffffffffff1681526020019081526020016000206000828254610b979190613bc0565b9250508190555050565b600860000160049054906101000a900460ff1660ff16600860000160039054906101000a900460ff1660ff1614610c0d576040517f08c379a0000000000000000000000000000000000000000000000000000000008152600401610c049061385f565b60405180910390fd5b6000600360006001600860000160039054906101000a900460ff16610c329190613fd6565b60ff16815260200190815260200160002090506000806000836000015414610c64578260000154915060009050610cba565b6000836001015414610c8157826001015491506101009050610cb9565b6000836002015414610c9e57826002015491506102009050610cb8565b6000836003015414610cb7578260030154915061030090505b5b5b5b60006001600860000160039054906101000a900460ff16610cdb9190613fd6565b60ff1690505b6001811115610e7f576000600360008381526020019081526020016000209050600083148015610d175750600084826000015416145b15610d5b577fde2bff2d6b387fb139cc88f40ef98966425b338cd8a98b2b4e8230a99c74cfe362ffffff604051610d4e9190613756565b60405180910390a1610e6b565b61010083148015610d725750600084826001015416145b15610db6577fde2bff2d6b387fb139cc88f40ef98966425b338cd8a98b2b4e8230a99c74cfe362ffffff604051610da99190613756565b60405180910390a1610e6a565b61020083148015610dcd5750600084826002015416145b15610e11577fde2bff2d6b387fb139cc88f40ef98966425b338cd8a98b2b4e8230a99c74cfe362ffffff604051610e049190613756565b60405180910390a1610e69565b61030083148015610e285750600084826003015416145b15610e68577fde2bff2d6b387fb139cc88f40ef98966425b338cd8a98b2b4e8230a99c74cfe362ffffff604051610e5f9190613756565b60405180910390a15b5b5b5b508080610e779061412e565b915050610ce1565b5060005b610100811015610f36576001808285901c161415610f23578060ff610ea89190613fa2565b82610eb39190613bc0565b600860000160056101000a81548162ffffff021916908362ffffff1602179055507fde2bff2d6b387fb139cc88f40ef98966425b338cd8a98b2b4e8230a99c74cfe38160ff610f029190613fa2565b83610f0d9190613bc0565b604051610f1a9190613a1f565b60405180910390a15b8080610f2e90614189565b915050610e83565b507fde2bff2d6b387fb139cc88f40ef98966425b338cd8a98b2b4e8230a99c74cfe362ffffff604051610f699190613756565b60405180910390a1505050565b600860000160009054906101000a900460ff16610fc8576040517f08c379a0000000000000000000000000000000000000000000000000000000008152600401610fbf9061393f565b60405180910390fd5b6000600560003373ffffffffffffffffffffffffffffffffffffffff1673ffffffffffffffffffffffffffffffffffffffff16815260200190815260200160002060009054906101000a900469ffffffffffffffffffff1690506000600560003373ffffffffffffffffffffffffffffffffffffffff1673ffffffffffffffffffffffffffffffffffffffff16815260200190815260200160002060006101000a81548169ffffffffffffffffffff021916908369ffffffffffffffffffff1602179055503373ffffffffffffffffffffffffffffffffffffffff166108fc8269ffffffffffffffffffff169081150290604051600060405180830381858888f193505050501580156110df573d6000803e3d6000fd5b5050565b60008054906101000a900473ffffffffffffffffffffffffffffffffffffffff1673ffffffffffffffffffffffffffffffffffffffff163373ffffffffffffffffffffffffffffffffffffffff1614611171576040517f08c379a00000000000000000000000000000000000000000000000000000000081526004016111689061387f565b60405180910390fd5b600860000160039054906101000a900460ff1660ff168160ff1610156111cc576040517f08c379a00000000000000000000000000000000000000000000000000000000081526004016111c39061381f565b60405180910390fd5b600860000160049054906101000a900460ff1660ff16600860000160039054906101000a900460ff1660ff1610611238576040517f08c379a000000000000000000000000000000000000000000000000000000000815260040161122f9061383f565b60405180910390fd5b81600860000160026101000a81548160ff02191690831515021790555080600860000160036101000a81548160ff021916908360ff1602179055505050565b6000806101008361128891906141ee565b6101006112959190613f6e565b61ffff1690506001816112a89190613fa2565b6001901b915050919050565b60008060036000600860000160039054906101000a900460ff1660ff16815260200190815260200160002090506000610100846112f19190613c8d565b61ffff16905060008082141561130d5782600001549050611341565b60018214156113225782600101549050611340565b6002821415611337578260020154905061133f565b826003015490505b5b5b600061134c86611277565b9050600081831690506000811195505050505050919050565b6000600660008373ffffffffffffffffffffffffffffffffffffffff1673ffffffffffffffffffffffffffffffffffffffff168152602001908152602001600020549050919050565b600860000160019054906101000a900460ff1615611401576040517f08c379a00000000000000000000000000000000000000000000000000000000081526004016113f8906137df565b60405180910390fd5b600860000160049054906101000a900460ff1660ff16600860000160039054906101000a900460ff1660ff161461146d576040517f08c379a00000000000000000000000000000000000000000000000000000000081526004016114649061385f565b60405180910390fd5b600860010160009054906101000a900473ffffffffffffffffffffffffffffffffffffffff1673ffffffffffffffffffffffffffffffffffffffff16632709c803600860000160089054906101000a900473ffffffffffffffffffffffffffffffffffffffff1633600860000160059054906101000a900462ffffff16856040518563ffffffff1660e01b815260040161150a9493929190613644565b60206040518083038186803b15801561152257600080fd5b505afa158015611536573d6000803e3d6000fd5b505050506040513d601f19601f8201168201806040525081019061155a919061308c565b611599576040517f08c379a00000000000000000000000000000000000000000000000000000000081526004016115909061395f565b60405180910390fd5b6001600860000160016101000a81548160ff0219169083151502179055503373ffffffffffffffffffffffffffffffffffffffff166108fc60146008600201546115e39190613cbe565b9081150290604051600060405180830381858888f1935050505015801561160e573d6000803e3d6000fd5b5050565b6000600254905090565b6000341161165f576040517f08c379a00000000000000000000000000000000000000000000000000000000081526004016116569061397f565b60405180910390fd5b600860000160029054906101000a900460ff166116b1576040517f08c379a00000000000000000000000000000000000000000000000000000000081526004016116a8906138bf565b60405180910390fd5b6000600860000160039054906101000a900460ff1660ff1614611717576116d7816112b4565b611716576040517f08c379a000000000000000000000000000000000000000000000000000000000815260040161170d9061391f565b60405180910390fd5b5b6000600460003373ffffffffffffffffffffffffffffffffffffffff1673ffffffffffffffffffffffffffffffffffffffff16815260200190815260200160002090506000808260000160049054906101000a900469ffffffffffffffffffff1669ffffffffffffffffffff1611905060008180156117cd57506117ac8360000160029054906101000a900461ffff166112b4565b806117cc57506000600860000160039054906101000a900460ff1660ff16145b5b90508015611832578260000160029054906101000a900461ffff1661ffff168461ffff1614611831576040517f08c379a00000000000000000000000000000000000000000000000000000000081526004016118289061399f565b60405180910390fd5b5b600034905060008561ffff168560000160029054906101000a900461ffff1661ffff16141590508080611863575083155b156119d4576040518060a00160405280600015158152602001600860000160039054906101000a900460ff1660ff1681526020018761ffff1681526020018369ffffffffffffffffffff1681526020018369ffffffffffffffffffff16815250600460003373ffffffffffffffffffffffffffffffffffffffff1673ffffffffffffffffffffffffffffffffffffffff16815260200190815260200160002060008201518160000160006101000a81548160ff02191690831515021790555060208201518160000160016101000a81548160ff021916908360ff16021790555060408201518160000160026101000a81548161ffff021916908361ffff16021790555060608201518160000160046101000a81548169ffffffffffffffffffff021916908369ffffffffffffffffffff160217905550608082015181600001600e6101000a81548169ffffffffffffffffffff021916908369ffffffffffffffffffff1602179055509050506119df565b6119de8583612736565b5b6000600760008861ffff1661ffff168152602001908152602001600020905060008160000160049054906101000a900469ffffffffffffffffffff1669ffffffffffffffffffff161415611b75576040518060a00160405280600015158152602001600860000160039054906101000a900460ff1660ff1681526020018861ffff1681526020018469ffffffffffffffffffff1681526020018469ffffffffffffffffffff16815250600760008961ffff1661ffff16815260200190815260200160002060008201518160000160006101000a81548160ff02191690831515021790555060208201518160000160016101000a81548160ff021916908360ff16021790555060408201518160000160026101000a81548161ffff021916908361ffff16021790555060608201518160000160046101000a81548169ffffffffffffffffffff021916908369ffffffffffffffffffff160217905550608082015181600001600e6101000a81548169ffffffffffffffffffff021916908369ffffffffffffffffffff160217905550905050611b80565b611b7f8184612736565b5b611b8942610a37565b82600560003373ffffffffffffffffffffffffffffffffffffffff1673ffffffffffffffffffffffffffffffffffffffff16815260200190815260200160002060008282829054906101000a900469ffffffffffffffffffff16611bed9190613c4d565b92506101000a81548169ffffffffffffffffffff021916908369ffffffffffffffffffff1602179055508269ffffffffffffffffffff1660086002016000828254611c389190613bc0565b925050819055508269ffffffffffffffffffff1660086003016000828254611c609190613bc0565b9250508190555050505050505050565b6000806000806000806000806000806000600860000160009054906101000a900460ff16600860000160019054906101000a900460ff16600860000160029054906101000a900460ff16600860000160039054906101000a900460ff16600860000160059054906101000a900462ffffff16600860000160089054906101000a900473ffffffffffffffffffffffffffffffffffffffff16600860010160009054906101000a900473ffffffffffffffffffffffffffffffffffffffff166008600201546008600301546008600401546008600501549a509a509a509a509a509a509a509a509a509a509a50909192939495969798999a565b600080600080600060036000600860000160039054906101000a900460ff1660ff1681526020019081526020016000209050806000015481600101548260020154836003015494509450945094505090919293565b60008054906101000a900473ffffffffffffffffffffffffffffffffffffffff1673ffffffffffffffffffffffffffffffffffffffff163373ffffffffffffffffffffffffffffffffffffffff1614611e4c576040517f08c379a0000000000000000000000000000000000000000000000000000000008152600401611e439061387f565b60405180910390fd5b600060036000600860000160039054906101000a900460ff1660ff16815260200190815260200160002090508481600001819055508381600101819055508281600201819055508181600301819055505050505050565b600080600080600760008661ffff1661ffff16815260200190815260200160002090508060000160019054906101000a900460ff168160000160049054906101000a900469ffffffffffffffffffff1682600001600e9054906101000a900469ffffffffffffffffffff16935093509350509193909250565b60008580611f75575060008054906101000a900473ffffffffffffffffffffffffffffffffffffffff1673ffffffffffffffffffffffffffffffffffffffff163373ffffffffffffffffffffffffffffffffffffffff16145b611fb4576040517f08c379a0000000000000000000000000000000000000000000000000000000008152600401611fab9061387f565b60405180910390fd5b85611fc25760025492504391505b60006002600a84611fd39190613cbe565b611fdd919061421f565b141561201e576040517f08c379a00000000000000000000000000000000000000000000000000000000081526004016120159061389f565b60405180910390fd5b612026612e5e565b600f8516816080019060ff16908160ff1681525050600f60048663ffffffff16901c16816020019060ff16908160ff1681525050600f60088663ffffffff16901c168160a0019060ff16908160ff1681525050600f600c8663ffffffff16901c168160c0019060ff16908160ff1681525050600f60108663ffffffff16901c16816040019060ff16908160ff1681525050600f60148663ffffffff16901c16816060019060ff16908160ff16815250506120de612e5e565b600f8716816080019060ff16908160ff1681525050600f60048863ffffffff16901c16816020019060ff16908160ff1681525050600f60088863ffffffff16901c168160a0019060ff16908160ff1681525050600f600c8863ffffffff16901c168160c0019060ff16908160ff1681525050600f60108863ffffffff16901c16816040019060ff16908160ff1681525050600f60148863ffffffff16901c16816060019060ff16908160ff16815250508160c001518260a00151836060015184604001516121ac9190613c16565b6121b69190613c16565b6121c09190613c16565b60ff168160c001518260a00151836060015184604001516121e19190613c16565b6121eb9190613c16565b6121f59190613c16565b60ff1611158160000190151590811515815250506000806001905060008688604051602001612225929190613618565b6040516020818303038152906040528051906020012060001c905060005b600a81101561247457846000015161225c57600161225f565b60005b60ff166001846fffffffffffffffffffffffffffffffff16901b6122839190613b7a565b92508460000151156122b55761229c858785858d6128a2565b809650819850829750839a5084995050505050506122d7565b6122c2868685858d6128a2565b809650819850829750839950849a5050505050505b60008560a0015160ff1614806122f4575060008660a0015160ff16145b1561233d5760008660a0015160ff161461230f576001612312565b60005b60ff166001846fffffffffffffffffffffffffffffffff16901b6123369190613b7a565b9250612474565b8361236d578460000151158560000190151590811515815250508560000151158660000190151590811515815250505b6009811415612461578560a0015160ff168560a0015160ff16146123f0578560a0015160ff168560a0015160ff16116123c757600180846fffffffffffffffffffffffffffffffff16901b6123c29190613b7a565b6123eb565b60006001846fffffffffffffffffffffffffffffffff16901b6123ea9190613b7a565b5b61245e565b600060028a84604051602001612407929190613618565b6040516020818303038152906040528051906020012060001c61242a919061421f565b14612436576001612439565b60005b60ff166001846fffffffffffffffffffffffffffffffff16901b61245d9190613b7a565b5b92505b808061246c90614189565b915050612243565b50819550505050505095945050505050565b60008082600860000160039054906101000a900460ff166124a79190613fd6565b905060008160026124b89190613d8d565b905080856124c69190613f2a565b9250505092915050565b60008054906101000a900473ffffffffffffffffffffffffffffffffffffffff1673ffffffffffffffffffffffffffffffffffffffff163373ffffffffffffffffffffffffffffffffffffffff161461255e576040517f08c379a00000000000000000000000000000000000000000000000000000000081526004016125559061387f565b60405180910390fd5b80600860000160006101000a81548160ff02191690831515021790555050565b612618838383604051602401612596939291906137a1565b6040516020818303038152906040527f969cdd03000000000000000000000000000000000000000000000000000000007bffffffffffffffffffffffffffffffffffffffffffffffffffffffff19166020820180517bffffffffffffffffffffffffffffffffffffffffffffffffffffffff8381831617835250505050612b33565b505050565b600060146008600201546126319190613cbe565b90506126556040518060600160405280602f81526020016146c6602f91398261269a565b8060086004018190555080600860020160008282546126749190613fa2565b9250508190555080600860030160008282546126909190613fa2565b9250508190555050565b61273282826040516024016126b0929190613771565b6040516020818303038152906040527f9710a9d0000000000000000000000000000000000000000000000000000000007bffffffffffffffffffffffffffffffffffffffffffffffffffffffff19166020820180517bffffffffffffffffffffffffffffffffffffffffffffffffffffffff8381831617835250505050612b33565b5050565b60008260000160019054906101000a900460ff16600860000160039054906101000a900460ff166127679190613fd6565b90508060026127769190613d42565b83600001600e8282829054906101000a900469ffffffffffffffffffff1661279e9190613f2a565b92506101000a81548169ffffffffffffffffffff021916908369ffffffffffffffffffff1602179055508183600001600e8282829054906101000a900469ffffffffffffffffffff166127f19190613c4d565b92506101000a81548169ffffffffffffffffffff021916908369ffffffffffffffffffff160217905550818360000160048282829054906101000a900469ffffffffffffffffffff166128449190613c4d565b92506101000a81548169ffffffffffffffffffff021916908369ffffffffffffffffffff160217905550600860000160039054906101000a900460ff168360000160016101000a81548160ff021916908360ff160217905550505050565b6128aa612e5e565b6128b2612e5e565b6000806000806128c38b8b8a612b5c565b9050806020015160ff16816040015160ff1611156129ed5760008a6040015160ff161180156128f9575060008b6040015160ff16115b15612963578060e0015160ff168160200151826040015161291a9190613fd6565b60ff161161294a57806020015181604001516129369190613fd6565b8160e001516129459190613fd6565b61294d565b60005b8b6040019060ff16908160ff16815250506129e8565b60008a6040015160ff16148015612981575060008b6040015160ff16145b156129e7578060e0015160ff16816020015182604001516129a29190613fd6565b60ff16116129d257806020015181604001516129be9190613fd6565b8160e001516129cd9190613fd6565b6129d5565b60005b8b60a0019060ff16908160ff16815250505b5b612aa3565b806020015160ff16816040015160ff161015612aa25760008a6040015160ff161115612a5c5780610100015160ff16816020015160ff1611612a43578060200151816101000151612a3e9190613fd6565b612a46565b60005b8a6040019060ff16908160ff1681525050612aa1565b80610100015160ff16816020015160ff1611612a8c578060200151816101000151612a879190613fd6565b612a8f565b60005b8a60a0019060ff16908160ff16815250505b5b5b806040015160ff166004826020015160ff16901b60ff1660088b6fffffffffffffffffffffffffffffffff16901b612adb9190613b7a565b612ae59190613b7a565b98508a8a8a83600001518a8c604051602001612b02929190613618565b6040516020818303038152906040528051906020012060001c95509550955095509550509550955095509550959050565b60008151905060006a636f6e736f6c652e6c6f679050602083016000808483855afa5050505050565b612b64612eaf565b612b6c612eaf565b6000846040015160ff161115612c06578460200151816060019060ff16908160ff16815250508360200151816080019060ff16908160ff168152505084606001518160a0019060ff16908160ff168152505083606001518160c0019060ff16908160ff168152505084604001518160e0019060ff16908160ff1681525050836040015181610100019060ff16908160ff1681525050612c8c565b8460800151816060019060ff16908160ff16815250508360800151816080019060ff16908160ff16815250508460c001518160a0019060ff16908160ff16815250508360c001518160c0019060ff16908160ff16815250508460a001518160e0019060ff16908160ff16815250508360a0015181610100019060ff16908160ff16815250505b612c9e81606001518260800151612e00565b612cac578060a00151612cbe565b60028160a00151612cbd9190613eef565b5b60ff1683612ccc919061421f565b816020019060ff16908160ff1681525050600060028260a00151612cf09190613eef565b60ff16600f11612d0157600f612d13565b60028260a00151612d129190613eef565b5b9050600f826020015160ff1611612d2e578160200151612d31565b600f5b826020019060ff16908160ff1681525050612d5482606001518360800151612e00565b612d6e578160a0015160ff16826020015160ff1614612d7c565b8060ff16826020015160ff16145b826000019015159081151581525050612d9d82606001518360800151612e2f565b15612df4578160a0015160ff1660025485604051602001612dbf929190613618565b6040516020818303038152906040528051906020012060001c612de2919061421f565b826040019060ff16908160ff16815250505b81925050509392505050565b600080600183600d86612e139190613eef565b612e1d9190613c16565b60ff16600154901c1611905092915050565b600080600184600d85612e429190613eef565b612e4c9190613c16565b60ff16600154901c1611905092915050565b6040518060e00160405280600015158152602001600060ff168152602001600060ff168152602001600060ff168152602001600060ff168152602001600060ff168152602001600060ff1681525090565b604051806101200160405280600015158152602001600060ff168152602001600060ff168152602001600060ff168152602001600060ff168152602001600060ff168152602001600060ff168152602001600060ff168152602001600060ff1681525090565b6000612f28612f2384613b11565b613aec565b905082815260208101848484011115612f4057600080fd5b612f4b8482856140ec565b509392505050565b600081359050612f62816145e1565b92915050565b600081359050612f77816145f8565b92915050565b600081519050612f8c816145f8565b92915050565b600082601f830112612fa357600080fd5b8135612fb3848260208601612f15565b91505092915050565b600081359050612fcb8161460f565b92915050565b600081359050612fe081614626565b92915050565b600081359050612ff58161463d565b92915050565b60008135905061300a81614654565b92915050565b60008135905061301f8161466b565b92915050565b60008135905061303481614682565b92915050565b60006020828403121561304c57600080fd5b600061305a84828501612f53565b91505092915050565b60006020828403121561307557600080fd5b600061308384828501612f68565b91505092915050565b60006020828403121561309e57600080fd5b60006130ac84828501612f7d565b91505092915050565b600080600080600060a086880312156130cd57600080fd5b60006130db88828901612f68565b95505060206130ec88828901612ffb565b94505060406130fd88828901612ffb565b935050606061310e88828901612fe6565b925050608061311f88828901612fe6565b9150509295509295909350565b6000806040838503121561313f57600080fd5b600061314d85828601612f68565b925050602061315e85828601613010565b9150509250929050565b60006020828403121561317a57600080fd5b600082013567ffffffffffffffff81111561319457600080fd5b6131a084828501612f92565b91505092915050565b6000602082840312156131bb57600080fd5b60006131c984828501612fbc565b91505092915050565b6000602082840312156131e457600080fd5b60006131f284828501612fd1565b91505092915050565b6000806000806080858703121561321157600080fd5b600061321f87828801612fe6565b945050602061323087828801612fe6565b935050604061324187828801612fe6565b925050606061325287828801612fe6565b91505092959194509250565b6000806040838503121561327157600080fd5b600061327f85828601613025565b925050602061329085828601613010565b9150509250929050565b6132a38161400a565b82525050565b6132b28161401c565b82525050565b6132c181614028565b82525050565b60006132d282613b42565b6132dc8185613b58565b93506132ec8185602086016140fb565b6132f5816142dd565b840191505092915050565b613309816140c8565b82525050565b600061331a82613b4d565b6133248185613b69565b93506133348185602086016140fb565b61333d816142dd565b840191505092915050565b6000613355602083613b69565b915061336082614308565b602082019050919050565b6000613378601683613b69565b915061338382614331565b602082019050919050565b600061339b601e83613b69565b91506133a68261435a565b602082019050919050565b60006133be601383613b69565b91506133c982614383565b602082019050919050565b60006133e1601283613b69565b91506133ec826143ac565b602082019050919050565b6000613404601c83613b69565b915061340f826143d5565b602082019050919050565b6000613427601c83613b69565b9150613432826143fe565b602082019050919050565b600061344a602583613b69565b915061345582614427565b604082019050919050565b600061346d601783613b69565b915061347882614476565b602082019050919050565b6000613490603383613b69565b915061349b8261449f565b604082019050919050565b60006134b3601583613b69565b91506134be826144ee565b602082019050919050565b60006134d6601683613b69565b91506134e182614517565b602082019050919050565b60006134f9601a83613b69565b915061350482614540565b602082019050919050565b600061351c602183613b69565b915061352782614569565b604082019050919050565b600061353f601683613b69565b915061354a826145b8565b602082019050919050565b61355e81614032565b82525050565b61357561357082614032565b6141d2565b82525050565b6135848161404e565b82525050565b6135938161407c565b82525050565b6135a2816140da565b82525050565b6135b18161408b565b82525050565b6135c86135c38261408b565b6141e4565b82525050565b6135d7816140b2565b82525050565b6135e6816140a5565b82525050565b60006135f882856135b7565b6020820191506136088284613564565b6010820191508190509392505050565b600061362482856135b7565b60208201915061363482846135b7565b6020820191508190509392505050565b6000608082019050613659600083018761329a565b613666602083018661329a565b6136736040830185613599565b818103606083015261368581846132c7565b905095945050505050565b60006020820190506136a560008301846132a9565b92915050565b6000610160820190506136c1600083018e6132a9565b6136ce602083018d6132a9565b6136db604083018c6132a9565b6136e8606083018b6135dd565b6136f5608083018a61358a565b61370260a083018961329a565b61370f60c083018861329a565b61371c60e08301876135a8565b61372a6101008301866135a8565b6137386101208301856135a8565b6137466101408301846132b8565b9c9b505050505050505050505050565b600060208201905061376b6000830184613300565b92915050565b6000604082019050818103600083015261378b818561330f565b905061379a60208301846135a8565b9392505050565b600060608201905081810360008301526137bb818661330f565b90506137ca60208301856135a8565b6137d760408301846135a8565b949350505050565b600060208201905081810360008301526137f881613348565b9050919050565b600060208201905081810360008301526138188161336b565b9050919050565b600060208201905081810360008301526138388161338e565b9050919050565b60006020820190508181036000830152613858816133b1565b9050919050565b60006020820190508181036000830152613878816133d4565b9050919050565b60006020820190508181036000830152613898816133f7565b9050919050565b600060208201905081810360008301526138b88161341a565b9050919050565b600060208201905081810360008301526138d88161343d565b9050919050565b600060208201905081810360008301526138f881613460565b9050919050565b6000602082019050818103600083015261391881613483565b9050919050565b60006020820190508181036000830152613938816134a6565b9050919050565b60006020820190508181036000830152613958816134c9565b9050919050565b60006020820190508181036000830152613978816134ec565b9050919050565b600060208201905081810360008301526139988161350f565b9050919050565b600060208201905081810360008301526139b881613532565b9050919050565b60006020820190506139d46000830184613555565b92915050565b60006080820190506139ef600083018761357b565b6139fc60208301866135ce565b613a0960408301856135ce565b613a1660608301846135dd565b95945050505050565b6000602082019050613a34600083018461358a565b92915050565b6000602082019050613a4f60008301846135a8565b92915050565b6000608082019050613a6a60008301876135a8565b613a7760208301866135a8565b613a8460408301856135a8565b613a9160608301846135a8565b95945050505050565b6000602082019050613aaf60008301846135ce565b92915050565b6000606082019050613aca60008301866135dd565b613ad760208301856135ce565b613ae460408301846135ce565b949350505050565b6000613af6613b07565b9050613b028282614158565b919050565b6000604051905090565b600067ffffffffffffffff821115613b2c57613b2b6142ae565b5b613b35826142dd565b9050602081019050919050565b600081519050919050565b600081519050919050565b600082825260208201905092915050565b600082825260208201905092915050565b6000613b8582614032565b9150613b9083614032565b9250826fffffffffffffffffffffffffffffffff03821115613bb557613bb4614250565b5b828201905092915050565b6000613bcb8261408b565b9150613bd68361408b565b9250827fffffffffffffffffffffffffffffffffffffffffffffffffffffffffffffffff03821115613c0b57613c0a614250565b5b828201905092915050565b6000613c21826140a5565b9150613c2c836140a5565b92508260ff03821115613c4257613c41614250565b5b828201905092915050565b6000613c58826140b2565b9150613c63836140b2565b92508269ffffffffffffffffffff03821115613c8257613c81614250565b5b828201905092915050565b6000613c988261404e565b9150613ca38361404e565b925082613cb357613cb261427f565b5b828204905092915050565b6000613cc98261408b565b9150613cd48361408b565b925082613ce457613ce361427f565b5b828204905092915050565b6000808291508390505b6001851115613d3957808604811115613d1557613d14614250565b5b6001851615613d245780820291505b8081029050613d32856142fb565b9450613cf9565b94509492505050565b6000613d4d8261408b565b9150613d58836140a5565b9250613d857fffffffffffffffffffffffffffffffffffffffffffffffffffffffffffffffff8484613dc2565b905092915050565b6000613d98826140b2565b9150613da3836140a5565b9250613dba69ffffffffffffffffffff8484613dc2565b905092915050565b600082613dd25760019050613e8e565b81613de05760009050613e8e565b8160018114613df65760028114613e0057613e2f565b6001915050613e8e565b60ff841115613e1257613e11614250565b5b8360020a915084821115613e2957613e28614250565b5b50613e8e565b5060208310610133831016604e8410600b8410161715613e645782820a905083811115613e5f57613e5e614250565b5b613e8e565b613e718484846001613cef565b92509050818404811115613e8857613e87614250565b5b81810290505b9392505050565b6000613ea08261408b565b9150613eab8361408b565b9250817fffffffffffffffffffffffffffffffffffffffffffffffffffffffffffffffff0483118215151615613ee457613ee3614250565b5b828202905092915050565b6000613efa826140a5565b9150613f05836140a5565b92508160ff0483118215151615613f1f57613f1e614250565b5b828202905092915050565b6000613f35826140b2565b9150613f40836140b2565b92508169ffffffffffffffffffff0483118215151615613f6357613f62614250565b5b828202905092915050565b6000613f798261404e565b9150613f848361404e565b925082821015613f9757613f96614250565b5b828203905092915050565b6000613fad8261408b565b9150613fb88361408b565b925082821015613fcb57613fca614250565b5b828203905092915050565b6000613fe1826140a5565b9150613fec836140a5565b925082821015613fff57613ffe614250565b5b828203905092915050565b60006140158261405c565b9050919050565b60008115159050919050565b6000819050919050565b60006fffffffffffffffffffffffffffffffff82169050919050565b600061ffff82169050919050565b600073ffffffffffffffffffffffffffffffffffffffff82169050919050565b600062ffffff82169050919050565b6000819050919050565b600063ffffffff82169050919050565b600060ff82169050919050565b600069ffffffffffffffffffff82169050919050565b60006140d38261407c565b9050919050565b60006140e58261407c565b9050919050565b82818337600083830152505050565b60005b838110156141195780820151818401526020810190506140fe565b83811115614128576000848401525b50505050565b60006141398261408b565b9150600082141561414d5761414c614250565b5b600182039050919050565b614161826142dd565b810181811067ffffffffffffffff821117156141805761417f6142ae565b5b80604052505050565b60006141948261408b565b91507fffffffffffffffffffffffffffffffffffffffffffffffffffffffffffffffff8214156141c7576141c6614250565b5b600182019050919050565b60006141dd826142ee565b9050919050565b6000819050919050565b60006141f98261404e565b91506142048361404e565b9250826142145761421361427f565b5b828206905092915050565b600061422a8261408b565b91506142358361408b565b9250826142455761424461427f565b5b828206905092915050565b7f4e487b7100000000000000000000000000000000000000000000000000000000600052601160045260246000fd5b7f4e487b7100000000000000000000000000000000000000000000000000000000600052601260045260246000fd5b7f4e487b7100000000000000000000000000000000000000000000000000000000600052604160045260246000fd5b6000601f19601f8301169050919050565b60008160801b9050919050565b60008160011c9050919050565b7f426f756e74792068617320616c7265616479206265656e2072656465656d6564600082015250565b7f4d756c7469706c696572206c657373207468616e203200000000000000000000600082015250565b7f526571756972657320677265617465722063757272656e7420726f756e640000600082015250565b7f546f75726e616d656e74206973206f7665722100000000000000000000000000600082015250565b7f4d757374206265206c61737420726f756e640000000000000000000000000000600082015250565b7f4d7573742062652063616c6c656420627920636f6e74726f6c6c657200000000600082015250565b7f426c6f636b6e756d20686173206576656e2074656e7320646967697400000000600082015250565b7f42657474696e67206973206e6f74206f70656e3b20776520617265206d69642d60008201527f726f756e64000000000000000000000000000000000000000000000000000000602082015250565b7f4265742070726576696f75736c792072656465656d6564000000000000000000600082015250565b7f426c6f636b6e756d20686173206f64642074656e73206469676974206f72206260008201527f657474696e67206973206e6f74206f70656e2e00000000000000000000000000602082015250565b7f4669676874657220697320656c696d696e617465640000000000000000000000600082015250565b7f4d75737420626520696e206572726f7220737461746500000000000000000000600082015250565b7f507572636861736572206e6f74206f6e2077686974656c697374000000000000600082015250565b7f4d75737420706c61636520612062657420686967686572207468616e207a657260008201527f6f00000000000000000000000000000000000000000000000000000000000000602082015250565b7f43616e6e6f74206368616e676520666967687465727300000000000000000000600082015250565b6145ea8161400a565b81146145f557600080fd5b50565b6146018161401c565b811461460c57600080fd5b50565b61461881614032565b811461462357600080fd5b50565b61462f8161404e565b811461463a57600080fd5b50565b6146468161408b565b811461465157600080fd5b50565b61465d81614095565b811461466857600080fd5b50565b614674816140a5565b811461467f57600080fd5b50565b61468b816140b2565b811461469657600080fd5b5056fe5472616e7366657272696e6720626574746f722773207368617265206f6620257320746f20626574746f722e53657474696e67206173696465203525206f6620706f7420666f72206f776e65722c20746f74616c6c696e67202573506f74207368617265206f662025732072656465656d65642c20746f74616c20706f74206973206e6f772025732e496e2072656465656d506f7428292c206669676874657245717569747920697320257320616e642066696768746572546f74616c4571756974792069732025732ea2646970667358221220e34d25b6b5bf2cd1f66bc57aab587603700ffd6584745332866b2b510542c52464736f6c63430008040033",
  "linkReferences": {},
  "deployedLinkReferences": {}
}