{
    "_format": "hh-sol-artifact-1",
    "contractName": "FightClub",
    "sourceName": "contracts/FightClub.sol",
    "abi": [
        {
            "inputs": [
                {
                    "internalType": "uint256",
                    "name": "_elementsMatrix",
                    "type": "uint256"
                },
                {
                    "internalType": "address",
                    "name": "_signerAddress",
                    "type": "address"
                },
                {
                    "internalType": "address",
                    "name": "_verifySignatureAddress",
                    "type": "address"
                },
                {
                    "internalType": "bytes32",
                    "name": "_provenanceHash",
                    "type": "bytes32"
                }
            ],
            "stateMutability": "nonpayable",
            "type": "constructor"
        },
        {
            "anonymous": false,
            "inputs": [
                {
                    "indexed": false,
                    "internalType": "uint24",
                    "name": "_winner",
                    "type": "uint24"
                }
            ],
            "name": "Winner",
            "type": "event"
        },
        {
            "inputs": [
                {
                    "internalType": "uint128",
                    "name": "_random",
                    "type": "uint128"
                }
            ],
            "name": "addRandomness",
            "outputs": [],
            "stateMutability": "nonpayable",
            "type": "function"
        },
        {
            "inputs": [
                {
                    "internalType": "uint16",
                    "name": "_fighterIdentifier",
                    "type": "uint16"
                }
            ],
            "name": "bracketWithOnlyFighterAlive",
            "outputs": [
                {
                    "internalType": "uint256",
                    "name": "",
                    "type": "uint256"
                }
            ],
            "stateMutability": "pure",
            "type": "function"
        },
        {
            "inputs": [],
            "name": "emergencyWithdrawal",
            "outputs": [],
            "stateMutability": "nonpayable",
            "type": "function"
        },
        {
            "inputs": [],
            "name": "evaluateWinner",
            "outputs": [],
            "stateMutability": "nonpayable",
            "type": "function"
        },
        {
            "inputs": [
                {
                    "internalType": "bool",
                    "name": "_isSimulated",
                    "type": "bool"
                },
                {
                    "internalType": "uint32",
                    "name": "_fighterOne",
                    "type": "uint32"
                },
                {
                    "internalType": "uint32",
                    "name": "_fighterTwo",
                    "type": "uint32"
                },
                {
                    "internalType": "uint256",
                    "name": "_random",
                    "type": "uint256"
                },
                {
                    "internalType": "uint256",
                    "name": "_blockNumber",
                    "type": "uint256"
                }
            ],
            "name": "fight",
            "outputs": [
                {
                    "internalType": "uint128",
                    "name": "",
                    "type": "uint128"
                }
            ],
            "stateMutability": "view",
            "type": "function"
        },
        {
            "inputs": [],
            "name": "getBet",
            "outputs": [
                {
                    "internalType": "uint16",
                    "name": "",
                    "type": "uint16"
                },
                {
                    "internalType": "uint80",
                    "name": "",
                    "type": "uint80"
                },
                {
                    "internalType": "uint80",
                    "name": "",
                    "type": "uint80"
                },
                {
                    "internalType": "uint8",
                    "name": "",
                    "type": "uint8"
                }
            ],
            "stateMutability": "view",
            "type": "function"
        },
        {
            "inputs": [],
            "name": "getBracketStatus",
            "outputs": [
                {
                    "internalType": "uint256",
                    "name": "",
                    "type": "uint256"
                },
                {
                    "internalType": "uint256",
                    "name": "",
                    "type": "uint256"
                },
                {
                    "internalType": "uint256",
                    "name": "",
                    "type": "uint256"
                },
                {
                    "internalType": "uint256",
                    "name": "",
                    "type": "uint256"
                }
            ],
            "stateMutability": "view",
            "type": "function"
        },
        {
            "inputs": [
                {
                    "internalType": "uint80",
                    "name": "_equity",
                    "type": "uint80"
                },
                {
                    "internalType": "uint8",
                    "name": "_lastRoundUpdated",
                    "type": "uint8"
                }
            ],
            "name": "getEquityForBet",
            "outputs": [
                {
                    "internalType": "uint80",
                    "name": "",
                    "type": "uint80"
                }
            ],
            "stateMutability": "view",
            "type": "function"
        },
        {
            "inputs": [
                {
                    "internalType": "uint16",
                    "name": "_fighterIdentifier",
                    "type": "uint16"
                }
            ],
            "name": "getFighterTotalPot",
            "outputs": [
                {
                    "internalType": "uint8",
                    "name": "",
                    "type": "uint8"
                },
                {
                    "internalType": "uint80",
                    "name": "",
                    "type": "uint80"
                },
                {
                    "internalType": "uint80",
                    "name": "",
                    "type": "uint80"
                }
            ],
            "stateMutability": "view",
            "type": "function"
        },
        {
            "inputs": [],
            "name": "getTotalPot",
            "outputs": [
                {
                    "internalType": "uint256",
                    "name": "",
                    "type": "uint256"
                }
            ],
            "stateMutability": "view",
            "type": "function"
        },
        {
            "inputs": [
                {
                    "internalType": "uint16",
                    "name": "_fighterIdentifier",
                    "type": "uint16"
                }
            ],
            "name": "isFighterAlive",
            "outputs": [
                {
                    "internalType": "bool",
                    "name": "",
                    "type": "bool"
                }
            ],
            "stateMutability": "view",
            "type": "function"
        },
        {
            "inputs": [
                {
                    "internalType": "uint16",
                    "name": "_fighterIdentifier",
                    "type": "uint16"
                }
            ],
            "name": "placeBet",
            "outputs": [],
            "stateMutability": "payable",
            "type": "function"
        },
        {
            "inputs": [
                {
                    "internalType": "bytes",
                    "name": "_signature",
                    "type": "bytes"
                }
            ],
            "name": "redeemFighterBounty",
            "outputs": [],
            "stateMutability": "nonpayable",
            "type": "function"
        },
        {
            "inputs": [],
            "name": "redeemPot",
            "outputs": [],
            "stateMutability": "nonpayable",
            "type": "function"
        },
        {
            "inputs": [
                {
                    "internalType": "uint256",
                    "name": "_fighterTrancheOne",
                    "type": "uint256"
                },
                {
                    "internalType": "uint256",
                    "name": "_fighterTrancheTwo",
                    "type": "uint256"
                },
                {
                    "internalType": "uint256",
                    "name": "_fighterTrancheThree",
                    "type": "uint256"
                },
                {
                    "internalType": "uint256",
                    "name": "_fighterTrancheFour",
                    "type": "uint256"
                }
            ],
            "name": "setBracketStatus",
            "outputs": [],
            "stateMutability": "nonpayable",
            "type": "function"
        },
        {
            "inputs": [
                {
                    "internalType": "bool",
                    "name": "_bettingIsOpen",
                    "type": "bool"
                },
                {
                    "internalType": "uint8",
                    "name": "_currentRound",
                    "type": "uint8"
                }
            ],
            "name": "setConfig",
            "outputs": [],
            "stateMutability": "nonpayable",
            "type": "function"
        },
        {
            "inputs": [
                {
                    "internalType": "bool",
                    "name": "_isError",
                    "type": "bool"
                }
            ],
            "name": "setConfigError",
            "outputs": [],
            "stateMutability": "nonpayable",
            "type": "function"
        }
    ],
    "bytecode": "0x60806040523480156200001157600080fd5b5060405162004516380380620045168339818101604052810190620000379190620001bc565b336000806101000a81548173ffffffffffffffffffffffffffffffffffffffff021916908373ffffffffffffffffffffffffffffffffffffffff16021790555083600181905550608043426040516020016200009592919062000243565b6040516020818303038152906040528051906020012060001c901c60028190555062ffffff600760000160046101000a81548162ffffff021916908362ffffff16021790555082600760000160076101000a81548173ffffffffffffffffffffffffffffffffffffffff021916908373ffffffffffffffffffffffffffffffffffffffff16021790555081600760010160006101000a81548173ffffffffffffffffffffffffffffffffffffffff021916908373ffffffffffffffffffffffffffffffffffffffff160217905550806007600501819055505050505062000313565b6000815190506200018881620002c5565b92915050565b6000815190506200019f81620002df565b92915050565b600081519050620001b681620002f9565b92915050565b60008060008060808587031215620001d357600080fd5b6000620001e387828801620001a5565b9450506020620001f68782880162000177565b9350506040620002098782880162000177565b92505060606200021c878288016200018e565b91505092959194509250565b6200023d6200023782620002b1565b620002bb565b82525050565b600062000251828562000228565b60208201915062000263828462000228565b6020820191508190509392505050565b6000620002808262000291565b9050919050565b6000819050919050565b600073ffffffffffffffffffffffffffffffffffffffff82169050919050565b6000819050919050565b6000819050919050565b620002d08162000273565b8114620002dc57600080fd5b50565b620002ea8162000287565b8114620002f657600080fd5b50565b6200030481620002b1565b81146200031057600080fd5b50565b6141f380620003236000396000f3fe6080604052600436106100fe5760003560e01c80636b88d8d211610095578063cefadde911610064578063cefadde9146102e0578063d201298c14610309578063eca2570a14610348578063fa7b917114610385578063fd9cf19e146103c2576100fe565b80636b88d8d2146102305780638fb616291461026d578063b8be239414610296578063c6d21e81146102b2576100fe565b806357a15649116100d157806357a156491461019c5780635b0a3843146101b35780635d3f8c93146101ca5780635edec093146101f3576100fe565b806320835e8c146101035780632e521eb514610131578063480bc31f146101485780634814516f14610173575b600080fd5b34801561010f57600080fd5b506101186103eb565b60405161012894939291906134a4565b60405180910390f35b34801561013d57600080fd5b5061014661049e565b005b34801561015457600080fd5b5061015d610958565b60405161016a9190613504565b60405180910390f35b34801561017f57600080fd5b5061019a60048036038101906101959190612d70565b610965565b005b3480156101a857600080fd5b506101b1610a52565b005b3480156101bf57600080fd5b506101c8610e13565b005b3480156101d657600080fd5b506101f160048036038101906101ec9190612cf3565b610f80565b005b3480156101ff57600080fd5b5061021a60048036038101906102159190612d99565b6110a8565b6040516102279190613504565b60405180910390f35b34801561023c57600080fd5b5061025760048036038101906102529190612d99565b6110e5565b6040516102649190613225565b60405180910390f35b34801561027957600080fd5b50610294600480360381019061028f9190612d2f565b611196565b005b6102b060048036038101906102ab9190612d99565b6113e6565b005b3480156102be57600080fd5b506102c7611a31565b6040516102d7949392919061351f565b60405180910390f35b3480156102ec57600080fd5b5061030760048036038101906103029190612dc2565b611a86565b005b34801561031557600080fd5b50610330600480360381019061032b9190612d99565b611b6b565b60405161033f9392919061357f565b60405180910390f35b34801561035457600080fd5b5061036f600480360381019061036a9190612c7c565b611be4565b60405161037c9190613489565b60405180910390f35b34801561039157600080fd5b506103ac60048036038101906103a79190612e25565b6120c7565b6040516103b99190613564565b60405180910390f35b3480156103ce57600080fd5b506103e960048036038101906103e49190612c2a565b612111565b005b6000806000806000600460003373ffffffffffffffffffffffffffffffffffffffff1673ffffffffffffffffffffffffffffffffffffffff16815260200190815260200160002090508060000160029054906101000a900461ffff168160000160049054906101000a900469ffffffffffffffffffff1682600001600e9054906101000a900469ffffffffffffffffffff168360000160019054906101000a900460ff1694509450945094505090919293565b600a600760000160039054906101000a900460ff1660ff16146104f6576040517f08c379a00000000000000000000000000000000000000000000000000000000081526004016104ed90613349565b60405180910390fd5b6000600460003373ffffffffffffffffffffffffffffffffffffffff1673ffffffffffffffffffffffffffffffffffffffff16815260200190815260200160002090506105548160000160029054906101000a900461ffff166110e5565b610593576040517f08c379a000000000000000000000000000000000000000000000000000000000815260040161058a906133e9565b60405180910390fd5b8060000160009054906101000a900460ff16156105e5576040517f08c379a00000000000000000000000000000000000000000000000000000000081526004016105dc906133a9565b60405180910390fd5b60018160000160006101000a81548160ff02191690831515021790555060008160000160019054906101000a900460ff16600760000160039054906101000a900460ff166106339190613aa0565b9050806002610642919061380c565b82600001600e8282829054906101000a900469ffffffffffffffffffff1661066a91906139f4565b92506101000a81548169ffffffffffffffffffff021916908369ffffffffffffffffffff160217905550600760000160039054906101000a900460ff168260000160016101000a81548160ff021916908360ff1602179055506000600660008460000160029054906101000a900461ffff1661ffff1661ffff16815260200190815260200160002090508060000160019054906101000a900460ff16600760000160039054906101000a900460ff166107239190613aa0565b9150816002610732919061380c565b81600001600e8282829054906101000a900469ffffffffffffffffffff1661075a91906139f4565b92506101000a81548169ffffffffffffffffffff021916908369ffffffffffffffffffff160217905550600760000160039054906101000a900460ff168160000160016101000a81548160ff021916908360ff16021790555061082260405180608001604052806041815260200161417d6041913984600001600e9054906101000a900469ffffffffffffffffffff1669ffffffffffffffffffff1683600001600e9054906101000a900469ffffffffffffffffffff1669ffffffffffffffffffff166121bf565b600060076004015414156108395761083861225e565b5b600081600001600e9054906101000a900469ffffffffffffffffffff1669ffffffffffffffffffff1684600001600e9054906101000a900469ffffffffffffffffffff1669ffffffffffffffffffff16600760030154610899919061395f565b6108a39190613788565b90506108c76040518060600160405280602c81526020016140f4602c9139826122db565b3373ffffffffffffffffffffffffffffffffffffffff166108fc829081150290604051600060405180830381858888f1935050505015801561090d573d6000803e3d6000fd5b5080600760020160008282546109239190613a6c565b925050819055506109526040518060600160405280602e815260200161414f602e9139826007600201546121bf565b50505050565b6000600760020154905090565b60006005436109749190613cdf565b146109b4576040517f08c379a00000000000000000000000000000000000000000000000000000000081526004016109ab906133c9565b60405180910390fd5b6001816fffffffffffffffffffffffffffffffff1611610a09576040517f08c379a0000000000000000000000000000000000000000000000000000000008152600401610a0090613309565b60405180910390fd5b6080804383604051602001610a1f929190613181565b6040516020818303038152906040528051906020012060001c901c600254610a47919061395f565b901c60028190555050565b600a600760000160039054906101000a900460ff1660ff1614610aaa576040517f08c379a0000000000000000000000000000000000000000000000000000000008152600401610aa190613349565b60405180910390fd5b6000600360006001600760000160039054906101000a900460ff16610acf9190613aa0565b60ff16815260200190815260200160002090506000806000836000015414610b01578260000154915060009050610b57565b6000836001015414610b1e57826001015491506101009050610b56565b6000836002015414610b3b57826002015491506102009050610b55565b6000836003015414610b54578260030154915061030090505b5b5b5b60006001600760000160039054906101000a900460ff16610b789190613aa0565b60ff1690505b6001811115610d1c576000600360008381526020019081526020016000209050600083148015610bb45750600084826000015416145b15610bf8577fde2bff2d6b387fb139cc88f40ef98966425b338cd8a98b2b4e8230a99c74cfe362ffffff604051610beb9190613240565b60405180910390a1610d08565b61010083148015610c0f5750600084826001015416145b15610c53577fde2bff2d6b387fb139cc88f40ef98966425b338cd8a98b2b4e8230a99c74cfe362ffffff604051610c469190613240565b60405180910390a1610d07565b61020083148015610c6a5750600084826002015416145b15610cae577fde2bff2d6b387fb139cc88f40ef98966425b338cd8a98b2b4e8230a99c74cfe362ffffff604051610ca19190613240565b60405180910390a1610d06565b61030083148015610cc55750600084826003015416145b15610d05577fde2bff2d6b387fb139cc88f40ef98966425b338cd8a98b2b4e8230a99c74cfe362ffffff604051610cfc9190613240565b60405180910390a15b5b5b5b508080610d1490613bee565b915050610b7e565b5060005b610100811015610dd3576001808285901c161415610dc0578060ff610d459190613a6c565b82610d50919061368a565b600760000160046101000a81548162ffffff021916908362ffffff1602179055507fde2bff2d6b387fb139cc88f40ef98966425b338cd8a98b2b4e8230a99c74cfe38160ff610d9f9190613a6c565b83610daa919061368a565b604051610db791906134e9565b60405180910390a15b8080610dcb90613c49565b915050610d20565b507fde2bff2d6b387fb139cc88f40ef98966425b338cd8a98b2b4e8230a99c74cfe362ffffff604051610e069190613240565b60405180910390a1505050565b600760000160009054906101000a900460ff16610e65576040517f08c379a0000000000000000000000000000000000000000000000000000000008152600401610e5c90613409565b60405180910390fd5b6000600560003373ffffffffffffffffffffffffffffffffffffffff1673ffffffffffffffffffffffffffffffffffffffff16815260200190815260200160002060009054906101000a900469ffffffffffffffffffff1690506000600560003373ffffffffffffffffffffffffffffffffffffffff1673ffffffffffffffffffffffffffffffffffffffff16815260200190815260200160002060006101000a81548169ffffffffffffffffffff021916908369ffffffffffffffffffff1602179055503373ffffffffffffffffffffffffffffffffffffffff166108fc8269ffffffffffffffffffff169081150290604051600060405180830381858888f19350505050158015610f7c573d6000803e3d6000fd5b5050565b60008054906101000a900473ffffffffffffffffffffffffffffffffffffffff1673ffffffffffffffffffffffffffffffffffffffff163373ffffffffffffffffffffffffffffffffffffffff161461100e576040517f08c379a000000000000000000000000000000000000000000000000000000000815260040161100590613369565b60405180910390fd5b600760000160039054906101000a900460ff1660ff168160ff161015611069576040517f08c379a000000000000000000000000000000000000000000000000000000000815260040161106090613329565b60405180910390fd5b81600760000160026101000a81548160ff02191690831515021790555080600760000160036101000a81548160ff021916908360ff1602179055505050565b600080610100836110b99190613cae565b6101006110c69190613a38565b61ffff1690506001816110d99190613a6c565b6001901b915050919050565b60008060036000600760000160039054906101000a900460ff1660ff16815260200190815260200160002090506000610100846111229190613757565b61ffff16905060008082141561113e5782600001549050611172565b60018214156111535782600101549050611171565b60028214156111685782600201549050611170565b826003015490505b5b5b600061117d866110a8565b9050600081831690506000811195505050505050919050565b600760000160019054906101000a900460ff16156111e9576040517f08c379a00000000000000000000000000000000000000000000000000000000081526004016111e0906132e9565b60405180910390fd5b600a600760000160039054906101000a900460ff1660ff1614611241576040517f08c379a000000000000000000000000000000000000000000000000000000000815260040161123890613349565b60405180910390fd5b600760010160009054906101000a900473ffffffffffffffffffffffffffffffffffffffff1673ffffffffffffffffffffffffffffffffffffffff16632709c803600760000160079054906101000a900473ffffffffffffffffffffffffffffffffffffffff1633600760000160049054906101000a900462ffffff16856040518563ffffffff1660e01b81526004016112de94939291906131d9565b60206040518083038186803b1580156112f657600080fd5b505afa15801561130a573d6000803e3d6000fd5b505050506040513d601f19601f8201168201806040525081019061132e9190612c53565b61136d576040517f08c379a000000000000000000000000000000000000000000000000000000000815260040161136490613429565b60405180910390fd5b6001600760000160016101000a81548160ff0219169083151502179055503373ffffffffffffffffffffffffffffffffffffffff166108fc60146007600201546113b79190613788565b9081150290604051600060405180830381858888f193505050501580156113e2573d6000803e3d6000fd5b5050565b60003411611429576040517f08c379a000000000000000000000000000000000000000000000000000000000815260040161142090613449565b60405180910390fd5b600760000160029054906101000a900460ff1661147b576040517f08c379a000000000000000000000000000000000000000000000000000000000815260040161147290613389565b60405180910390fd5b6000600760000160039054906101000a900460ff1660ff16146114e1576114a1816110e5565b6114e0576040517f08c379a00000000000000000000000000000000000000000000000000000000081526004016114d7906133e9565b60405180910390fd5b5b6000600460003373ffffffffffffffffffffffffffffffffffffffff1673ffffffffffffffffffffffffffffffffffffffff16815260200190815260200160002090506000808260000160049054906101000a900469ffffffffffffffffffff1669ffffffffffffffffffff16119050600081801561159757506115768360000160029054906101000a900461ffff166110e5565b8061159657506000600760000160039054906101000a900460ff1660ff16145b5b905080156115fc578260000160029054906101000a900461ffff1661ffff168461ffff16146115fb576040517f08c379a00000000000000000000000000000000000000000000000000000000081526004016115f290613469565b60405180910390fd5b5b600034905060008561ffff168560000160029054906101000a900461ffff1661ffff1614159050808061162d575083155b1561179e576040518060a00160405280600015158152602001600760000160039054906101000a900460ff1660ff1681526020018761ffff1681526020018369ffffffffffffffffffff1681526020018369ffffffffffffffffffff16815250600460003373ffffffffffffffffffffffffffffffffffffffff1673ffffffffffffffffffffffffffffffffffffffff16815260200190815260200160002060008201518160000160006101000a81548160ff02191690831515021790555060208201518160000160016101000a81548160ff021916908360ff16021790555060408201518160000160026101000a81548161ffff021916908361ffff16021790555060608201518160000160046101000a81548169ffffffffffffffffffff021916908369ffffffffffffffffffff160217905550608082015181600001600e6101000a81548169ffffffffffffffffffff021916908369ffffffffffffffffffff1602179055509050506117a9565b6117a88583612377565b5b6000600660008861ffff1661ffff168152602001908152602001600020905060008160000160049054906101000a900469ffffffffffffffffffff1669ffffffffffffffffffff16141561193f576040518060a00160405280600015158152602001600760000160039054906101000a900460ff1660ff1681526020018861ffff1681526020018469ffffffffffffffffffff1681526020018469ffffffffffffffffffff16815250600660008961ffff1661ffff16815260200190815260200160002060008201518160000160006101000a81548160ff02191690831515021790555060208201518160000160016101000a81548160ff021916908360ff16021790555060408201518160000160026101000a81548161ffff021916908361ffff16021790555060608201518160000160046101000a81548169ffffffffffffffffffff021916908369ffffffffffffffffffff160217905550608082015181600001600e6101000a81548169ffffffffffffffffffff021916908369ffffffffffffffffffff16021790555090505061194a565b6119498184612377565b5b82600560003373ffffffffffffffffffffffffffffffffffffffff1673ffffffffffffffffffffffffffffffffffffffff16815260200190815260200160002060008282829054906101000a900469ffffffffffffffffffff166119ae9190613717565b92506101000a81548169ffffffffffffffffffff021916908369ffffffffffffffffffff1602179055508269ffffffffffffffffffff16600760020160008282546119f9919061368a565b925050819055508269ffffffffffffffffffff1660076003016000828254611a21919061368a565b9250508190555050505050505050565b600080600080600060036000600760000160039054906101000a900460ff1660ff1681526020019081526020016000209050806000015481600101548260020154836003015494509450945094505090919293565b60008054906101000a900473ffffffffffffffffffffffffffffffffffffffff1673ffffffffffffffffffffffffffffffffffffffff163373ffffffffffffffffffffffffffffffffffffffff1614611b14576040517f08c379a0000000000000000000000000000000000000000000000000000000008152600401611b0b90613369565b60405180910390fd5b600060036000600760000160039054906101000a900460ff1660ff16815260200190815260200160002090508481600001819055508381600101819055508281600201819055508181600301819055505050505050565b600080600080600660008661ffff1661ffff16815260200190815260200160002090508060000160019054906101000a900460ff168160000160049054906101000a900469ffffffffffffffffffff1682600001600e9054906101000a900469ffffffffffffffffffff16935093509350509193909250565b60008580611c3d575060008054906101000a900473ffffffffffffffffffffffffffffffffffffffff1673ffffffffffffffffffffffffffffffffffffffff163373ffffffffffffffffffffffffffffffffffffffff16145b611c7c576040517f08c379a0000000000000000000000000000000000000000000000000000000008152600401611c7390613369565b60405180910390fd5b85611c8a5760025492504391505b6000600583611c999190613cdf565b1415611cda576040517f08c379a0000000000000000000000000000000000000000000000000000000008152600401611cd1906132c9565b60405180910390fd5b611ce2612a63565b600f8516816080019060ff16908160ff1681525050600f60048663ffffffff16901c16816020019060ff16908160ff1681525050600f60088663ffffffff16901c168160a0019060ff16908160ff1681525050600f600c8663ffffffff16901c168160c0019060ff16908160ff1681525050600f60108663ffffffff16901c16816040019060ff16908160ff1681525050600f60148663ffffffff16901c16816060019060ff16908160ff1681525050611d9a612a63565b600f8716816080019060ff16908160ff1681525050600f60048863ffffffff16901c16816020019060ff16908160ff1681525050600f60088863ffffffff16901c168160a0019060ff16908160ff1681525050600f600c8863ffffffff16901c168160c0019060ff16908160ff1681525050600f60108863ffffffff16901c16816040019060ff16908160ff1681525050600f60148863ffffffff16901c16816060019060ff16908160ff16815250508160c001518260a0015183606001518460400151611e6891906136e0565b611e7291906136e0565b611e7c91906136e0565b60ff168160c001518260a0015183606001518460400151611e9d91906136e0565b611ea791906136e0565b611eb191906136e0565b60ff1611158160000190151590811515815250506000806001905060008688604051602001611ee19291906131ad565b6040516020818303038152906040528051906020012060001c905060005b600a8110156120b5578460000151611f18576001611f1b565b60005b60ff166001846fffffffffffffffffffffffffffffffff16901b611f3f9190613644565b9250846000015115611f7157611f58858785858d6124e3565b809650819850829750839a508499505050505050611f93565b611f7e868685858d6124e3565b809650819850829750839950849a5050505050505b60008560a0015160ff161480611fb0575060008660a0015160ff16145b15611ff95760008660a0015160ff1614611fcb576001611fce565b60005b60ff166001846fffffffffffffffffffffffffffffffff16901b611ff29190613644565b92506120b5565b83612029578460000151158560000190151590811515815250508560000151158660000190151590811515815250505b60098114156120a257600060028a846040516020016120499291906131ad565b6040516020818303038152906040528051906020012060001c61206c9190613cdf565b1461207857600161207b565b60005b60ff166001846fffffffffffffffffffffffffffffffff16901b61209f9190613644565b92505b80806120ad90613c49565b915050611eff565b50819550505050505095945050505050565b60008082600760000160039054906101000a900460ff166120e89190613aa0565b905060008160026120f99190613857565b9050808561210791906139f4565b9250505092915050565b60008054906101000a900473ffffffffffffffffffffffffffffffffffffffff1673ffffffffffffffffffffffffffffffffffffffff163373ffffffffffffffffffffffffffffffffffffffff161461219f576040517f08c379a000000000000000000000000000000000000000000000000000000000815260040161219690613369565b60405180910390fd5b80600760000160006101000a81548160ff02191690831515021790555050565b6122598383836040516024016121d79392919061328b565b6040516020818303038152906040527f969cdd03000000000000000000000000000000000000000000000000000000007bffffffffffffffffffffffffffffffffffffffffffffffffffffffff19166020820180517bffffffffffffffffffffffffffffffffffffffffffffffffffffffff838183161783525050505061273d565b505050565b600060146007600201546122729190613788565b90506122966040518060600160405280602f8152602001614120602f9139826122db565b8060076004018190555080600760020160008282546122b59190613a6c565b9250508190555080600760030160008282546122d19190613a6c565b9250508190555050565b61237382826040516024016122f192919061325b565b6040516020818303038152906040527f9710a9d0000000000000000000000000000000000000000000000000000000007bffffffffffffffffffffffffffffffffffffffffffffffffffffffff19166020820180517bffffffffffffffffffffffffffffffffffffffffffffffffffffffff838183161783525050505061273d565b5050565b60008260000160019054906101000a900460ff16600760000160039054906101000a900460ff166123a89190613aa0565b90508060026123b7919061380c565b83600001600e8282829054906101000a900469ffffffffffffffffffff166123df91906139f4565b92506101000a81548169ffffffffffffffffffff021916908369ffffffffffffffffffff1602179055508183600001600e8282829054906101000a900469ffffffffffffffffffff166124329190613717565b92506101000a81548169ffffffffffffffffffff021916908369ffffffffffffffffffff160217905550818360000160048282829054906101000a900469ffffffffffffffffffff166124859190613717565b92506101000a81548169ffffffffffffffffffff021916908369ffffffffffffffffffff160217905550600760000160039054906101000a900460ff168360000160016101000a81548160ff021916908360ff160217905550505050565b6124eb612a63565b6124f3612a63565b6000806000806125048b8b8a612766565b9050806020015160ff16816040015160ff1611156125f75760008a6040015160ff161115612591578060e0015160ff16816020015182604001516125489190613aa0565b60ff161161257857806020015181604001516125649190613aa0565b8160e001516125739190613aa0565b61257b565b60005b8b6040019060ff16908160ff16815250506125f2565b8060e0015160ff16816020015182604001516125ad9190613aa0565b60ff16116125dd57806020015181604001516125c99190613aa0565b8160e001516125d89190613aa0565b6125e0565b60005b8b60a0019060ff16908160ff16815250505b6126ad565b806020015160ff16816040015160ff1610156126ac5760008a6040015160ff1611156126665780610100015160ff16816020015160ff161161264d5780602001518161010001516126489190613aa0565b612650565b60005b8a6040019060ff16908160ff16815250506126ab565b80610100015160ff16816020015160ff16116126965780602001518161010001516126919190613aa0565b612699565b60005b8a60a0019060ff16908160ff16815250505b5b5b806040015160ff166004826020015160ff16901b60ff1660088b6fffffffffffffffffffffffffffffffff16901b6126e59190613644565b6126ef9190613644565b98508a8a8a83600001518a8c60405160200161270c9291906131ad565b6040516020818303038152906040528051906020012060001c95509550955095509550509550955095509550959050565b60008151905060006a636f6e736f6c652e6c6f679050602083016000808483855afa5050505050565b61276e612ab4565b612776612ab4565b6000846040015160ff161115612810578460200151816060019060ff16908160ff16815250508360200151816080019060ff16908160ff168152505084606001518160a0019060ff16908160ff168152505083606001518160c0019060ff16908160ff168152505084604001518160e0019060ff16908160ff1681525050836040015181610100019060ff16908160ff1681525050612896565b8460800151816060019060ff16908160ff16815250508360800151816080019060ff16908160ff16815250508460c001518160a0019060ff16908160ff16815250508360c001518160c0019060ff16908160ff16815250508460a001518160e0019060ff16908160ff16815250508360a0015181610100019060ff16908160ff16815250505b6128a881606001518260800151612a05565b6128c25760018160a001516128bd91906136e0565b6128e0565b600160028260a001516128d591906139b9565b6128df91906136e0565b5b60ff16836128ee9190613cdf565b816020019060ff16908160ff1681525050600f816020015160ff161161291857806020015161291b565b600f5b816020019060ff16908160ff168152505061293e81606001518260800151612a05565b612958578060a0015160ff16816020015160ff1614612976565b60028160a0015161296991906139b9565b60ff16816020015160ff16145b81600001901515908115158152505061299781606001518260800151612a34565b156129fa5760018160c0015160ff16600254856040516020016129bb9291906131ad565b6040516020818303038152906040528051906020012060001c6129de9190613cdf565b6129e8919061368a565b816040019060ff16908160ff16815250505b809150509392505050565b600080600184600d85612a1891906139b9565b612a2291906136e0565b60ff16600154901c1611905092915050565b600080600183600d86612a4791906139b9565b612a5191906136e0565b60ff16600154901c1611905092915050565b6040518060e00160405280600015158152602001600060ff168152602001600060ff168152602001600060ff168152602001600060ff168152602001600060ff168152602001600060ff1681525090565b604051806101200160405280600015158152602001600060ff168152602001600060ff168152602001600060ff168152602001600060ff168152602001600060ff168152602001600060ff168152602001600060ff168152602001600060ff1681525090565b6000612b2d612b28846135db565b6135b6565b905082815260208101848484011115612b4557600080fd5b612b50848285613bac565b509392505050565b600081359050612b6781614052565b92915050565b600081519050612b7c81614052565b92915050565b600082601f830112612b9357600080fd5b8135612ba3848260208601612b1a565b91505092915050565b600081359050612bbb81614069565b92915050565b600081359050612bd081614080565b92915050565b600081359050612be581614097565b92915050565b600081359050612bfa816140ae565b92915050565b600081359050612c0f816140c5565b92915050565b600081359050612c24816140dc565b92915050565b600060208284031215612c3c57600080fd5b6000612c4a84828501612b58565b91505092915050565b600060208284031215612c6557600080fd5b6000612c7384828501612b6d565b91505092915050565b600080600080600060a08688031215612c9457600080fd5b6000612ca288828901612b58565b9550506020612cb388828901612beb565b9450506040612cc488828901612beb565b9350506060612cd588828901612bd6565b9250506080612ce688828901612bd6565b9150509295509295909350565b60008060408385031215612d0657600080fd5b6000612d1485828601612b58565b9250506020612d2585828601612c00565b9150509250929050565b600060208284031215612d4157600080fd5b600082013567ffffffffffffffff811115612d5b57600080fd5b612d6784828501612b82565b91505092915050565b600060208284031215612d8257600080fd5b6000612d9084828501612bac565b91505092915050565b600060208284031215612dab57600080fd5b6000612db984828501612bc1565b91505092915050565b60008060008060808587031215612dd857600080fd5b6000612de687828801612bd6565b9450506020612df787828801612bd6565b9350506040612e0887828801612bd6565b9250506060612e1987828801612bd6565b91505092959194509250565b60008060408385031215612e3857600080fd5b6000612e4685828601612c15565b9250506020612e5785828601612c00565b9150509250929050565b612e6a81613ad4565b82525050565b612e7981613ae6565b82525050565b6000612e8a8261360c565b612e948185613622565b9350612ea4818560208601613bbb565b612ead81613d9d565b840191505092915050565b612ec181613b88565b82525050565b6000612ed282613617565b612edc8185613633565b9350612eec818560208601613bbb565b612ef581613d9d565b840191505092915050565b6000612f0d601783613633565b9150612f1882613dc8565b602082019050919050565b6000612f30602083613633565b9150612f3b82613df1565b602082019050919050565b6000612f53601683613633565b9150612f5e82613e1a565b602082019050919050565b6000612f76601e83613633565b9150612f8182613e43565b602082019050919050565b6000612f99601283613633565b9150612fa482613e6c565b602082019050919050565b6000612fbc601c83613633565b9150612fc782613e95565b602082019050919050565b6000612fdf602583613633565b9150612fea82613ebe565b604082019050919050565b6000613002601783613633565b915061300d82613f0d565b602082019050919050565b6000613025601b83613633565b915061303082613f36565b602082019050919050565b6000613048601583613633565b915061305382613f5f565b602082019050919050565b600061306b601683613633565b915061307682613f88565b602082019050919050565b600061308e601a83613633565b915061309982613fb1565b602082019050919050565b60006130b1602183613633565b91506130bc82613fda565b604082019050919050565b60006130d4601683613633565b91506130df82614029565b602082019050919050565b6130f381613af2565b82525050565b61310a61310582613af2565b613c92565b82525050565b61311981613b0e565b82525050565b61312881613b3c565b82525050565b61313781613b9a565b82525050565b61314681613b4b565b82525050565b61315d61315882613b4b565b613ca4565b82525050565b61316c81613b72565b82525050565b61317b81613b65565b82525050565b600061318d828561314c565b60208201915061319d82846130f9565b6010820191508190509392505050565b60006131b9828561314c565b6020820191506131c9828461314c565b6020820191508190509392505050565b60006080820190506131ee6000830187612e61565b6131fb6020830186612e61565b613208604083018561312e565b818103606083015261321a8184612e7f565b905095945050505050565b600060208201905061323a6000830184612e70565b92915050565b60006020820190506132556000830184612eb8565b92915050565b600060408201905081810360008301526132758185612ec7565b9050613284602083018461313d565b9392505050565b600060608201905081810360008301526132a58186612ec7565b90506132b4602083018561313d565b6132c1604083018461313d565b949350505050565b600060208201905081810360008301526132e281612f00565b9050919050565b6000602082019050818103600083015261330281612f23565b9050919050565b6000602082019050818103600083015261332281612f46565b9050919050565b6000602082019050818103600083015261334281612f69565b9050919050565b6000602082019050818103600083015261336281612f8c565b9050919050565b6000602082019050818103600083015261338281612faf565b9050919050565b600060208201905081810360008301526133a281612fd2565b9050919050565b600060208201905081810360008301526133c281612ff5565b9050919050565b600060208201905081810360008301526133e281613018565b9050919050565b600060208201905081810360008301526134028161303b565b9050919050565b600060208201905081810360008301526134228161305e565b9050919050565b6000602082019050818103600083015261344281613081565b9050919050565b60006020820190508181036000830152613462816130a4565b9050919050565b60006020820190508181036000830152613482816130c7565b9050919050565b600060208201905061349e60008301846130ea565b92915050565b60006080820190506134b96000830187613110565b6134c66020830186613163565b6134d36040830185613163565b6134e06060830184613172565b95945050505050565b60006020820190506134fe600083018461311f565b92915050565b6000602082019050613519600083018461313d565b92915050565b6000608082019050613534600083018761313d565b613541602083018661313d565b61354e604083018561313d565b61355b606083018461313d565b95945050505050565b60006020820190506135796000830184613163565b92915050565b60006060820190506135946000830186613172565b6135a16020830185613163565b6135ae6040830184613163565b949350505050565b60006135c06135d1565b90506135cc8282613c18565b919050565b6000604051905090565b600067ffffffffffffffff8211156135f6576135f5613d6e565b5b6135ff82613d9d565b9050602081019050919050565b600081519050919050565b600081519050919050565b600082825260208201905092915050565b600082825260208201905092915050565b600061364f82613af2565b915061365a83613af2565b9250826fffffffffffffffffffffffffffffffff0382111561367f5761367e613d10565b5b828201905092915050565b600061369582613b4b565b91506136a083613b4b565b9250827fffffffffffffffffffffffffffffffffffffffffffffffffffffffffffffffff038211156136d5576136d4613d10565b5b828201905092915050565b60006136eb82613b65565b91506136f683613b65565b92508260ff0382111561370c5761370b613d10565b5b828201905092915050565b600061372282613b72565b915061372d83613b72565b92508269ffffffffffffffffffff0382111561374c5761374b613d10565b5b828201905092915050565b600061376282613b0e565b915061376d83613b0e565b92508261377d5761377c613d3f565b5b828204905092915050565b600061379382613b4b565b915061379e83613b4b565b9250826137ae576137ad613d3f565b5b828204905092915050565b6000808291508390505b6001851115613803578086048111156137df576137de613d10565b5b60018516156137ee5780820291505b80810290506137fc85613dbb565b94506137c3565b94509492505050565b600061381782613b4b565b915061382283613b65565b925061384f7fffffffffffffffffffffffffffffffffffffffffffffffffffffffffffffffff848461388c565b905092915050565b600061386282613b72565b915061386d83613b65565b925061388469ffffffffffffffffffff848461388c565b905092915050565b60008261389c5760019050613958565b816138aa5760009050613958565b81600181146138c057600281146138ca576138f9565b6001915050613958565b60ff8411156138dc576138db613d10565b5b8360020a9150848211156138f3576138f2613d10565b5b50613958565b5060208310610133831016604e8410600b841016171561392e5782820a90508381111561392957613928613d10565b5b613958565b61393b84848460016137b9565b9250905081840481111561395257613951613d10565b5b81810290505b9392505050565b600061396a82613b4b565b915061397583613b4b565b9250817fffffffffffffffffffffffffffffffffffffffffffffffffffffffffffffffff04831182151516156139ae576139ad613d10565b5b828202905092915050565b60006139c482613b65565b91506139cf83613b65565b92508160ff04831182151516156139e9576139e8613d10565b5b828202905092915050565b60006139ff82613b72565b9150613a0a83613b72565b92508169ffffffffffffffffffff0483118215151615613a2d57613a2c613d10565b5b828202905092915050565b6000613a4382613b0e565b9150613a4e83613b0e565b925082821015613a6157613a60613d10565b5b828203905092915050565b6000613a7782613b4b565b9150613a8283613b4b565b925082821015613a9557613a94613d10565b5b828203905092915050565b6000613aab82613b65565b9150613ab683613b65565b925082821015613ac957613ac8613d10565b5b828203905092915050565b6000613adf82613b1c565b9050919050565b60008115159050919050565b60006fffffffffffffffffffffffffffffffff82169050919050565b600061ffff82169050919050565b600073ffffffffffffffffffffffffffffffffffffffff82169050919050565b600062ffffff82169050919050565b6000819050919050565b600063ffffffff82169050919050565b600060ff82169050919050565b600069ffffffffffffffffffff82169050919050565b6000613b9382613b3c565b9050919050565b6000613ba582613b3c565b9050919050565b82818337600083830152505050565b60005b83811015613bd9578082015181840152602081019050613bbe565b83811115613be8576000848401525b50505050565b6000613bf982613b4b565b91506000821415613c0d57613c0c613d10565b5b600182039050919050565b613c2182613d9d565b810181811067ffffffffffffffff82111715613c4057613c3f613d6e565b5b80604052505050565b6000613c5482613b4b565b91507fffffffffffffffffffffffffffffffffffffffffffffffffffffffffffffffff821415613c8757613c86613d10565b5b600182019050919050565b6000613c9d82613dae565b9050919050565b6000819050919050565b6000613cb982613b0e565b9150613cc483613b0e565b925082613cd457613cd3613d3f565b5b828206905092915050565b6000613cea82613b4b565b9150613cf583613b4b565b925082613d0557613d04613d3f565b5b828206905092915050565b7f4e487b7100000000000000000000000000000000000000000000000000000000600052601160045260246000fd5b7f4e487b7100000000000000000000000000000000000000000000000000000000600052601260045260246000fd5b7f4e487b7100000000000000000000000000000000000000000000000000000000600052604160045260246000fd5b6000601f19601f8301169050919050565b60008160801b9050919050565b60008160011c9050919050565b7f426c6f636b6e756d20646976697369626c652062792035000000000000000000600082015250565b7f426f756e74792068617320616c7265616479206265656e2072656465656d6564600082015250565b7f4d756c7469706c696572206c657373207468616e203200000000000000000000600082015250565b7f526571756972657320677265617465722063757272656e7420726f756e640000600082015250565b7f4d757374206265206c61737420726f756e640000000000000000000000000000600082015250565b7f4d7573742062652063616c6c656420627920636f6e74726f6c6c657200000000600082015250565b7f42657474696e67206973206e6f74206f70656e3b20776520617265206d69642d60008201527f726f756e64000000000000000000000000000000000000000000000000000000602082015250565b7f4265742070726576696f75736c792072656465656d6564000000000000000000600082015250565b7f426c6f636b6e756d206e6f7420646976697369626c6520627920350000000000600082015250565b7f4669676874657220697320656c696d696e617465640000000000000000000000600082015250565b7f4d75737420626520696e206572726f7220737461746500000000000000000000600082015250565b7f507572636861736572206e6f74206f6e2077686974656c697374000000000000600082015250565b7f4d75737420706c61636520612062657420686967686572207468616e207a657260008201527f6f00000000000000000000000000000000000000000000000000000000000000602082015250565b7f43616e6e6f74206368616e676520666967687465727300000000000000000000600082015250565b61405b81613ae6565b811461406657600080fd5b50565b61407281613af2565b811461407d57600080fd5b50565b61408981613b0e565b811461409457600080fd5b50565b6140a081613b4b565b81146140ab57600080fd5b50565b6140b781613b55565b81146140c257600080fd5b50565b6140ce81613b65565b81146140d957600080fd5b50565b6140e581613b72565b81146140f057600080fd5b5056fe5472616e7366657272696e6720626574746f722773207368617265206f6620257320746f20626574746f722e53657474696e67206173696465203525206f6620706f7420666f72206f776e65722c20746f74616c6c696e67202573506f74207368617265206f662025732072656465656d65642c20746f74616c20706f74206973206e6f772025732e496e2072656465656d506f7428292c206669676874657245717569747920697320257320616e642066696768746572546f74616c4571756974792069732025732ea264697066735822122071f8d433f244ea524cc68afd30692eac7df790aba5bee989ba97d6f7f2a0f3e164736f6c63430008040033",
    "linkReferences": {},
    "deployedLinkReferences": {}
}