{
    "_format": "hh-sol-artifact-1",
    "contractName": "FightClub",
    "sourceName": "contracts/FightClub.sol",
    "abi": [
        {
            "inputs": [
                {
                    "internalType": "uint256",
                    "name": "_elementsMatrix",
                    "type": "uint256"
                },
                {
                    "internalType": "address",
                    "name": "_signerAddress",
                    "type": "address"
                },
                {
                    "internalType": "address",
                    "name": "_verifySignatureAddress",
                    "type": "address"
                },
                {
                    "internalType": "bytes32",
                    "name": "_provenanceHash",
                    "type": "bytes32"
                }
            ],
            "stateMutability": "nonpayable",
            "type": "constructor"
        },
        {
            "anonymous": false,
            "inputs": [
                {
                    "indexed": false,
                    "internalType": "uint24",
                    "name": "_winner",
                    "type": "uint24"
                }
            ],
            "name": "Winner",
            "type": "event"
        },
        {
            "inputs": [
                {
                    "internalType": "uint128",
                    "name": "_random",
                    "type": "uint128"
                }
            ],
            "name": "addRandomness",
            "outputs": [],
            "stateMutability": "nonpayable",
            "type": "function"
        },
        {
            "inputs": [
                {
                    "internalType": "uint16",
                    "name": "_fighterIdentifier",
                    "type": "uint16"
                }
            ],
            "name": "bracketWithOnlyFighterAlive",
            "outputs": [
                {
                    "internalType": "uint256",
                    "name": "",
                    "type": "uint256"
                }
            ],
            "stateMutability": "pure",
            "type": "function"
        },
        {
            "inputs": [],
            "name": "emergencyWithdrawal",
            "outputs": [],
            "stateMutability": "nonpayable",
            "type": "function"
        },
        {
            "inputs": [],
            "name": "evaluateWinner",
            "outputs": [],
            "stateMutability": "nonpayable",
            "type": "function"
        },
        {
            "inputs": [
                {
                    "internalType": "bool",
                    "name": "_isSimulated",
                    "type": "bool"
                },
                {
                    "internalType": "uint32",
                    "name": "_fighterOne",
                    "type": "uint32"
                },
                {
                    "internalType": "uint32",
                    "name": "_fighterTwo",
                    "type": "uint32"
                },
                {
                    "internalType": "uint256",
                    "name": "_random",
                    "type": "uint256"
                },
                {
                    "internalType": "uint256",
                    "name": "_blockNumber",
                    "type": "uint256"
                }
            ],
            "name": "fight",
            "outputs": [
                {
                    "internalType": "uint128",
                    "name": "",
                    "type": "uint128"
                }
            ],
            "stateMutability": "view",
            "type": "function"
        },
        {
            "inputs": [],
            "name": "getBet",
            "outputs": [
                {
                    "internalType": "uint16",
                    "name": "",
                    "type": "uint16"
                },
                {
                    "internalType": "uint80",
                    "name": "",
                    "type": "uint80"
                },
                {
                    "internalType": "uint80",
                    "name": "",
                    "type": "uint80"
                },
                {
                    "internalType": "uint8",
                    "name": "",
                    "type": "uint8"
                }
            ],
            "stateMutability": "view",
            "type": "function"
        },
        {
            "inputs": [],
            "name": "getBracketStatus",
            "outputs": [
                {
                    "internalType": "uint256",
                    "name": "",
                    "type": "uint256"
                },
                {
                    "internalType": "uint256",
                    "name": "",
                    "type": "uint256"
                },
                {
                    "internalType": "uint256",
                    "name": "",
                    "type": "uint256"
                },
                {
                    "internalType": "uint256",
                    "name": "",
                    "type": "uint256"
                }
            ],
            "stateMutability": "view",
            "type": "function"
        },
        {
            "inputs": [
                {
                    "internalType": "uint80",
                    "name": "_equity",
                    "type": "uint80"
                },
                {
                    "internalType": "uint8",
                    "name": "_lastRoundUpdated",
                    "type": "uint8"
                }
            ],
            "name": "getEquityForBet",
            "outputs": [
                {
                    "internalType": "uint80",
                    "name": "",
                    "type": "uint80"
                }
            ],
            "stateMutability": "view",
            "type": "function"
        },
        {
            "inputs": [
                {
                    "internalType": "uint16",
                    "name": "_fighterIdentifier",
                    "type": "uint16"
                }
            ],
            "name": "getFighterTotalPot",
            "outputs": [
                {
                    "internalType": "uint8",
                    "name": "",
                    "type": "uint8"
                },
                {
                    "internalType": "uint80",
                    "name": "",
                    "type": "uint80"
                },
                {
                    "internalType": "uint80",
                    "name": "",
                    "type": "uint80"
                }
            ],
            "stateMutability": "view",
            "type": "function"
        },
        {
            "inputs": [],
            "name": "getRandomness",
            "outputs": [
                {
                    "internalType": "uint256",
                    "name": "",
                    "type": "uint256"
                }
            ],
            "stateMutability": "view",
            "type": "function"
        },
        {
            "inputs": [],
            "name": "getTotalPot",
            "outputs": [
                {
                    "internalType": "uint256",
                    "name": "",
                    "type": "uint256"
                }
            ],
            "stateMutability": "view",
            "type": "function"
        },
        {
            "inputs": [
                {
                    "internalType": "uint16",
                    "name": "_fighterIdentifier",
                    "type": "uint16"
                }
            ],
            "name": "isFighterAlive",
            "outputs": [
                {
                    "internalType": "bool",
                    "name": "",
                    "type": "bool"
                }
            ],
            "stateMutability": "view",
            "type": "function"
        },
        {
            "inputs": [
                {
                    "internalType": "uint16",
                    "name": "_fighterIdentifier",
                    "type": "uint16"
                }
            ],
            "name": "placeBet",
            "outputs": [],
            "stateMutability": "payable",
            "type": "function"
        },
        {
            "inputs": [
                {
                    "internalType": "bytes",
                    "name": "_signature",
                    "type": "bytes"
                }
            ],
            "name": "redeemFighterBounty",
            "outputs": [],
            "stateMutability": "nonpayable",
            "type": "function"
        },
        {
            "inputs": [],
            "name": "redeemPot",
            "outputs": [],
            "stateMutability": "nonpayable",
            "type": "function"
        },
        {
            "inputs": [
                {
                    "internalType": "uint256",
                    "name": "_fighterTrancheOne",
                    "type": "uint256"
                },
                {
                    "internalType": "uint256",
                    "name": "_fighterTrancheTwo",
                    "type": "uint256"
                },
                {
                    "internalType": "uint256",
                    "name": "_fighterTrancheThree",
                    "type": "uint256"
                },
                {
                    "internalType": "uint256",
                    "name": "_fighterTrancheFour",
                    "type": "uint256"
                }
            ],
            "name": "setBracketStatus",
            "outputs": [],
            "stateMutability": "nonpayable",
            "type": "function"
        },
        {
            "inputs": [
                {
                    "internalType": "bool",
                    "name": "_bettingIsOpen",
                    "type": "bool"
                },
                {
                    "internalType": "uint8",
                    "name": "_currentRound",
                    "type": "uint8"
                }
            ],
            "name": "setConfig",
            "outputs": [],
            "stateMutability": "nonpayable",
            "type": "function"
        },
        {
            "inputs": [
                {
                    "internalType": "bool",
                    "name": "_isError",
                    "type": "bool"
                }
            ],
            "name": "setConfigError",
            "outputs": [],
            "stateMutability": "nonpayable",
            "type": "function"
        }
    ],
    "bytecode": "0x60806040523480156200001157600080fd5b5060405162004656380380620046568339818101604052810190620000379190620001bc565b336000806101000a81548173ffffffffffffffffffffffffffffffffffffffff021916908373ffffffffffffffffffffffffffffffffffffffff16021790555083600181905550608043426040516020016200009592919062000243565b6040516020818303038152906040528051906020012060001c901c60028190555062ffffff600760000160046101000a81548162ffffff021916908362ffffff16021790555082600760000160076101000a81548173ffffffffffffffffffffffffffffffffffffffff021916908373ffffffffffffffffffffffffffffffffffffffff16021790555081600760010160006101000a81548173ffffffffffffffffffffffffffffffffffffffff021916908373ffffffffffffffffffffffffffffffffffffffff160217905550806007600501819055505050505062000313565b6000815190506200018881620002c5565b92915050565b6000815190506200019f81620002df565b92915050565b600081519050620001b681620002f9565b92915050565b60008060008060808587031215620001d357600080fd5b6000620001e387828801620001a5565b9450506020620001f68782880162000177565b9350506040620002098782880162000177565b92505060606200021c878288016200018e565b91505092959194509250565b6200023d6200023782620002b1565b620002bb565b82525050565b600062000251828562000228565b60208201915062000263828462000228565b6020820191508190509392505050565b6000620002808262000291565b9050919050565b6000819050919050565b600073ffffffffffffffffffffffffffffffffffffffff82169050919050565b6000819050919050565b6000819050919050565b620002d08162000273565b8114620002dc57600080fd5b50565b620002ea8162000287565b8114620002f657600080fd5b50565b6200030481620002b1565b81146200031057600080fd5b50565b61433380620003236000396000f3fe6080604052600436106101095760003560e01c80638fb6162911610095578063cefadde911610064578063cefadde914610316578063d201298c1461033f578063eca2570a1461037e578063fa7b9171146103bb578063fd9cf19e146103f857610109565b80638fb6162914610278578063aaae7b86146102a1578063b8be2394146102cc578063c6d21e81146102e857610109565b806357a15649116100dc57806357a15649146101a75780635b0a3843146101be5780635d3f8c93146101d55780635edec093146101fe5780636b88d8d21461023b57610109565b806320835e8c1461010e5780632e521eb51461013c578063480bc31f146101535780634814516f1461017e575b600080fd5b34801561011a57600080fd5b50610123610421565b60405161013394939291906135be565b60405180910390f35b34801561014857600080fd5b506101516104d4565b005b34801561015f57600080fd5b5061016861098e565b604051610175919061361e565b60405180910390f35b34801561018a57600080fd5b506101a560048036038101906101a09190612e8a565b61099b565b005b3480156101b357600080fd5b506101bc610aa2565b005b3480156101ca57600080fd5b506101d3610e63565b005b3480156101e157600080fd5b506101fc60048036038101906101f79190612e0d565b610fd0565b005b34801561020a57600080fd5b5061022560048036038101906102209190612eb3565b6110f8565b604051610232919061361e565b60405180910390f35b34801561024757600080fd5b50610262600480360381019061025d9190612eb3565b611135565b60405161026f919061333f565b60405180910390f35b34801561028457600080fd5b5061029f600480360381019061029a9190612e49565b6111e6565b005b3480156102ad57600080fd5b506102b6611436565b6040516102c3919061361e565b60405180910390f35b6102e660048036038101906102e19190612eb3565b611440565b005b3480156102f457600080fd5b506102fd611a94565b60405161030d9493929190613639565b60405180910390f35b34801561032257600080fd5b5061033d60048036038101906103389190612edc565b611ae9565b005b34801561034b57600080fd5b5061036660048036038101906103619190612eb3565b611bce565b60405161037593929190613699565b60405180910390f35b34801561038a57600080fd5b506103a560048036038101906103a09190612d96565b611c47565b6040516103b291906135a3565b60405180910390f35b3480156103c757600080fd5b506103e260048036038101906103dd9190612f3f565b6121a5565b6040516103ef919061367e565b60405180910390f35b34801561040457600080fd5b5061041f600480360381019061041a9190612d44565b6121ef565b005b6000806000806000600460003373ffffffffffffffffffffffffffffffffffffffff1673ffffffffffffffffffffffffffffffffffffffff16815260200190815260200160002090508060000160029054906101000a900461ffff168160000160049054906101000a900469ffffffffffffffffffff1682600001600e9054906101000a900469ffffffffffffffffffff168360000160019054906101000a900460ff1694509450945094505090919293565b600a600760000160039054906101000a900460ff1660ff161461052c576040517f08c379a000000000000000000000000000000000000000000000000000000000815260040161052390613483565b60405180910390fd5b6000600460003373ffffffffffffffffffffffffffffffffffffffff1673ffffffffffffffffffffffffffffffffffffffff168152602001908152602001600020905061058a8160000160029054906101000a900461ffff16611135565b6105c9576040517f08c379a00000000000000000000000000000000000000000000000000000000081526004016105c090613503565b60405180910390fd5b8060000160009054906101000a900460ff161561061b576040517f08c379a0000000000000000000000000000000000000000000000000000000008152600401610612906134e3565b60405180910390fd5b60018160000160006101000a81548160ff02191690831515021790555060008160000160019054906101000a900460ff16600760000160039054906101000a900460ff166106699190613bba565b90508060026106789190613926565b82600001600e8282829054906101000a900469ffffffffffffffffffff166106a09190613b0e565b92506101000a81548169ffffffffffffffffffff021916908369ffffffffffffffffffff160217905550600760000160039054906101000a900460ff168260000160016101000a81548160ff021916908360ff1602179055506000600660008460000160029054906101000a900461ffff1661ffff1661ffff16815260200190815260200160002090508060000160019054906101000a900460ff16600760000160039054906101000a900460ff166107599190613bba565b91508160026107689190613926565b81600001600e8282829054906101000a900469ffffffffffffffffffff166107909190613b0e565b92506101000a81548169ffffffffffffffffffff021916908369ffffffffffffffffffff160217905550600760000160039054906101000a900460ff168160000160016101000a81548160ff021916908360ff1602179055506108586040518060800160405280604181526020016142bd6041913984600001600e9054906101000a900469ffffffffffffffffffff1669ffffffffffffffffffff1683600001600e9054906101000a900469ffffffffffffffffffff1669ffffffffffffffffffff1661229d565b6000600760040154141561086f5761086e61233c565b5b600081600001600e9054906101000a900469ffffffffffffffffffff1669ffffffffffffffffffff1684600001600e9054906101000a900469ffffffffffffffffffff1669ffffffffffffffffffff166007600301546108cf9190613a79565b6108d991906138a2565b90506108fd6040518060600160405280602c8152602001614234602c9139826123b9565b3373ffffffffffffffffffffffffffffffffffffffff166108fc829081150290604051600060405180830381858888f19350505050158015610943573d6000803e3d6000fd5b5080600760020160008282546109599190613b86565b925050819055506109886040518060600160405280602e815260200161428f602e91398260076002015461229d565b50505050565b6000600760020154905090565b60006005436109aa9190613df9565b14806109c55750600760000160029054906101000a900460ff165b610a04576040517f08c379a00000000000000000000000000000000000000000000000000000000081526004016109fb90613463565b60405180910390fd5b6001816fffffffffffffffffffffffffffffffff1611610a59576040517f08c379a0000000000000000000000000000000000000000000000000000000008152600401610a5090613423565b60405180910390fd5b6080804383604051602001610a6f92919061329b565b6040516020818303038152906040528051906020012060001c901c600254610a979190613a79565b901c60028190555050565b600a600760000160039054906101000a900460ff1660ff1614610afa576040517f08c379a0000000000000000000000000000000000000000000000000000000008152600401610af190613483565b60405180910390fd5b6000600360006001600760000160039054906101000a900460ff16610b1f9190613bba565b60ff16815260200190815260200160002090506000806000836000015414610b51578260000154915060009050610ba7565b6000836001015414610b6e57826001015491506101009050610ba6565b6000836002015414610b8b57826002015491506102009050610ba5565b6000836003015414610ba4578260030154915061030090505b5b5b5b60006001600760000160039054906101000a900460ff16610bc89190613bba565b60ff1690505b6001811115610d6c576000600360008381526020019081526020016000209050600083148015610c045750600084826000015416145b15610c48577fde2bff2d6b387fb139cc88f40ef98966425b338cd8a98b2b4e8230a99c74cfe362ffffff604051610c3b919061335a565b60405180910390a1610d58565b61010083148015610c5f5750600084826001015416145b15610ca3577fde2bff2d6b387fb139cc88f40ef98966425b338cd8a98b2b4e8230a99c74cfe362ffffff604051610c96919061335a565b60405180910390a1610d57565b61020083148015610cba5750600084826002015416145b15610cfe577fde2bff2d6b387fb139cc88f40ef98966425b338cd8a98b2b4e8230a99c74cfe362ffffff604051610cf1919061335a565b60405180910390a1610d56565b61030083148015610d155750600084826003015416145b15610d55577fde2bff2d6b387fb139cc88f40ef98966425b338cd8a98b2b4e8230a99c74cfe362ffffff604051610d4c919061335a565b60405180910390a15b5b5b5b508080610d6490613d08565b915050610bce565b5060005b610100811015610e23576001808285901c161415610e10578060ff610d959190613b86565b82610da091906137a4565b600760000160046101000a81548162ffffff021916908362ffffff1602179055507fde2bff2d6b387fb139cc88f40ef98966425b338cd8a98b2b4e8230a99c74cfe38160ff610def9190613b86565b83610dfa91906137a4565b604051610e079190613603565b60405180910390a15b8080610e1b90613d63565b915050610d70565b507fde2bff2d6b387fb139cc88f40ef98966425b338cd8a98b2b4e8230a99c74cfe362ffffff604051610e56919061335a565b60405180910390a1505050565b600760000160009054906101000a900460ff16610eb5576040517f08c379a0000000000000000000000000000000000000000000000000000000008152600401610eac90613523565b60405180910390fd5b6000600560003373ffffffffffffffffffffffffffffffffffffffff1673ffffffffffffffffffffffffffffffffffffffff16815260200190815260200160002060009054906101000a900469ffffffffffffffffffff1690506000600560003373ffffffffffffffffffffffffffffffffffffffff1673ffffffffffffffffffffffffffffffffffffffff16815260200190815260200160002060006101000a81548169ffffffffffffffffffff021916908369ffffffffffffffffffff1602179055503373ffffffffffffffffffffffffffffffffffffffff166108fc8269ffffffffffffffffffff169081150290604051600060405180830381858888f19350505050158015610fcc573d6000803e3d6000fd5b5050565b60008054906101000a900473ffffffffffffffffffffffffffffffffffffffff1673ffffffffffffffffffffffffffffffffffffffff163373ffffffffffffffffffffffffffffffffffffffff161461105e576040517f08c379a0000000000000000000000000000000000000000000000000000000008152600401611055906134a3565b60405180910390fd5b600760000160039054906101000a900460ff1660ff168160ff1610156110b9576040517f08c379a00000000000000000000000000000000000000000000000000000000081526004016110b090613443565b60405180910390fd5b81600760000160026101000a81548160ff02191690831515021790555080600760000160036101000a81548160ff021916908360ff1602179055505050565b600080610100836111099190613dc8565b6101006111169190613b52565b61ffff1690506001816111299190613b86565b6001901b915050919050565b60008060036000600760000160039054906101000a900460ff1660ff16815260200190815260200160002090506000610100846111729190613871565b61ffff16905060008082141561118e57826000015490506111c2565b60018214156111a357826001015490506111c1565b60028214156111b857826002015490506111c0565b826003015490505b5b5b60006111cd866110f8565b9050600081831690506000811195505050505050919050565b600760000160019054906101000a900460ff1615611239576040517f08c379a000000000000000000000000000000000000000000000000000000000815260040161123090613403565b60405180910390fd5b600a600760000160039054906101000a900460ff1660ff1614611291576040517f08c379a000000000000000000000000000000000000000000000000000000000815260040161128890613483565b60405180910390fd5b600760010160009054906101000a900473ffffffffffffffffffffffffffffffffffffffff1673ffffffffffffffffffffffffffffffffffffffff16632709c803600760000160079054906101000a900473ffffffffffffffffffffffffffffffffffffffff1633600760000160049054906101000a900462ffffff16856040518563ffffffff1660e01b815260040161132e94939291906132f3565b60206040518083038186803b15801561134657600080fd5b505afa15801561135a573d6000803e3d6000fd5b505050506040513d601f19601f8201168201806040525081019061137e9190612d6d565b6113bd576040517f08c379a00000000000000000000000000000000000000000000000000000000081526004016113b490613543565b60405180910390fd5b6001600760000160016101000a81548160ff0219169083151502179055503373ffffffffffffffffffffffffffffffffffffffff166108fc601460076002015461140791906138a2565b9081150290604051600060405180830381858888f19350505050158015611432573d6000803e3d6000fd5b5050565b6000600254905090565b60003411611483576040517f08c379a000000000000000000000000000000000000000000000000000000000815260040161147a90613563565b60405180910390fd5b600760000160029054906101000a900460ff166114d5576040517f08c379a00000000000000000000000000000000000000000000000000000000081526004016114cc906134c3565b60405180910390fd5b6000600760000160039054906101000a900460ff1660ff161461153b576114fb81611135565b61153a576040517f08c379a000000000000000000000000000000000000000000000000000000000815260040161153190613503565b60405180910390fd5b5b6000600460003373ffffffffffffffffffffffffffffffffffffffff1673ffffffffffffffffffffffffffffffffffffffff16815260200190815260200160002090506000808260000160049054906101000a900469ffffffffffffffffffff1669ffffffffffffffffffff1611905060008180156115f157506115d08360000160029054906101000a900461ffff16611135565b806115f057506000600760000160039054906101000a900460ff1660ff16145b5b90508015611656578260000160029054906101000a900461ffff1661ffff168461ffff1614611655576040517f08c379a000000000000000000000000000000000000000000000000000000000815260040161164c90613583565b60405180910390fd5b5b600034905060008561ffff168560000160029054906101000a900461ffff1661ffff16141590508080611687575083155b156117f8576040518060a00160405280600015158152602001600760000160039054906101000a900460ff1660ff1681526020018761ffff1681526020018369ffffffffffffffffffff1681526020018369ffffffffffffffffffff16815250600460003373ffffffffffffffffffffffffffffffffffffffff1673ffffffffffffffffffffffffffffffffffffffff16815260200190815260200160002060008201518160000160006101000a81548160ff02191690831515021790555060208201518160000160016101000a81548160ff021916908360ff16021790555060408201518160000160026101000a81548161ffff021916908361ffff16021790555060608201518160000160046101000a81548169ffffffffffffffffffff021916908369ffffffffffffffffffff160217905550608082015181600001600e6101000a81548169ffffffffffffffffffff021916908369ffffffffffffffffffff160217905550905050611803565b6118028583612455565b5b6000600660008861ffff1661ffff168152602001908152602001600020905060008160000160049054906101000a900469ffffffffffffffffffff1669ffffffffffffffffffff161415611999576040518060a00160405280600015158152602001600760000160039054906101000a900460ff1660ff1681526020018861ffff1681526020018469ffffffffffffffffffff1681526020018469ffffffffffffffffffff16815250600660008961ffff1661ffff16815260200190815260200160002060008201518160000160006101000a81548160ff02191690831515021790555060208201518160000160016101000a81548160ff021916908360ff16021790555060408201518160000160026101000a81548161ffff021916908361ffff16021790555060608201518160000160046101000a81548169ffffffffffffffffffff021916908369ffffffffffffffffffff160217905550608082015181600001600e6101000a81548169ffffffffffffffffffff021916908369ffffffffffffffffffff1602179055509050506119a4565b6119a38184612455565b5b6119ad4261099b565b82600560003373ffffffffffffffffffffffffffffffffffffffff1673ffffffffffffffffffffffffffffffffffffffff16815260200190815260200160002060008282829054906101000a900469ffffffffffffffffffff16611a119190613831565b92506101000a81548169ffffffffffffffffffff021916908369ffffffffffffffffffff1602179055508269ffffffffffffffffffff1660076002016000828254611a5c91906137a4565b925050819055508269ffffffffffffffffffff1660076003016000828254611a8491906137a4565b9250508190555050505050505050565b600080600080600060036000600760000160039054906101000a900460ff1660ff1681526020019081526020016000209050806000015481600101548260020154836003015494509450945094505090919293565b60008054906101000a900473ffffffffffffffffffffffffffffffffffffffff1673ffffffffffffffffffffffffffffffffffffffff163373ffffffffffffffffffffffffffffffffffffffff1614611b77576040517f08c379a0000000000000000000000000000000000000000000000000000000008152600401611b6e906134a3565b60405180910390fd5b600060036000600760000160039054906101000a900460ff1660ff16815260200190815260200160002090508481600001819055508381600101819055508281600201819055508181600301819055505050505050565b600080600080600660008661ffff1661ffff16815260200190815260200160002090508060000160019054906101000a900460ff168160000160049054906101000a900469ffffffffffffffffffff1682600001600e9054906101000a900469ffffffffffffffffffff16935093509350509193909250565b60008580611ca0575060008054906101000a900473ffffffffffffffffffffffffffffffffffffffff1673ffffffffffffffffffffffffffffffffffffffff163373ffffffffffffffffffffffffffffffffffffffff16145b611cdf576040517f08c379a0000000000000000000000000000000000000000000000000000000008152600401611cd6906134a3565b60405180910390fd5b85611ced5760025492504391505b6000600583611cfc9190613df9565b1415611d3d576040517f08c379a0000000000000000000000000000000000000000000000000000000008152600401611d34906133e3565b60405180910390fd5b611d45612b7d565b600f8516816080019060ff16908160ff1681525050600f60048663ffffffff16901c16816020019060ff16908160ff1681525050600f60088663ffffffff16901c168160a0019060ff16908160ff1681525050600f600c8663ffffffff16901c168160c0019060ff16908160ff1681525050600f60108663ffffffff16901c16816040019060ff16908160ff1681525050600f60148663ffffffff16901c16816060019060ff16908160ff1681525050611dfd612b7d565b600f8716816080019060ff16908160ff1681525050600f60048863ffffffff16901c16816020019060ff16908160ff1681525050600f60088863ffffffff16901c168160a0019060ff16908160ff1681525050600f600c8863ffffffff16901c168160c0019060ff16908160ff1681525050600f60108863ffffffff16901c16816040019060ff16908160ff1681525050600f60148863ffffffff16901c16816060019060ff16908160ff16815250508160c001518260a0015183606001518460400151611ecb91906137fa565b611ed591906137fa565b611edf91906137fa565b60ff168160c001518260a0015183606001518460400151611f0091906137fa565b611f0a91906137fa565b611f1491906137fa565b60ff1611158160000190151590811515815250506000806001905060008688604051602001611f449291906132c7565b6040516020818303038152906040528051906020012060001c905060005b600a811015612193578460000151611f7b576001611f7e565b60005b60ff166001846fffffffffffffffffffffffffffffffff16901b611fa2919061375e565b9250846000015115611fd457611fbb858785858d6125c1565b809650819850829750839a508499505050505050611ff6565b611fe1868685858d6125c1565b809650819850829750839950849a5050505050505b60008560a0015160ff161480612013575060008660a0015160ff16145b1561205c5760008660a0015160ff161461202e576001612031565b60005b60ff166001846fffffffffffffffffffffffffffffffff16901b612055919061375e565b9250612193565b8361208c578460000151158560000190151590811515815250508560000151158660000190151590811515815250505b6009811415612180578560a0015160ff168560a0015160ff161461210f578560a0015160ff168560a0015160ff16116120e657600180846fffffffffffffffffffffffffffffffff16901b6120e1919061375e565b61210a565b60006001846fffffffffffffffffffffffffffffffff16901b612109919061375e565b5b61217d565b600060028a846040516020016121269291906132c7565b6040516020818303038152906040528051906020012060001c6121499190613df9565b14612155576001612158565b60005b60ff166001846fffffffffffffffffffffffffffffffff16901b61217c919061375e565b5b92505b808061218b90613d63565b915050611f62565b50819550505050505095945050505050565b60008082600760000160039054906101000a900460ff166121c69190613bba565b905060008160026121d79190613971565b905080856121e59190613b0e565b9250505092915050565b60008054906101000a900473ffffffffffffffffffffffffffffffffffffffff1673ffffffffffffffffffffffffffffffffffffffff163373ffffffffffffffffffffffffffffffffffffffff161461227d576040517f08c379a0000000000000000000000000000000000000000000000000000000008152600401612274906134a3565b60405180910390fd5b80600760000160006101000a81548160ff02191690831515021790555050565b6123378383836040516024016122b5939291906133a5565b6040516020818303038152906040527f969cdd03000000000000000000000000000000000000000000000000000000007bffffffffffffffffffffffffffffffffffffffffffffffffffffffff19166020820180517bffffffffffffffffffffffffffffffffffffffffffffffffffffffff8381831617835250505050612852565b505050565b6000601460076002015461235091906138a2565b90506123746040518060600160405280602f8152602001614260602f9139826123b9565b8060076004018190555080600760020160008282546123939190613b86565b9250508190555080600760030160008282546123af9190613b86565b9250508190555050565b61245182826040516024016123cf929190613375565b6040516020818303038152906040527f9710a9d0000000000000000000000000000000000000000000000000000000007bffffffffffffffffffffffffffffffffffffffffffffffffffffffff19166020820180517bffffffffffffffffffffffffffffffffffffffffffffffffffffffff8381831617835250505050612852565b5050565b60008260000160019054906101000a900460ff16600760000160039054906101000a900460ff166124869190613bba565b90508060026124959190613926565b83600001600e8282829054906101000a900469ffffffffffffffffffff166124bd9190613b0e565b92506101000a81548169ffffffffffffffffffff021916908369ffffffffffffffffffff1602179055508183600001600e8282829054906101000a900469ffffffffffffffffffff166125109190613831565b92506101000a81548169ffffffffffffffffffff021916908369ffffffffffffffffffff160217905550818360000160048282829054906101000a900469ffffffffffffffffffff166125639190613831565b92506101000a81548169ffffffffffffffffffff021916908369ffffffffffffffffffff160217905550600760000160039054906101000a900460ff168360000160016101000a81548160ff021916908360ff160217905550505050565b6125c9612b7d565b6125d1612b7d565b6000806000806125e28b8b8a61287b565b9050806020015160ff16816040015160ff16111561270c5760008a6040015160ff16118015612618575060008b6040015160ff16115b15612682578060e0015160ff16816020015182604001516126399190613bba565b60ff161161266957806020015181604001516126559190613bba565b8160e001516126649190613bba565b61266c565b60005b8b6040019060ff16908160ff1681525050612707565b60008a6040015160ff161480156126a0575060008b6040015160ff16145b15612706578060e0015160ff16816020015182604001516126c19190613bba565b60ff16116126f157806020015181604001516126dd9190613bba565b8160e001516126ec9190613bba565b6126f4565b60005b8b60a0019060ff16908160ff16815250505b5b6127c2565b806020015160ff16816040015160ff1610156127c15760008a6040015160ff16111561277b5780610100015160ff16816020015160ff161161276257806020015181610100015161275d9190613bba565b612765565b60005b8a6040019060ff16908160ff16815250506127c0565b80610100015160ff16816020015160ff16116127ab5780602001518161010001516127a69190613bba565b6127ae565b60005b8a60a0019060ff16908160ff16815250505b5b5b806040015160ff166004826020015160ff16901b60ff1660088b6fffffffffffffffffffffffffffffffff16901b6127fa919061375e565b612804919061375e565b98508a8a8a83600001518a8c6040516020016128219291906132c7565b6040516020818303038152906040528051906020012060001c95509550955095509550509550955095509550959050565b60008151905060006a636f6e736f6c652e6c6f679050602083016000808483855afa5050505050565b612883612bce565b61288b612bce565b6000846040015160ff161115612925578460200151816060019060ff16908160ff16815250508360200151816080019060ff16908160ff168152505084606001518160a0019060ff16908160ff168152505083606001518160c0019060ff16908160ff168152505084604001518160e0019060ff16908160ff1681525050836040015181610100019060ff16908160ff16815250506129ab565b8460800151816060019060ff16908160ff16815250508360800151816080019060ff16908160ff16815250508460c001518160a0019060ff16908160ff16815250508360c001518160c0019060ff16908160ff16815250508460a001518160e0019060ff16908160ff16815250508360a0015181610100019060ff16908160ff16815250505b6129bd81606001518260800151612b1f565b6129cb578060a001516129dd565b60028160a001516129dc9190613ad3565b5b60ff16836129eb9190613df9565b816020019060ff16908160ff1681525050600060028260a00151612a0f9190613ad3565b60ff16600f11612a2057600f612a32565b60028260a00151612a319190613ad3565b5b9050600f826020015160ff1611612a4d578160200151612a50565b600f5b826020019060ff16908160ff1681525050612a7382606001518360800151612b1f565b612a8d578160a0015160ff16826020015160ff1614612a9b565b8060ff16826020015160ff16145b826000019015159081151581525050612abc82606001518360800151612b4e565b15612b13578160a0015160ff1660025485604051602001612ade9291906132c7565b6040516020818303038152906040528051906020012060001c612b019190613df9565b826040019060ff16908160ff16815250505b81925050509392505050565b600080600183600d86612b329190613ad3565b612b3c91906137fa565b60ff16600154901c1611905092915050565b600080600184600d85612b619190613ad3565b612b6b91906137fa565b60ff16600154901c1611905092915050565b6040518060e00160405280600015158152602001600060ff168152602001600060ff168152602001600060ff168152602001600060ff168152602001600060ff168152602001600060ff1681525090565b604051806101200160405280600015158152602001600060ff168152602001600060ff168152602001600060ff168152602001600060ff168152602001600060ff168152602001600060ff168152602001600060ff168152602001600060ff1681525090565b6000612c47612c42846136f5565b6136d0565b905082815260208101848484011115612c5f57600080fd5b612c6a848285613cc6565b509392505050565b600081359050612c8181614192565b92915050565b600081519050612c9681614192565b92915050565b600082601f830112612cad57600080fd5b8135612cbd848260208601612c34565b91505092915050565b600081359050612cd5816141a9565b92915050565b600081359050612cea816141c0565b92915050565b600081359050612cff816141d7565b92915050565b600081359050612d14816141ee565b92915050565b600081359050612d2981614205565b92915050565b600081359050612d3e8161421c565b92915050565b600060208284031215612d5657600080fd5b6000612d6484828501612c72565b91505092915050565b600060208284031215612d7f57600080fd5b6000612d8d84828501612c87565b91505092915050565b600080600080600060a08688031215612dae57600080fd5b6000612dbc88828901612c72565b9550506020612dcd88828901612d05565b9450506040612dde88828901612d05565b9350506060612def88828901612cf0565b9250506080612e0088828901612cf0565b9150509295509295909350565b60008060408385031215612e2057600080fd5b6000612e2e85828601612c72565b9250506020612e3f85828601612d1a565b9150509250929050565b600060208284031215612e5b57600080fd5b600082013567ffffffffffffffff811115612e7557600080fd5b612e8184828501612c9c565b91505092915050565b600060208284031215612e9c57600080fd5b6000612eaa84828501612cc6565b91505092915050565b600060208284031215612ec557600080fd5b6000612ed384828501612cdb565b91505092915050565b60008060008060808587031215612ef257600080fd5b6000612f0087828801612cf0565b9450506020612f1187828801612cf0565b9350506040612f2287828801612cf0565b9250506060612f3387828801612cf0565b91505092959194509250565b60008060408385031215612f5257600080fd5b6000612f6085828601612d2f565b9250506020612f7185828601612d1a565b9150509250929050565b612f8481613bee565b82525050565b612f9381613c00565b82525050565b6000612fa482613726565b612fae818561373c565b9350612fbe818560208601613cd5565b612fc781613eb7565b840191505092915050565b612fdb81613ca2565b82525050565b6000612fec82613731565b612ff6818561374d565b9350613006818560208601613cd5565b61300f81613eb7565b840191505092915050565b600061302760178361374d565b915061303282613ee2565b602082019050919050565b600061304a60208361374d565b915061305582613f0b565b602082019050919050565b600061306d60168361374d565b915061307882613f34565b602082019050919050565b6000613090601e8361374d565b915061309b82613f5d565b602082019050919050565b60006130b360338361374d565b91506130be82613f86565b604082019050919050565b60006130d660128361374d565b91506130e182613fd5565b602082019050919050565b60006130f9601c8361374d565b915061310482613ffe565b602082019050919050565b600061311c60258361374d565b915061312782614027565b604082019050919050565b600061313f60178361374d565b915061314a82614076565b602082019050919050565b600061316260158361374d565b915061316d8261409f565b602082019050919050565b600061318560168361374d565b9150613190826140c8565b602082019050919050565b60006131a8601a8361374d565b91506131b3826140f1565b602082019050919050565b60006131cb60218361374d565b91506131d68261411a565b604082019050919050565b60006131ee60168361374d565b91506131f982614169565b602082019050919050565b61320d81613c0c565b82525050565b61322461321f82613c0c565b613dac565b82525050565b61323381613c28565b82525050565b61324281613c56565b82525050565b61325181613cb4565b82525050565b61326081613c65565b82525050565b61327761327282613c65565b613dbe565b82525050565b61328681613c8c565b82525050565b61329581613c7f565b82525050565b60006132a78285613266565b6020820191506132b78284613213565b6010820191508190509392505050565b60006132d38285613266565b6020820191506132e38284613266565b6020820191508190509392505050565b60006080820190506133086000830187612f7b565b6133156020830186612f7b565b6133226040830185613248565b81810360608301526133348184612f99565b905095945050505050565b60006020820190506133546000830184612f8a565b92915050565b600060208201905061336f6000830184612fd2565b92915050565b6000604082019050818103600083015261338f8185612fe1565b905061339e6020830184613257565b9392505050565b600060608201905081810360008301526133bf8186612fe1565b90506133ce6020830185613257565b6133db6040830184613257565b949350505050565b600060208201905081810360008301526133fc8161301a565b9050919050565b6000602082019050818103600083015261341c8161303d565b9050919050565b6000602082019050818103600083015261343c81613060565b9050919050565b6000602082019050818103600083015261345c81613083565b9050919050565b6000602082019050818103600083015261347c816130a6565b9050919050565b6000602082019050818103600083015261349c816130c9565b9050919050565b600060208201905081810360008301526134bc816130ec565b9050919050565b600060208201905081810360008301526134dc8161310f565b9050919050565b600060208201905081810360008301526134fc81613132565b9050919050565b6000602082019050818103600083015261351c81613155565b9050919050565b6000602082019050818103600083015261353c81613178565b9050919050565b6000602082019050818103600083015261355c8161319b565b9050919050565b6000602082019050818103600083015261357c816131be565b9050919050565b6000602082019050818103600083015261359c816131e1565b9050919050565b60006020820190506135b86000830184613204565b92915050565b60006080820190506135d3600083018761322a565b6135e0602083018661327d565b6135ed604083018561327d565b6135fa606083018461328c565b95945050505050565b60006020820190506136186000830184613239565b92915050565b60006020820190506136336000830184613257565b92915050565b600060808201905061364e6000830187613257565b61365b6020830186613257565b6136686040830185613257565b6136756060830184613257565b95945050505050565b6000602082019050613693600083018461327d565b92915050565b60006060820190506136ae600083018661328c565b6136bb602083018561327d565b6136c8604083018461327d565b949350505050565b60006136da6136eb565b90506136e68282613d32565b919050565b6000604051905090565b600067ffffffffffffffff8211156137105761370f613e88565b5b61371982613eb7565b9050602081019050919050565b600081519050919050565b600081519050919050565b600082825260208201905092915050565b600082825260208201905092915050565b600061376982613c0c565b915061377483613c0c565b9250826fffffffffffffffffffffffffffffffff0382111561379957613798613e2a565b5b828201905092915050565b60006137af82613c65565b91506137ba83613c65565b9250827fffffffffffffffffffffffffffffffffffffffffffffffffffffffffffffffff038211156137ef576137ee613e2a565b5b828201905092915050565b600061380582613c7f565b915061381083613c7f565b92508260ff0382111561382657613825613e2a565b5b828201905092915050565b600061383c82613c8c565b915061384783613c8c565b92508269ffffffffffffffffffff0382111561386657613865613e2a565b5b828201905092915050565b600061387c82613c28565b915061388783613c28565b92508261389757613896613e59565b5b828204905092915050565b60006138ad82613c65565b91506138b883613c65565b9250826138c8576138c7613e59565b5b828204905092915050565b6000808291508390505b600185111561391d578086048111156138f9576138f8613e2a565b5b60018516156139085780820291505b808102905061391685613ed5565b94506138dd565b94509492505050565b600061393182613c65565b915061393c83613c7f565b92506139697fffffffffffffffffffffffffffffffffffffffffffffffffffffffffffffffff84846139a6565b905092915050565b600061397c82613c8c565b915061398783613c7f565b925061399e69ffffffffffffffffffff84846139a6565b905092915050565b6000826139b65760019050613a72565b816139c45760009050613a72565b81600181146139da57600281146139e457613a13565b6001915050613a72565b60ff8411156139f6576139f5613e2a565b5b8360020a915084821115613a0d57613a0c613e2a565b5b50613a72565b5060208310610133831016604e8410600b8410161715613a485782820a905083811115613a4357613a42613e2a565b5b613a72565b613a5584848460016138d3565b92509050818404811115613a6c57613a6b613e2a565b5b81810290505b9392505050565b6000613a8482613c65565b9150613a8f83613c65565b9250817fffffffffffffffffffffffffffffffffffffffffffffffffffffffffffffffff0483118215151615613ac857613ac7613e2a565b5b828202905092915050565b6000613ade82613c7f565b9150613ae983613c7f565b92508160ff0483118215151615613b0357613b02613e2a565b5b828202905092915050565b6000613b1982613c8c565b9150613b2483613c8c565b92508169ffffffffffffffffffff0483118215151615613b4757613b46613e2a565b5b828202905092915050565b6000613b5d82613c28565b9150613b6883613c28565b925082821015613b7b57613b7a613e2a565b5b828203905092915050565b6000613b9182613c65565b9150613b9c83613c65565b925082821015613baf57613bae613e2a565b5b828203905092915050565b6000613bc582613c7f565b9150613bd083613c7f565b925082821015613be357613be2613e2a565b5b828203905092915050565b6000613bf982613c36565b9050919050565b60008115159050919050565b60006fffffffffffffffffffffffffffffffff82169050919050565b600061ffff82169050919050565b600073ffffffffffffffffffffffffffffffffffffffff82169050919050565b600062ffffff82169050919050565b6000819050919050565b600063ffffffff82169050919050565b600060ff82169050919050565b600069ffffffffffffffffffff82169050919050565b6000613cad82613c56565b9050919050565b6000613cbf82613c56565b9050919050565b82818337600083830152505050565b60005b83811015613cf3578082015181840152602081019050613cd8565b83811115613d02576000848401525b50505050565b6000613d1382613c65565b91506000821415613d2757613d26613e2a565b5b600182039050919050565b613d3b82613eb7565b810181811067ffffffffffffffff82111715613d5a57613d59613e88565b5b80604052505050565b6000613d6e82613c65565b91507fffffffffffffffffffffffffffffffffffffffffffffffffffffffffffffffff821415613da157613da0613e2a565b5b600182019050919050565b6000613db782613ec8565b9050919050565b6000819050919050565b6000613dd382613c28565b9150613dde83613c28565b925082613dee57613ded613e59565b5b828206905092915050565b6000613e0482613c65565b9150613e0f83613c65565b925082613e1f57613e1e613e59565b5b828206905092915050565b7f4e487b7100000000000000000000000000000000000000000000000000000000600052601160045260246000fd5b7f4e487b7100000000000000000000000000000000000000000000000000000000600052601260045260246000fd5b7f4e487b7100000000000000000000000000000000000000000000000000000000600052604160045260246000fd5b6000601f19601f8301169050919050565b60008160801b9050919050565b60008160011c9050919050565b7f426c6f636b6e756d20646976697369626c652062792035000000000000000000600082015250565b7f426f756e74792068617320616c7265616479206265656e2072656465656d6564600082015250565b7f4d756c7469706c696572206c657373207468616e203200000000000000000000600082015250565b7f526571756972657320677265617465722063757272656e7420726f756e640000600082015250565b7f426c6f636b6e756d206e6f7420646976697369626c652062792035206f72206260008201527f657474696e67206973206e6f74206f70656e2e00000000000000000000000000602082015250565b7f4d757374206265206c61737420726f756e640000000000000000000000000000600082015250565b7f4d7573742062652063616c6c656420627920636f6e74726f6c6c657200000000600082015250565b7f42657474696e67206973206e6f74206f70656e3b20776520617265206d69642d60008201527f726f756e64000000000000000000000000000000000000000000000000000000602082015250565b7f4265742070726576696f75736c792072656465656d6564000000000000000000600082015250565b7f4669676874657220697320656c696d696e617465640000000000000000000000600082015250565b7f4d75737420626520696e206572726f7220737461746500000000000000000000600082015250565b7f507572636861736572206e6f74206f6e2077686974656c697374000000000000600082015250565b7f4d75737420706c61636520612062657420686967686572207468616e207a657260008201527f6f00000000000000000000000000000000000000000000000000000000000000602082015250565b7f43616e6e6f74206368616e676520666967687465727300000000000000000000600082015250565b61419b81613c00565b81146141a657600080fd5b50565b6141b281613c0c565b81146141bd57600080fd5b50565b6141c981613c28565b81146141d457600080fd5b50565b6141e081613c65565b81146141eb57600080fd5b50565b6141f781613c6f565b811461420257600080fd5b50565b61420e81613c7f565b811461421957600080fd5b50565b61422581613c8c565b811461423057600080fd5b5056fe5472616e7366657272696e6720626574746f722773207368617265206f6620257320746f20626574746f722e53657474696e67206173696465203525206f6620706f7420666f72206f776e65722c20746f74616c6c696e67202573506f74207368617265206f662025732072656465656d65642c20746f74616c20706f74206973206e6f772025732e496e2072656465656d506f7428292c206669676874657245717569747920697320257320616e642066696768746572546f74616c4571756974792069732025732ea26469706673582212206f8e0206bd935b4da52f2d5cb55210e451a784747bbc1f064e66c43b7b37e84e64736f6c63430008040033",
    "linkReferences": {},
    "deployedLinkReferences": {}
}